{
  "contractName": "BookClub",
  "abi": [
    {
      "constant": true,
      "inputs": [],
      "name": "partnerBridge",
      "outputs": [
        {
          "name": "",
          "type": "string"
        }
      ],
      "payable": false,
      "stateMutability": "view",
      "type": "function"
    },
    {
      "constant": true,
      "inputs": [],
      "name": "lastValue",
      "outputs": [
        {
          "name": "",
          "type": "uint256"
        }
      ],
      "payable": false,
      "stateMutability": "view",
      "type": "function"
    },
    {
      "constant": true,
      "inputs": [],
      "name": "parameters",
      "outputs": [
        {
          "name": "",
          "type": "string"
        }
      ],
      "payable": false,
      "stateMutability": "view",
      "type": "function"
    },
    {
      "constant": true,
      "inputs": [],
      "name": "api",
      "outputs": [
        {
          "name": "",
          "type": "string"
        }
      ],
      "payable": false,
      "stateMutability": "view",
      "type": "function"
    },
    {
      "inputs": [],
      "payable": false,
      "stateMutability": "nonpayable",
      "type": "constructor"
    },
    {
      "anonymous": false,
      "inputs": [
        {
          "indexed": false,
          "name": "",
          "type": "string"
        }
      ],
      "name": "Print",
      "type": "event"
    },
    {
      "anonymous": false,
      "inputs": [
        {
          "indexed": false,
          "name": "",
          "type": "address"
        },
        {
          "indexed": false,
          "name": "",
          "type": "address"
        }
      ],
      "name": "Matched",
      "type": "event"
    },
    {
      "anonymous": false,
      "inputs": [
        {
          "indexed": false,
          "name": "",
          "type": "address"
        }
      ],
      "name": "NewMember",
      "type": "event"
    },
    {
      "anonymous": false,
      "inputs": [
        {
          "indexed": false,
          "name": "",
          "type": "address"
        }
      ],
      "name": "MemberLeaving",
      "type": "event"
    },
    {
      "constant": false,
      "inputs": [],
      "name": "requestNewBook",
      "outputs": [],
      "payable": false,
      "stateMutability": "nonpayable",
      "type": "function"
    },
    {
      "constant": false,
      "inputs": [
        {
          "name": "_user",
          "type": "address"
        },
        {
          "name": "_rating",
          "type": "uint256"
        }
      ],
      "name": "rateUser",
      "outputs": [],
      "payable": false,
      "stateMutability": "nonpayable",
      "type": "function"
    },
    {
      "constant": false,
      "inputs": [
        {
          "name": "_traitor",
          "type": "address"
        }
      ],
      "name": "initiateVote",
      "outputs": [],
      "payable": false,
      "stateMutability": "nonpayable",
      "type": "function"
    },
    {
      "constant": false,
      "inputs": [
        {
          "name": "_id",
          "type": "uint256"
        }
      ],
      "name": "settleVote",
      "outputs": [],
      "payable": false,
      "stateMutability": "nonpayable",
      "type": "function"
    },
    {
      "constant": false,
      "inputs": [
        {
          "name": "_id",
          "type": "uint256"
        },
        {
          "name": "_true_for_yay",
          "type": "bool"
        }
      ],
      "name": "vote",
      "outputs": [],
      "payable": false,
      "stateMutability": "nonpayable",
      "type": "function"
    },
    {
      "constant": false,
      "inputs": [],
      "name": "leaveBookClub",
      "outputs": [],
      "payable": false,
      "stateMutability": "nonpayable",
      "type": "function"
    },
    {
      "constant": false,
      "inputs": [],
      "name": "setBridge",
      "outputs": [],
      "payable": false,
      "stateMutability": "nonpayable",
      "type": "function"
    },
    {
      "constant": false,
      "inputs": [
        {
          "name": "myid",
          "type": "bytes32"
        },
        {
          "name": "result",
          "type": "string"
        },
        {
          "name": "proof",
          "type": "bytes"
        }
      ],
      "name": "__callback",
      "outputs": [],
      "payable": false,
      "stateMutability": "nonpayable",
      "type": "function"
    },
    {
      "constant": false,
      "inputs": [
        {
          "name": "myid",
          "type": "bytes32"
        },
        {
          "name": "result",
          "type": "string"
        }
      ],
      "name": "__callback",
      "outputs": [],
      "payable": false,
      "stateMutability": "nonpayable",
      "type": "function"
    },
    {
      "constant": false,
      "inputs": [
        {
          "name": "myId",
          "type": "bytes32"
        },
        {
          "name": "result",
          "type": "bytes32"
        }
      ],
      "name": "__callback",
      "outputs": [],
      "payable": false,
      "stateMutability": "nonpayable",
      "type": "function"
    },
    {
      "constant": false,
      "inputs": [
        {
          "name": "_user",
          "type": "address"
        }
      ],
      "name": "checkMain",
      "outputs": [],
      "payable": false,
      "stateMutability": "nonpayable",
      "type": "function"
    },
    {
      "constant": true,
      "inputs": [
        {
          "name": "_member_address",
          "type": "string"
        }
      ],
      "name": "createQuery_value",
      "outputs": [
        {
          "name": "",
          "type": "string"
        }
      ],
      "payable": false,
      "stateMutability": "view",
      "type": "function"
    },
    {
      "constant": false,
      "inputs": [
        {
          "name": "_connected",
          "type": "string"
        }
      ],
      "name": "setPartnerBridge",
      "outputs": [],
      "payable": false,
      "stateMutability": "nonpayable",
      "type": "function"
    },
    {
      "constant": false,
      "inputs": [
        {
          "name": "_api",
          "type": "string"
        }
      ],
      "name": "setAPI",
      "outputs": [
        {
          "name": "",
          "type": "string"
        }
      ],
      "payable": false,
      "stateMutability": "nonpayable",
      "type": "function"
    },
    {
      "constant": false,
      "inputs": [
        {
          "name": "_former",
          "type": "address"
        }
      ],
      "name": "departingMember",
      "outputs": [
        {
          "name": "",
          "type": "uint256"
        }
      ],
      "payable": false,
      "stateMutability": "nonpayable",
      "type": "function"
    },
    {
      "constant": false,
      "inputs": [
        {
          "name": "_user",
          "type": "address"
        }
      ],
      "name": "getDeposit",
      "outputs": [
        {
          "name": "",
          "type": "uint256"
        }
      ],
      "payable": false,
      "stateMutability": "nonpayable",
      "type": "function"
    },
    {
      "constant": true,
      "inputs": [
        {
          "name": "code",
          "type": "bytes4"
        }
      ],
      "name": "fromCode",
      "outputs": [
        {
          "name": "",
          "type": "string"
        }
      ],
      "payable": false,
      "stateMutability": "view",
      "type": "function"
    },
    {
      "constant": false,
      "inputs": [
        {
          "name": "x",
          "type": "address"
        }
      ],
      "name": "toAsciiString",
      "outputs": [
        {
          "name": "",
          "type": "string"
        }
      ],
      "payable": false,
      "stateMutability": "nonpayable",
      "type": "function"
    },
    {
      "constant": false,
      "inputs": [
        {
          "name": "b",
          "type": "bytes1"
        }
      ],
      "name": "char",
      "outputs": [
        {
          "name": "c",
          "type": "bytes1"
        }
      ],
      "payable": false,
      "stateMutability": "nonpayable",
      "type": "function"
    }
  ],
  "bytecode": "0x6060604052341561000f57600080fd5b6000600b819055506000600c81905550613ae88061002e6000396000f300606060405260043610610133576000357c0100000000000000000000000000000000000000000000000000000000900463ffffffff1680631a1a2ad91461013857806322c22a201461017157806327dc297e146101ff5780632c0ad2ad146102695780632c6e7598146103245780633059a2b4146103d657806338bbfa50146104335780633d4effc4146104e057806343183834146105225780634fb9eda91461054b5780635f66c9551461059857806362fafc91146105ad578063696cf2a01461068357806369f9ad2f1461075957806383d2420b146107f6578063890357301461082a578063898e61e3146108b8578063aa5e219e146108cd578063b76821c514610906578063b886b2b014610929578063c9d27afe1461093e578063d2c18e0b1461096c578063e1254fba146109fa575b600080fd5b341561014357600080fd5b61016f600480803573ffffffffffffffffffffffffffffffffffffffff16906020019091905050610a47565b005b341561017c57600080fd5b610184610b64565b6040518080602001828103825283818151815260200191508051906020019080838360005b838110156101c45780820151818401526020810190506101a9565b50505050905090810190601f1680156101f15780820380516001836020036101000a031916815260200191505b509250505060405180910390f35b341561020a57600080fd5b61026760048080356000191690602001909190803590602001908201803590602001908080601f01602080910402602001604051908101604052809392919081815260200183838082843782019150505050505091905050610c02565b005b341561027457600080fd5b6102a960048080357bffffffffffffffffffffffffffffffffffffffffffffffffffffffff1916906020019091905050610c34565b6040518080602001828103825283818151815260200191508051906020019080838360005b838110156102e95780820151818401526020810190506102ce565b50505050905090810190601f1680156103165780820380516001836020036101000a031916815260200191505b509250505060405180910390f35b341561032f57600080fd5b61035b600480803573ffffffffffffffffffffffffffffffffffffffff16906020019091905050610ead565b6040518080602001828103825283818151815260200191508051906020019080838360005b8381101561039b578082015181840152602081019050610380565b50505050905090810190601f1680156103c85780820380516001836020036101000a031916815260200191505b509250505060405180910390f35b34156103e157600080fd5b610431600480803590602001908201803590602001908080601f016020809104026020016040519081016040528093929190818152602001838380828437820191505050505050919050506110be565b005b341561043e57600080fd5b6104de60048080356000191690602001909190803590602001908201803590602001908080601f0160208091040260200160405190810160405280939291908181526020018383808284378201915050505050509190803590602001908201803590602001908080601f016020809104026020016040519081016040528093929190818152602001838380828437820191505050505050919050506110d8565b005b34156104eb57600080fd5b610520600480803573ffffffffffffffffffffffffffffffffffffffff169060200190919080359060200190919050506110dd565b005b341561052d57600080fd5b61053561129a565b6040518082815260200191505060405180910390f35b341561055657600080fd5b610582600480803573ffffffffffffffffffffffffffffffffffffffff169060200190919050506112a0565b6040518082815260200191505060405180910390f35b34156105a357600080fd5b6105ab6112e9565b005b34156105b857600080fd5b610608600480803590602001908201803590602001908080601f016020809104026020016040519081016040528093929190818152602001838380828437820191505050505050919050506112f4565b6040518080602001828103825283818151815260200191508051906020019080838360005b8381101561064857808201518184015260208101905061062d565b50505050905090810190601f1680156106755780820380516001836020036101000a031916815260200191505b509250505060405180910390f35b341561068e57600080fd5b6106de600480803590602001908201803590602001908080601f016020809104026020016040519081016040528093929190818152602001838380828437820191505050505050919050506114d0565b6040518080602001828103825283818151815260200191508051906020019080838360005b8381101561071e578082015181840152602081019050610703565b50505050905090810190601f16801561074b5780820380516001836020036101000a031916815260200191505b509250505060405180910390f35b341561076457600080fd5b61079c60048080357effffffffffffffffffffffffffffffffffffffffffffffffffffffffffffff1916906020019091905050611591565b60405180827effffffffffffffffffffffffffffffffffffffffffffffffffffffffffffff19167effffffffffffffffffffffffffffffffffffffffffffffffffffffffffffff1916815260200191505060405180910390f35b341561080157600080fd5b61082860048080356000191690602001909190803560001916906020019091905050611681565b005b341561083557600080fd5b61083d611715565b6040518080602001828103825283818151815260200191508051906020019080838360005b8381101561087d578082015181840152602081019050610862565b50505050905090810190601f1680156108aa5780820380516001836020036101000a031916815260200191505b509250505060405180910390f35b34156108c357600080fd5b6108cb6117b3565b005b34156108d857600080fd5b610904600480803573ffffffffffffffffffffffffffffffffffffffff16906020019091905050611b4c565b005b341561091157600080fd5b6109276004808035906020019091905050611e54565b005b341561093457600080fd5b61093c611f3d565b005b341561094957600080fd5b61096a60048080359060200190919080351515906020019091905050612003565b005b341561097757600080fd5b61097f6120eb565b6040518080602001828103825283818151815260200191508051906020019080838360005b838110156109bf5780820151818401526020810190506109a4565b50505050905090810190601f1680156109ec5780820380516001836020036101000a031916815260200191505b509250505060405180910390f35b3415610a0557600080fd5b610a31600480803573ffffffffffffffffffffffffffffffffffffffff16906020019091905050612189565b6040518082815260200191505060405180910390f35b600560003373ffffffffffffffffffffffffffffffffffffffff1673ffffffffffffffffffffffffffffffffffffffff16815260200190815260200160002060009054906101000a900460ff161515610a9f57600080fd5b80600a6000600b54815260200190815260200160002060000160006101000a81548173ffffffffffffffffffffffffffffffffffffffff021916908373ffffffffffffffffffffffffffffffffffffffff16021790555042600a6000600b548152602001908152602001600020600101819055506000600a6000600b548152602001908152602001600020600201819055506000600a6000600b54815260200190815260200160002060030181905550600b6000815480929190600101919050555050565b60118054600181600116156101000203166002900480601f016020809104026020016040519081016040528092919081815260200182805460018160011615610100020316600290048015610bfa5780601f10610bcf57610100808354040283529160200191610bfa565b820191906000526020600020905b815481529060010190602001808311610bdd57829003601f168201915b505050505081565b610c3082826000604051805910610c165750595b9080825280601f01601f19166020018201604052506110d8565b5050565b610c3c6139b0565b610c446139c4565b6000600a604051805910610c555750595b9080825280601f01601f191660200182016040525091507f3000000000000000000000000000000000000000000000000000000000000000826000815181101515610c9c57fe5b9060200101907effffffffffffffffffffffffffffffffffffffffffffffffffffffffffffff1916908160001a9053507f7800000000000000000000000000000000000000000000000000000000000000826001815181101515610cfc57fe5b9060200101907effffffffffffffffffffffffffffffffffffffffffffffffffffffffffffff1916908160001a905350600090505b6004811015610ea357610da560108583600481101515610d4d57fe5b1a7f0100000000000000000000000000000000000000000000000000000000000000027f0100000000000000000000000000000000000000000000000000000000000000900460ff16811515610d9f57fe5b04612190565b8260028360020201815181101515610db957fe5b9060200101907effffffffffffffffffffffffffffffffffffffffffffffffffffffffffffff1916908160001a905350610e5460108583600481101515610dfc57fe5b1a7f0100000000000000000000000000000000000000000000000000000000000000027f0100000000000000000000000000000000000000000000000000000000000000900460ff16811515610e4e57fe5b06612190565b8260038360020201815181101515610e6857fe5b9060200101907effffffffffffffffffffffffffffffffffffffffffffffffffffffffffffff1916908160001a905350806001019050610d31565b8192505050919050565b610eb56139b0565b610ebd6139c4565b6000806000806028604051805910610ed25750595b9080825280601f01601f19166020018201604052509450600093505b60148410156110b1578360130360080260020a8773ffffffffffffffffffffffffffffffffffffffff16811515610f2157fe5b047f01000000000000000000000000000000000000000000000000000000000000000292506010837f0100000000000000000000000000000000000000000000000000000000000000900460ff16811515610f7857fe5b047f0100000000000000000000000000000000000000000000000000000000000000029150817f01000000000000000000000000000000000000000000000000000000000000009004601002837f01000000000000000000000000000000000000000000000000000000000000009004037f010000000000000000000000000000000000000000000000000000000000000002905061101682611591565b858560020281518110151561102757fe5b9060200101907effffffffffffffffffffffffffffffffffffffffffffffffffffffffffffff1916908160001a90535061106081611591565b856001866002020181518110151561107457fe5b9060200101907effffffffffffffffffffffffffffffffffffffffffffffffffffffffffffff1916908160001a9053508380600101945050610eee565b8495505050505050919050565b80601190805190602001906110d49291906139d8565b5050565b505050565b8173ffffffffffffffffffffffffffffffffffffffff16600f60003373ffffffffffffffffffffffffffffffffffffffff1673ffffffffffffffffffffffffffffffffffffffff16815260200190815260200160002060009054906101000a900473ffffffffffffffffffffffffffffffffffffffff1673ffffffffffffffffffffffffffffffffffffffff16148015611178575060058111155b151561118357600080fd5b6001600660008473ffffffffffffffffffffffffffffffffffffffff1673ffffffffffffffffffffffffffffffffffffffff168152602001908152602001600020540181600660008573ffffffffffffffffffffffffffffffffffffffff1673ffffffffffffffffffffffffffffffffffffffff16815260200190815260200160002054600760008673ffffffffffffffffffffffffffffffffffffffff1673ffffffffffffffffffffffffffffffffffffffff16815260200190815260200160002054020181151561125257fe5b04600760008473ffffffffffffffffffffffffffffffffffffffff1673ffffffffffffffffffffffffffffffffffffffff168152602001908152602001600020819055505050565b60145481565b6000601660008373ffffffffffffffffffffffffffffffffffffffff1673ffffffffffffffffffffffffffffffffffffffff168152602001908152602001600020549050919050565b6112f2336122b7565b565b6112fc6139b0565b6113046139b0565b61130c6139b0565b6113146139b0565b61135161134b601560009054906101000a90047c010000000000000000000000000000000000000000000000000000000002610c34565b866123cb565b9250606060405190810160405280603d81526020017f207b226a736f6e727063223a22322e30222c226964223a332c226d6574686f6481526020017f223a226574685f63616c6c222c22706172616d73223a5b7b22746f223a00000081525091506114c38260118054600181600116156101000203166002900480601f01602080910402602001604051908101604052809291908181526020018280546001816001161561010002031660029004801561144c5780601f106114215761010080835404028352916020019161144c565b820191906000526020600020905b81548152906001019060200180831161142f57829003601f168201915b50505050506040805190810160405280600981526020017f2c2264617461223a220000000000000000000000000000000000000000000000815250866040805190810160405280600d81526020017f227d2c226c6174657374225d7d00000000000000000000000000000000000000815250612418565b9050809350505050919050565b6114d86139b0565b81601290805190602001906114ee9291906139d8565b5060128054600181600116156101000203166002900480601f0160208091040260200160405190810160405280929190818152602001828054600181600116156101000203166002900480156115855780601f1061155a57610100808354040283529160200191611585565b820191906000526020600020905b81548152906001019060200180831161156857829003601f168201915b50505050509050919050565b6000600a7f010000000000000000000000000000000000000000000000000000000000000002827effffffffffffffffffffffffffffffffffffffffffffffffffffffffffffff19161015611630576030827f01000000000000000000000000000000000000000000000000000000000000009004017f010000000000000000000000000000000000000000000000000000000000000002905061167c565b6057827f01000000000000000000000000000000000000000000000000000000000000009004017f01000000000000000000000000000000000000000000000000000000000000000290505b919050565b611689612850565b73ffffffffffffffffffffffffffffffffffffffff163373ffffffffffffffffffffffffffffffffffffffff161415156116c257600080fd5b806001900460148190555061171160106000846000191660001916815260200190815260200160002060009054906101000a900473ffffffffffffffffffffffffffffffffffffffff16612b3f565b5050565b60138054600181600116156101000203166002900480601f0160208091040260200160405190810160405280929190818152602001828054600181600116156101000203166002900480156117ab5780601f10611780576101008083540402835291602001916117ab565b820191906000526020600020905b81548152906001019060200180831161178e57829003601f168201915b505050505081565b600073ffffffffffffffffffffffffffffffffffffffff16600860009054906101000a900473ffffffffffffffffffffffffffffffffffffffff1673ffffffffffffffffffffffffffffffffffffffff1614156118505733600860006101000a81548173ffffffffffffffffffffffffffffffffffffffff021916908373ffffffffffffffffffffffffffffffffffffffff160217905550611b4a565b33600f6000600860009054906101000a900473ffffffffffffffffffffffffffffffffffffffff1673ffffffffffffffffffffffffffffffffffffffff1673ffffffffffffffffffffffffffffffffffffffff16815260200190815260200160002060006101000a81548173ffffffffffffffffffffffffffffffffffffffff021916908373ffffffffffffffffffffffffffffffffffffffff160217905550600860009054906101000a900473ffffffffffffffffffffffffffffffffffffffff16600f60003373ffffffffffffffffffffffffffffffffffffffff1673ffffffffffffffffffffffffffffffffffffffff16815260200190815260200160002060006101000a81548173ffffffffffffffffffffffffffffffffffffffff021916908373ffffffffffffffffffffffffffffffffffffffff160217905550600160066000600860009054906101000a900473ffffffffffffffffffffffffffffffffffffffff1673ffffffffffffffffffffffffffffffffffffffff1673ffffffffffffffffffffffffffffffffffffffff168152602001908152602001600020600082825401925050819055506001600660003373ffffffffffffffffffffffffffffffffffffffff1673ffffffffffffffffffffffffffffffffffffffff168152602001908152602001600020600082825401925050819055507fd14ed81663bee87b643b51c1f63fc86cb3b2bba9cc237cf6db5c3d5967a26952600860009054906101000a900473ffffffffffffffffffffffffffffffffffffffff1633604051808373ffffffffffffffffffffffffffffffffffffffff1673ffffffffffffffffffffffffffffffffffffffff1681526020018273ffffffffffffffffffffffffffffffffffffffff1673ffffffffffffffffffffffffffffffffffffffff1681526020019250505060405180910390a16000600860006101000a81548173ffffffffffffffffffffffffffffffffffffffff021916908373ffffffffffffffffffffffffffffffffffffffff1602179055505b565b611b546139b0565b611b5c6139b0565b60003073ffffffffffffffffffffffffffffffffffffffff1631611bb46040805190810160405280600381526020017f55524c0000000000000000000000000000000000000000000000000000000000815250612c0e565b1115611c73577f241ba3bafc919fb4308284ce03a8f4867a8ec2f0401445d3cf41a468e7db4ae060405180806020018281038252604b8152602001807f4f7261636c697a6520717565727920776173204e4f542073656e742c20706c6581526020017f6173652061646420736f6d652045544820746f20636f76657220666f7220746881526020017f652071756572792066656500000000000000000000000000000000000000000081525060600191505060405180910390a1611e4e565b7f241ba3bafc919fb4308284ce03a8f4867a8ec2f0401445d3cf41a468e7db4ae06040518080602001828103825260358152602001807f4f7261636c697a65207175657279207761732073656e742c207374616e64696e81526020017f6720627920666f722074686520616e737765722e2e000000000000000000000081525060400191505060405180910390a1611d0a84610ead565b9250611d15836112f4565b9150611df16040805190810160405280600381526020017f55524c000000000000000000000000000000000000000000000000000000000081525060128054600181600116156101000203166002900480601f016020809104026020016040519081016040528092919081815260200182805460018160011615610100020316600290048015611de65780601f10611dbb57610100808354040283529160200191611de6565b820191906000526020600020905b815481529060010190602001808311611dc957829003601f168201915b505050505084612f6f565b90508360106000836000191660001916815260200190815260200160002060006101000a81548173ffffffffffffffffffffffffffffffffffffffff021916908373ffffffffffffffffffffffffffffffffffffffff1602179055505b50505050565b611e5c613a58565b600a6000838152602001908152602001600020608060405190810160405290816000820160009054906101000a900473ffffffffffffffffffffffffffffffffffffffff1673ffffffffffffffffffffffffffffffffffffffff1673ffffffffffffffffffffffffffffffffffffffff16815260200160018201548152602001600282015481526020016003820154815250509050621275004201600a60008481526020019081526020016000206001015411151515611f1b57600080fd5b806060015181604001511115611f3957611f3881600001516122b7565b5b5050565b63e1254fba7c010000000000000000000000000000000000000000000000000000000002601560006101000a81548163ffffffff02191690837c010000000000000000000000000000000000000000000000000000000090040217905550612000606060405190810160405280602781526020017f6a736f6e2868747470733a2f2f726f707374656e2e696e667572612e696f2f2981526020017f2e726573756c74000000000000000000000000000000000000000000000000008152506114d0565b50565b61200b613a58565b600a6000848152602001908152602001600020608060405190810160405290816000820160009054906101000a900473ffffffffffffffffffffffffffffffffffffffff1673ffffffffffffffffffffffffffffffffffffffff1673ffffffffffffffffffffffffffffffffffffffff168152602001600182015481526020016002820154815260200160038201548152505090506212750042038160200151101515156120b857600080fd5b81156120d45760018160400181815101915081815250506120e6565b60018160600181815101915081815250505b505050565b60128054600181600116156101000203166002900480601f0160208091040260200160405190810160405280929190818152602001828054600181600116156101000203166002900480156121815780601f1061215657610100808354040283529160200191612181565b820191906000526020600020905b81548152906001019060200180831161216457829003601f168201915b505050505081565b6000919050565b60008160ff166000111580156121aa575060098260ff1611155b1561221e57817f30000000000000000000000000000000000000000000000000000000000000007f01000000000000000000000000000000000000000000000000000000000000009004017f01000000000000000000000000000000000000000000000000000000000000000290506122b2565b8160ff16600a111580156122365750600f8260ff1611155b156122ad57600a827f61000000000000000000000000000000000000000000000000000000000000007f0100000000000000000000000000000000000000000000000000000000000000900401037f01000000000000000000000000000000000000000000000000000000000000000290506122b2565b600080fd5b919050565b6000600560008373ffffffffffffffffffffffffffffffffffffffff1673ffffffffffffffffffffffffffffffffffffffff16815260200190815260200160002060006101000a81548160ff0219169083151502179055507fa5900de09bdf6ec8ef95d12f8f27648ff0f5f03bf640bae24cf3529c07a1d3b881604051808273ffffffffffffffffffffffffffffffffffffffff1673ffffffffffffffffffffffffffffffffffffffff16815260200191505060405180910390a16001600d600082825403925050819055506001601660008373ffffffffffffffffffffffffffffffffffffffff1673ffffffffffffffffffffffffffffffffffffffff1681526020019081526020016000208190555050565b6123d36139b0565b6124108383602060405190810160405280600081525060206040519081016040528060008152506020604051908101604052806000815250612418565b905092915050565b6124206139b0565b6124286139c4565b6124306139c4565b6124386139c4565b6124406139c4565b6124486139c4565b6124506139b0565b6124586139c4565b6000808e98508d97508c96508b95508a94508451865188518a518c51010101016040518059106124855750595b9080825280601f01601f1916602001820160405250935083925060009150600090505b885181101561255b5788818151811015156124bf57fe5b9060200101517f010000000000000000000000000000000000000000000000000000000000000090047f010000000000000000000000000000000000000000000000000000000000000002838380600101945081518110151561251e57fe5b9060200101907effffffffffffffffffffffffffffffffffffffffffffffffffffffffffffff1916908160001a90535080806001019150506124a8565b600090505b875181101561261357878181518110151561257757fe5b9060200101517f010000000000000000000000000000000000000000000000000000000000000090047f01000000000000000000000000000000000000000000000000000000000000000283838060010194508151811015156125d657fe5b9060200101907effffffffffffffffffffffffffffffffffffffffffffffffffffffffffffff1916908160001a9053508080600101915050612560565b600090505b86518110156126cb57868181518110151561262f57fe5b9060200101517f010000000000000000000000000000000000000000000000000000000000000090047f010000000000000000000000000000000000000000000000000000000000000002838380600101945081518110151561268e57fe5b9060200101907effffffffffffffffffffffffffffffffffffffffffffffffffffffffffffff1916908160001a9053508080600101915050612618565b600090505b85518110156127835785818151811015156126e757fe5b9060200101517f010000000000000000000000000000000000000000000000000000000000000090047f010000000000000000000000000000000000000000000000000000000000000002838380600101945081518110151561274657fe5b9060200101907effffffffffffffffffffffffffffffffffffffffffffffffffffffffffffff1916908160001a90535080806001019150506126d0565b600090505b845181101561283b57848181518110151561279f57fe5b9060200101517f010000000000000000000000000000000000000000000000000000000000000090047f01000000000000000000000000000000000000000000000000000000000000000283838060010194508151811015156127fe57fe5b9060200101907effffffffffffffffffffffffffffffffffffffffffffffffffffffffffffff1916908160001a9053508080600101915050612788565b82995050505050505050505095945050505050565b6000806000809054906101000a900473ffffffffffffffffffffffffffffffffffffffff1673ffffffffffffffffffffffffffffffffffffffff1614806128c0575060006128be6000809054906101000a900473ffffffffffffffffffffffffffffffffffffffff166134eb565b145b156128d1576128cf60006134f6565b505b6000809054906101000a900473ffffffffffffffffffffffffffffffffffffffff1673ffffffffffffffffffffffffffffffffffffffff166338cc48316040518163ffffffff167c0100000000000000000000000000000000000000000000000000000000028152600401602060405180830381600087803b151561295557600080fd5b5af1151561296257600080fd5b5050506040518051905073ffffffffffffffffffffffffffffffffffffffff16600160009054906101000a900473ffffffffffffffffffffffffffffffffffffffff1673ffffffffffffffffffffffffffffffffffffffff16141515612a9e576000809054906101000a900473ffffffffffffffffffffffffffffffffffffffff1673ffffffffffffffffffffffffffffffffffffffff166338cc48316040518163ffffffff167c0100000000000000000000000000000000000000000000000000000000028152600401602060405180830381600087803b1515612a4657600080fd5b5af11515612a5357600080fd5b50505060405180519050600160006101000a81548173ffffffffffffffffffffffffffffffffffffffff021916908373ffffffffffffffffffffffffffffffffffffffff1602179055505b600160009054906101000a900473ffffffffffffffffffffffffffffffffffffffff1673ffffffffffffffffffffffffffffffffffffffff1663c281d19e6040518163ffffffff167c0100000000000000000000000000000000000000000000000000000000028152600401602060405180830381600087803b1515612b2357600080fd5b5af11515612b3057600080fd5b50505060405180519050905090565b6001600560008373ffffffffffffffffffffffffffffffffffffffff1673ffffffffffffffffffffffffffffffffffffffff16815260200190815260200160002060006101000a81548160ff0219169083151502179055507fb4dcb6dd550f27b5917ebf674899ea7046ff91790c6f9f01431617ad39819db281604051808273ffffffffffffffffffffffffffffffffffffffff1673ffffffffffffffffffffffffffffffffffffffff16815260200191505060405180910390a16001600d6000828254019250508190555050565b6000806000809054906101000a900473ffffffffffffffffffffffffffffffffffffffff1673ffffffffffffffffffffffffffffffffffffffff161480612c7e57506000612c7c6000809054906101000a900473ffffffffffffffffffffffffffffffffffffffff166134eb565b145b15612c8f57612c8d60006134f6565b505b6000809054906101000a900473ffffffffffffffffffffffffffffffffffffffff1673ffffffffffffffffffffffffffffffffffffffff166338cc48316040518163ffffffff167c0100000000000000000000000000000000000000000000000000000000028152600401602060405180830381600087803b1515612d1357600080fd5b5af11515612d2057600080fd5b5050506040518051905073ffffffffffffffffffffffffffffffffffffffff16600160009054906101000a900473ffffffffffffffffffffffffffffffffffffffff1673ffffffffffffffffffffffffffffffffffffffff16141515612e5c576000809054906101000a900473ffffffffffffffffffffffffffffffffffffffff1673ffffffffffffffffffffffffffffffffffffffff166338cc48316040518163ffffffff167c0100000000000000000000000000000000000000000000000000000000028152600401602060405180830381600087803b1515612e0457600080fd5b5af11515612e1157600080fd5b50505060405180519050600160006101000a81548173ffffffffffffffffffffffffffffffffffffffff021916908373ffffffffffffffffffffffffffffffffffffffff1602179055505b600160009054906101000a900473ffffffffffffffffffffffffffffffffffffffff1673ffffffffffffffffffffffffffffffffffffffff1663524f3889836040518263ffffffff167c01000000000000000000000000000000000000000000000000000000000281526004018080602001828103825283818151815260200191508051906020019080838360005b83811015612f06578082015181840152602081019050612eeb565b50505050905090810190601f168015612f335780820380516001836020036101000a031916815260200191505b5092505050602060405180830381600087803b1515612f5157600080fd5b5af11515612f5e57600080fd5b505050604051805190509050919050565b60008060008060009054906101000a900473ffffffffffffffffffffffffffffffffffffffff1673ffffffffffffffffffffffffffffffffffffffff161480612fe157506000612fdf6000809054906101000a900473ffffffffffffffffffffffffffffffffffffffff166134eb565b145b15612ff257612ff060006134f6565b505b6000809054906101000a900473ffffffffffffffffffffffffffffffffffffffff1673ffffffffffffffffffffffffffffffffffffffff166338cc48316040518163ffffffff167c0100000000000000000000000000000000000000000000000000000000028152600401602060405180830381600087803b151561307657600080fd5b5af1151561308357600080fd5b5050506040518051905073ffffffffffffffffffffffffffffffffffffffff16600160009054906101000a900473ffffffffffffffffffffffffffffffffffffffff1673ffffffffffffffffffffffffffffffffffffffff161415156131bf576000809054906101000a900473ffffffffffffffffffffffffffffffffffffffff1673ffffffffffffffffffffffffffffffffffffffff166338cc48316040518163ffffffff167c0100000000000000000000000000000000000000000000000000000000028152600401602060405180830381600087803b151561316757600080fd5b5af1151561317457600080fd5b50505060405180519050600160006101000a81548173ffffffffffffffffffffffffffffffffffffffff021916908373ffffffffffffffffffffffffffffffffffffffff1602179055505b600160009054906101000a900473ffffffffffffffffffffffffffffffffffffffff1673ffffffffffffffffffffffffffffffffffffffff1663524f3889866040518263ffffffff167c01000000000000000000000000000000000000000000000000000000000281526004018080602001828103825283818151815260200191508051906020019080838360005b8381101561326957808201518184015260208101905061324e565b50505050905090810190601f1680156132965780820380516001836020036101000a031916815260200191505b5092505050602060405180830381600087803b15156132b457600080fd5b5af115156132c157600080fd5b50505060405180519050905062030d403a02670de0b6b3a7640000018111156132f057600060010291506134e3565b600160009054906101000a900473ffffffffffffffffffffffffffffffffffffffff1673ffffffffffffffffffffffffffffffffffffffff1663772286598260008888886040518663ffffffff167c010000000000000000000000000000000000000000000000000000000002815260040180858152602001806020018060200180602001848103845287818151815260200191508051906020019080838360005b838110156133ad578082015181840152602081019050613392565b50505050905090810190601f1680156133da5780820380516001836020036101000a031916815260200191505b50848103835286818151815260200191508051906020019080838360005b838110156134135780820151818401526020810190506133f8565b50505050905090810190601f1680156134405780820380516001836020036101000a031916815260200191505b50848103825285818151815260200191508051906020019080838360005b8381101561347957808201518184015260208101905061345e565b50505050905090810190601f1680156134a65780820380516001836020036101000a031916815260200191505b509750505050505050506020604051808303818588803b15156134c857600080fd5b5af115156134d557600080fd5b505050506040518051905091505b509392505050565b6000813b9050919050565b6000613500613507565b9050919050565b600080613527731d3b2638a7cc9f2cb3d298a3da7a90b67e5506ed6134eb565b11156135c857731d3b2638a7cc9f2cb3d298a3da7a90b67e5506ed6000806101000a81548173ffffffffffffffffffffffffffffffffffffffff021916908373ffffffffffffffffffffffffffffffffffffffff1602179055506135bf6040805190810160405280600b81526020017f6574685f6d61696e6e6574000000000000000000000000000000000000000000815250613996565b60019050613993565b60006135e773c03a2615d5efaf5f49f60b7bb6583eaec212fdf16134eb565b11156136885773c03a2615d5efaf5f49f60b7bb6583eaec212fdf16000806101000a81548173ffffffffffffffffffffffffffffffffffffffff021916908373ffffffffffffffffffffffffffffffffffffffff16021790555061367f6040805190810160405280600c81526020017f6574685f726f707374656e330000000000000000000000000000000000000000815250613996565b60019050613993565b60006136a773b7a07bcf2ba2f2703b24c0691b5278999c59ac7e6134eb565b11156137485773b7a07bcf2ba2f2703b24c0691b5278999c59ac7e6000806101000a81548173ffffffffffffffffffffffffffffffffffffffff021916908373ffffffffffffffffffffffffffffffffffffffff16021790555061373f6040805190810160405280600981526020017f6574685f6b6f76616e0000000000000000000000000000000000000000000000815250613996565b60019050613993565b600061376773146500cfd35b22e4a392fe0adc06de1a1368ed486134eb565b11156138085773146500cfd35b22e4a392fe0adc06de1a1368ed486000806101000a81548173ffffffffffffffffffffffffffffffffffffffff021916908373ffffffffffffffffffffffffffffffffffffffff1602179055506137ff6040805190810160405280600b81526020017f6574685f72696e6b656279000000000000000000000000000000000000000000815250613996565b60019050613993565b6000613827736f485c8bf6fc43ea212e93bbf8ce046c7f1cb4756134eb565b111561388a57736f485c8bf6fc43ea212e93bbf8ce046c7f1cb4756000806101000a81548173ffffffffffffffffffffffffffffffffffffffff021916908373ffffffffffffffffffffffffffffffffffffffff16021790555060019050613993565b60006138a97320e12a1f859b3feae5fb2a0a32c18f5a65555bbf6134eb565b111561390c577320e12a1f859b3feae5fb2a0a32c18f5a65555bbf6000806101000a81548173ffffffffffffffffffffffffffffffffffffffff021916908373ffffffffffffffffffffffffffffffffffffffff16021790555060019050613993565b600061392b7351efaf4c8b3c9afbd5ab9f4bbc82784ab6ef8faa6134eb565b111561398e577351efaf4c8b3c9afbd5ab9f4bbc82784ab6ef8faa6000806101000a81548173ffffffffffffffffffffffffffffffffffffffff021916908373ffffffffffffffffffffffffffffffffffffffff16021790555060019050613993565b600090505b90565b80600290805190602001906139ac9291906139d8565b5050565b602060405190810160405280600081525090565b602060405190810160405280600081525090565b828054600181600116156101000203166002900490600052602060002090601f016020900481019282601f10613a1957805160ff1916838001178555613a47565b82800160010185558215613a47579182015b82811115613a46578251825591602001919060010190613a2b565b5b509050613a549190613a97565b5090565b608060405190810160405280600073ffffffffffffffffffffffffffffffffffffffff1681526020016000815260200160008152602001600081525090565b613ab991905b80821115613ab5576000816000905550600101613a9d565b5090565b905600a165627a7a7230582082df9e37519c6fe2c459ec9c2ae19bec836312c1f074c722d1a04673e38563af0029",
  "source": "\r\npragma solidity ^0.4.21;\r\n\r\nimport \"./Oraclize/Oraclize_API.sol\";\r\nimport \"./libraries/SafeMath.sol\";\r\n\r\ncontract BookClub is usingOraclize{\r\n\r\n    using SafeMath for uint256;\r\n\r\n  mapping(address => bool) members;\r\n  mapping(address => uint) reputation;\r\n  mapping(address => uint) rating;\r\n  address nextInLine;\r\n  mapping(uint => Details) matches;\r\n  struct Details{\r\n    address maker;\r\n    address taker;\r\n    uint matchId;\r\n  }\r\n\r\n    struct userDetails{\r\n    string r;\r\n    address taker;\r\n    uint matchId;\r\n  }\r\n\r\n  struct VoteDetails{\r\n    address traitor;\r\n    uint start;\r\n    uint yays;\r\n    uint nays;\r\n  }\r\n  mapping(uint => VoteDetails) votes;\r\n  uint vote_nonce;\r\n  uint match_nonce;\r\n  uint membersCount;\r\n  uint stake;\r\n  mapping(address => address) matched;\r\n  mapping (bytes32 => address) query;\r\n  \r\n  //Bridge Functionality\r\n\r\n  string public partnerBridge; //address of bridge contract on other chain\r\n  string public api;\r\n  string public parameters;\r\n  uint public lastValue;\r\n  bytes4 private method_data;\r\n  mapping(address => uint) departingBalance;\r\n\r\n  event Print(string);\r\n  \r\n\r\n  event Matched(address,address);\r\n  event NewMember(address);\r\n  event MemberLeaving(address);\r\n\r\n\r\n  function BookClub() public{\r\n    vote_nonce = 0;\r\n    match_nonce =0;\r\n  }\r\n  \r\n\r\n\r\n  function requestNewBook() public {\r\n    if(nextInLine == address(0)){\r\n      nextInLine = msg.sender;\r\n    }\r\n    else{\r\n      matched[nextInLine] = msg.sender;\r\n      matched[msg.sender] = nextInLine;\r\n      reputation[nextInLine] += 1;\r\n      reputation[msg.sender] += 1;\r\n      emit Matched(nextInLine,msg.sender);\r\n      nextInLine = address(0);\r\n    }\r\n  }\r\n\r\n  /*rate the user you were matched with*/\r\n  function rateUser(address _user, uint _rating) public {\r\n    require(matched[msg.sender] == _user && _rating <= 5);\r\n    rating[_user] = (rating[_user]*reputation[_user] + _rating) / (reputation[_user] + 1);\r\n  }\r\n\r\n\r\n  /*can vote to kick someone out*/\r\n  function initiateVote(address _traitor) public {\r\n    require(members[msg.sender]);\r\n    votes[vote_nonce].traitor = _traitor;\r\n    votes[vote_nonce].start = now;\r\n    votes[vote_nonce].yays = 0;\r\n    votes[vote_nonce].nays = 0;\r\n    vote_nonce++;\r\n  }\r\n  function settleVote(uint _id) public {\r\n    VoteDetails memory _vote = votes[_id];\r\n    require(votes[_id].start <= now + 86400*14);\r\n    if(_vote.yays > _vote.nays){\r\n      removeMember(_vote.traitor);\r\n    }\r\n  }\r\n\r\n  function vote(uint _id,bool _true_for_yay) public {\r\n    VoteDetails memory _vote = votes[_id];\r\n    require(_vote.start >= now - 86400*14);\r\n    if(_true_for_yay){\r\n      _vote.yays += 1;\r\n    }\r\n    else{\r\n      _vote.nays += 1;\r\n    }\r\n  }\r\n\r\n\r\n  //How do we put in a timelock or not let anyone just leave?\r\n  function leaveBookClub() public {\r\n    removeMember(msg.sender);\r\n  }\r\n\r\n  function removeMember(address _traitor) internal{\r\n    members[_traitor] = false;\r\n    emit MemberLeaving(_traitor);\r\n    membersCount -= 1;\r\n    departingBalance[_traitor] = 1;\r\n  }\r\n\r\n\r\n  function setBridge() public {\r\n       method_data = this.getDeposit.selector;\r\n       setAPI(\"json(https://ropsten.infura.io/).result\");\r\n       //setPartnerBridge('\"0x8c9aed038274ecf28a4f435fe731e2ff249166dc\"');\r\n  }\r\n\r\n//ADD ID TO QUERY\r\n    function __callback(bytes32 myId, bytes32 result) public {\r\n        require(msg.sender == oraclize_cbAddress());\r\n        lastValue = uint(result);\r\n        joinBookClub(query[myId]);\r\n\r\n    }\r\n\r\n\r\n    function checkMain(address _user)public {\r\n        if (oraclize_getPrice(\"URL\") > address(this).balance) {\r\n            emit Print(\"Oraclize query was NOT sent, please add some ETH to cover for the query fee\");\r\n        } else {\r\n            emit Print(\"Oraclize query was sent, standing by for the answer..\");\r\n            string memory _n_user = toAsciiString(_user);\r\n            string memory _params = createQuery_value(_n_user);\r\n             bytes32 queryId = oraclize_query(\"URL\",api,_params);\r\n             query[queryId] = _user;\r\n        }\r\n      }\r\n\r\n    function createQuery_value(string _member_address) public constant returns(string){\r\n      string memory _code = strConcat(fromCode(method_data),_member_address);\r\n      string memory _part = ' {\"jsonrpc\":\"2.0\",\"id\":3,\"method\":\"eth_call\",\"params\":[{\"to\":';\r\n      string memory _params2 = strConcat(_part,partnerBridge,',\"data\":\"',_code,'\"},\"latest\"]}');\r\n      return _params2;\r\n    }\r\n\r\n\r\n    function joinBookClub(address _user) internal {\r\n    members[_user] = true;\r\n    emit NewMember(_user);\r\n    membersCount += 1;\r\n\r\n  }\r\n\r\n\r\n  function setPartnerBridge(string _connected) public{\r\n    partnerBridge = _connected;\r\n  }\r\n  \r\n  function setAPI(string _api) public returns(string){\r\n      api = _api; \r\n      return api;  //\r\n  }\r\n\r\n  function departingMember(address _former) public returns(uint){\r\n    return departingBalance[_former];\r\n  }\r\n\r\n    function getDeposit(address _user) public returns(uint){\r\n  }\r\n\r\n    function fromCode(bytes4 code) public view returns (string) {                                                                                    \r\n    bytes memory result = new bytes(10);                                                                                                         \r\n    result[0] = byte('0');\r\n    result[1] = byte('x');\r\n    for (uint i=0; i<4; ++i) {\r\n        result[2*i+2] = toHexDigit(uint8(code[i])/16);\r\n        result[2*i+3] = toHexDigit(uint8(code[i])%16);\r\n    }\r\n    return string(result);\r\n}\r\n\r\n    function toHexDigit(uint8 d) pure internal returns (byte) {                                                                                      \r\n    if (0 <= d && d <= 9) {                                                                                                                      \r\n        return byte(uint8(byte('0')) + d);                                                                                                       \r\n    } else if (10 <= uint8(d) && uint8(d) <= 15) {                                                                                               \r\n        return byte(uint8(byte('a')) + d - 10);                                                                                                  \r\n    }                                                                                                                                            \r\n    revert();                                                                                                                                    \r\n}                                                                                                                                                \r\n\r\nfunction toAsciiString(address x) returns (string) {\r\n    bytes memory s = new bytes(40);\r\n    for (uint i = 0; i < 20; i++) {\r\n        byte b = byte(uint8(uint(x) / (2**(8*(19 - i)))));\r\n        byte hi = byte(uint8(b) / 16);\r\n        byte lo = byte(uint8(b) - 16 * uint8(hi));\r\n        s[2*i] = char(hi);\r\n        s[2*i+1] = char(lo);            \r\n    }\r\n    return string(s);\r\n}\r\n\r\nfunction char(byte b) returns (byte c) {\r\n    if (b < 10) return byte(uint8(b) + 0x30);\r\n    else return byte(uint8(b) + 0x57);\r\n}\r\n}\r\n",
  "sourcePath": "C:\\Nick\\hackital\\ethereumBookClub\\contracts\\BookClub.sol",
  "compiler": {
    "name": "solc",
    "version": "0.4.21+commit.dfe3193c.Emscripten.clang"
  },
  "schemaVersion": "2.0.0",
  "updatedAt": "2018-04-28T20:37:09.571Z"
}