{
  "contractName": "BookClub",
  "abi": [
    {
      "constant": true,
      "inputs": [],
      "name": "partnerBridge",
      "outputs": [
        {
          "name": "",
          "type": "string"
        }
      ],
      "payable": false,
      "stateMutability": "view",
      "type": "function"
    },
    {
      "constant": true,
      "inputs": [],
      "name": "lastValue",
      "outputs": [
        {
          "name": "",
          "type": "uint256"
        }
      ],
      "payable": false,
      "stateMutability": "view",
      "type": "function"
    },
    {
      "constant": true,
      "inputs": [],
      "name": "parameters",
      "outputs": [
        {
          "name": "",
          "type": "string"
        }
      ],
      "payable": false,
      "stateMutability": "view",
      "type": "function"
    },
    {
      "constant": true,
      "inputs": [],
      "name": "api",
      "outputs": [
        {
          "name": "",
          "type": "string"
        }
      ],
      "payable": false,
      "stateMutability": "view",
      "type": "function"
    },
    {
      "inputs": [],
      "payable": false,
      "stateMutability": "nonpayable",
      "type": "constructor"
    },
    {
      "anonymous": false,
      "inputs": [
        {
          "indexed": false,
          "name": "_issue",
          "type": "string"
        }
      ],
      "name": "Print",
      "type": "event"
    },
    {
      "anonymous": false,
      "inputs": [
        {
          "indexed": false,
          "name": "",
          "type": "address"
        },
        {
          "indexed": false,
          "name": "",
          "type": "address"
        }
      ],
      "name": "Matched",
      "type": "event"
    },
    {
      "anonymous": false,
      "inputs": [
        {
          "indexed": false,
          "name": "_newbie",
          "type": "address"
        }
      ],
      "name": "NewMember",
      "type": "event"
    },
    {
      "anonymous": false,
      "inputs": [
        {
          "indexed": false,
          "name": "",
          "type": "address"
        }
      ],
      "name": "MemberLeaving",
      "type": "event"
    },
    {
      "constant": false,
      "inputs": [],
      "name": "requestNewBook",
      "outputs": [],
      "payable": false,
      "stateMutability": "nonpayable",
      "type": "function"
    },
    {
      "constant": false,
      "inputs": [
        {
          "name": "_user",
          "type": "address"
        },
        {
          "name": "_rating",
          "type": "uint256"
        }
      ],
      "name": "rateUser",
      "outputs": [],
      "payable": false,
      "stateMutability": "nonpayable",
      "type": "function"
    },
    {
      "constant": false,
      "inputs": [
        {
          "name": "_email",
          "type": "string"
        },
        {
          "name": "_pref",
          "type": "string"
        },
        {
          "name": "_books",
          "type": "string"
        }
      ],
      "name": "setUserInfo",
      "outputs": [],
      "payable": false,
      "stateMutability": "nonpayable",
      "type": "function"
    },
    {
      "constant": true,
      "inputs": [
        {
          "name": "_member",
          "type": "address"
        }
      ],
      "name": "getUserInfo",
      "outputs": [
        {
          "name": "",
          "type": "string"
        },
        {
          "name": "",
          "type": "string"
        },
        {
          "name": "",
          "type": "string"
        }
      ],
      "payable": false,
      "stateMutability": "view",
      "type": "function"
    },
    {
      "constant": true,
      "inputs": [
        {
          "name": "_user",
          "type": "address"
        }
      ],
      "name": "isMember",
      "outputs": [
        {
          "name": "",
          "type": "bool"
        }
      ],
      "payable": false,
      "stateMutability": "view",
      "type": "function"
    },
    {
      "constant": true,
      "inputs": [
        {
          "name": "_user",
          "type": "address"
        }
      ],
      "name": "getRating",
      "outputs": [
        {
          "name": "",
          "type": "uint256"
        }
      ],
      "payable": false,
      "stateMutability": "view",
      "type": "function"
    },
    {
      "constant": true,
      "inputs": [
        {
          "name": "_user",
          "type": "address"
        }
      ],
      "name": "getReputation",
      "outputs": [
        {
          "name": "",
          "type": "uint256"
        }
      ],
      "payable": false,
      "stateMutability": "view",
      "type": "function"
    },
    {
      "constant": false,
      "inputs": [
        {
          "name": "_traitor",
          "type": "address"
        }
      ],
      "name": "initiateVote",
      "outputs": [],
      "payable": false,
      "stateMutability": "nonpayable",
      "type": "function"
    },
    {
      "constant": false,
      "inputs": [
        {
          "name": "_id",
          "type": "uint256"
        }
      ],
      "name": "settleVote",
      "outputs": [],
      "payable": false,
      "stateMutability": "nonpayable",
      "type": "function"
    },
    {
      "constant": false,
      "inputs": [
        {
          "name": "_id",
          "type": "uint256"
        },
        {
          "name": "_true_for_yay",
          "type": "bool"
        }
      ],
      "name": "vote",
      "outputs": [],
      "payable": false,
      "stateMutability": "nonpayable",
      "type": "function"
    },
    {
      "constant": false,
      "inputs": [],
      "name": "leaveBookClub",
      "outputs": [],
      "payable": false,
      "stateMutability": "nonpayable",
      "type": "function"
    },
    {
      "constant": false,
      "inputs": [
        {
          "name": "myId",
          "type": "bytes32"
        },
        {
          "name": "result",
          "type": "string"
        }
      ],
      "name": "__callback",
      "outputs": [],
      "payable": false,
      "stateMutability": "nonpayable",
      "type": "function"
    },
    {
      "constant": false,
      "inputs": [
        {
          "name": "myid",
          "type": "bytes32"
        },
        {
          "name": "result",
          "type": "string"
        },
        {
          "name": "proof",
          "type": "bytes"
        }
      ],
      "name": "__callback",
      "outputs": [],
      "payable": false,
      "stateMutability": "nonpayable",
      "type": "function"
    },
    {
      "constant": false,
      "inputs": [
        {
          "name": "_user",
          "type": "address"
        }
      ],
      "name": "checkMain",
      "outputs": [],
      "payable": true,
      "stateMutability": "payable",
      "type": "function"
    },
    {
      "constant": true,
      "inputs": [
        {
          "name": "_member_address",
          "type": "string"
        }
      ],
      "name": "createQuery_value",
      "outputs": [
        {
          "name": "",
          "type": "string"
        }
      ],
      "payable": false,
      "stateMutability": "view",
      "type": "function"
    },
    {
      "constant": false,
      "inputs": [
        {
          "name": "_connected",
          "type": "string"
        }
      ],
      "name": "setPartnerBridge",
      "outputs": [],
      "payable": false,
      "stateMutability": "nonpayable",
      "type": "function"
    },
    {
      "constant": false,
      "inputs": [
        {
          "name": "_api",
          "type": "string"
        }
      ],
      "name": "setAPI",
      "outputs": [
        {
          "name": "",
          "type": "string"
        }
      ],
      "payable": false,
      "stateMutability": "nonpayable",
      "type": "function"
    },
    {
      "constant": false,
      "inputs": [
        {
          "name": "_former",
          "type": "address"
        }
      ],
      "name": "departingMember",
      "outputs": [
        {
          "name": "",
          "type": "uint256"
        }
      ],
      "payable": false,
      "stateMutability": "nonpayable",
      "type": "function"
    },
    {
      "constant": false,
      "inputs": [
        {
          "name": "_user",
          "type": "address"
        }
      ],
      "name": "getDeposit",
      "outputs": [
        {
          "name": "",
          "type": "uint256"
        }
      ],
      "payable": false,
      "stateMutability": "nonpayable",
      "type": "function"
    },
    {
      "constant": true,
      "inputs": [
        {
          "name": "code",
          "type": "bytes4"
        }
      ],
      "name": "fromCode",
      "outputs": [
        {
          "name": "",
          "type": "string"
        }
      ],
      "payable": false,
      "stateMutability": "view",
      "type": "function"
    },
    {
      "constant": false,
      "inputs": [
        {
          "name": "x",
          "type": "address"
        }
      ],
      "name": "toAsciiString",
      "outputs": [
        {
          "name": "",
          "type": "string"
        }
      ],
      "payable": false,
      "stateMutability": "nonpayable",
      "type": "function"
    },
    {
      "constant": false,
      "inputs": [
        {
          "name": "b",
          "type": "bytes1"
        }
      ],
      "name": "char",
      "outputs": [
        {
          "name": "c",
          "type": "bytes1"
        }
      ],
      "payable": false,
      "stateMutability": "nonpayable",
      "type": "function"
    }
  ],
  "bytecode": "0x606060405234156200001057600080fd5b6000600c8190555063a230c5247c010000000000000000000000000000000000000000000000000000000002601560006101000a81548163ffffffff02191690837c010000000000000000000000000000000000000000000000000000000090040217905550620000f1606060405190810160405280602781526020017f6a736f6e2868747470733a2f2f726f707374656e2e696e667572612e696f2f2981526020017f2e726573756c7400000000000000000000000000000000000000000000000000815250620000f86401000000000262001cef176401000000009004565b5062000284565b62000102620001c1565b81601290805190602001906200011a929190620001d5565b5060128054600181600116156101000203166002900480601f016020809104026020016040519081016040528092919081815260200182805460018160011615610100020316600290048015620001b55780601f106200018957610100808354040283529160200191620001b5565b820191906000526020600020905b8154815290600101906020018083116200019757829003601f168201915b50505050509050919050565b602060405190810160405280600081525090565b828054600181600116156101000203166002900490600052602060002090601f016020900481019282601f106200021857805160ff191683800117855562000249565b8280016001018555821562000249579182015b82811115620002485782518255916020019190600101906200022b565b5b5090506200025891906200025c565b5090565b6200028191905b808211156200027d57600081600090555060010162000263565b5090565b90565b61468980620002946000396000f300606060405260043610610154576000357c0100000000000000000000000000000000000000000000000000000000900463ffffffff1680631a1a2ad91461015957806322c22a201461019257806327dc297e146102205780632c0ad2ad1461028a5780632c6e7598146103455780633059a2b4146103f757806338bbfa50146104545780633d4effc41461050157806343183834146105435780634fb9eda91461056c5780635f66c955146105b957806362fafc91146105ce5780636386c1c7146106a4578063696cf2a01461082e57806369f9ad2f1461090457806380fc9c0e146109a157806389035730146109ee578063898e61e314610a7c5780638ffe411f14610a915780639c89a0e214610b74578063a230c52414610bc1578063aa5e219e14610c12578063b76821c514610c40578063c9d27afe14610c63578063d2c18e0b14610c91578063e1254fba14610d1f575b600080fd5b341561016457600080fd5b610190600480803573ffffffffffffffffffffffffffffffffffffffff16906020019091905050610d6c565b005b341561019d57600080fd5b6101a5610e89565b6040518080602001828103825283818151815260200191508051906020019080838360005b838110156101e55780820151818401526020810190506101ca565b50505050905090810190601f1680156102125780820380516001836020036101000a031916815260200191505b509250505060405180910390f35b341561022b57600080fd5b61028860048080356000191690602001909190803590602001908201803590602001908080601f01602080910402602001604051908101604052809392919081815260200183838082843782019150505050505091905050610f27565b005b341561029557600080fd5b6102ca60048080357bffffffffffffffffffffffffffffffffffffffffffffffffffffffff1916906020019091905050611094565b6040518080602001828103825283818151815260200191508051906020019080838360005b8381101561030a5780820151818401526020810190506102ef565b50505050905090810190601f1680156103375780820380516001836020036101000a031916815260200191505b509250505060405180910390f35b341561035057600080fd5b61037c600480803573ffffffffffffffffffffffffffffffffffffffff1690602001909190505061130d565b6040518080602001828103825283818151815260200191508051906020019080838360005b838110156103bc5780820151818401526020810190506103a1565b50505050905090810190601f1680156103e95780820380516001836020036101000a031916815260200191505b509250505060405180910390f35b341561040257600080fd5b610452600480803590602001908201803590602001908080601f0160208091040260200160405190810160405280939291908181526020018383808284378201915050505050509190505061151e565b005b341561045f57600080fd5b6104ff60048080356000191690602001909190803590602001908201803590602001908080601f0160208091040260200160405190810160405280939291908181526020018383808284378201915050505050509190803590602001908201803590602001908080601f016020809104026020016040519081016040528093929190818152602001838380828437820191505050505050919050506115ac565b005b341561050c57600080fd5b610541600480803573ffffffffffffffffffffffffffffffffffffffff169060200190919080359060200190919050506115b1565b005b341561054e57600080fd5b61055661176e565b6040518082815260200191505060405180910390f35b341561057757600080fd5b6105a3600480803573ffffffffffffffffffffffffffffffffffffffff16906020019091905050611774565b6040518082815260200191505060405180910390f35b34156105c457600080fd5b6105cc6117bd565b005b34156105d957600080fd5b610629600480803590602001908201803590602001908080601f016020809104026020016040519081016040528093929190818152602001838380828437820191505050505050919050506117c8565b6040518080602001828103825283818151815260200191508051906020019080838360005b8381101561066957808201518184015260208101905061064e565b50505050905090810190601f1680156106965780820380516001836020036101000a031916815260200191505b509250505060405180910390f35b34156106af57600080fd5b6106db600480803573ffffffffffffffffffffffffffffffffffffffff16906020019091905050611a76565b60405180806020018060200180602001848103845287818151815260200191508051906020019080838360005b83811015610723578082015181840152602081019050610708565b50505050905090810190601f1680156107505780820380516001836020036101000a031916815260200191505b50848103835286818151815260200191508051906020019080838360005b8381101561078957808201518184015260208101905061076e565b50505050905090810190601f1680156107b65780820380516001836020036101000a031916815260200191505b50848103825285818151815260200191508051906020019080838360005b838110156107ef5780820151818401526020810190506107d4565b50505050905090810190601f16801561081c5780820380516001836020036101000a031916815260200191505b50965050505050505060405180910390f35b341561083957600080fd5b610889600480803590602001908201803590602001908080601f01602080910402602001604051908101604052809392919081815260200183838082843782019150505050505091905050611cef565b6040518080602001828103825283818151815260200191508051906020019080838360005b838110156108c95780820151818401526020810190506108ae565b50505050905090810190601f1680156108f65780820380516001836020036101000a031916815260200191505b509250505060405180910390f35b341561090f57600080fd5b61094760048080357effffffffffffffffffffffffffffffffffffffffffffffffffffffffffffff1916906020019091905050611db0565b60405180827effffffffffffffffffffffffffffffffffffffffffffffffffffffffffffff19167effffffffffffffffffffffffffffffffffffffffffffffffffffffffffffff1916815260200191505060405180910390f35b34156109ac57600080fd5b6109d8600480803573ffffffffffffffffffffffffffffffffffffffff16906020019091905050611ea0565b6040518082815260200191505060405180910390f35b34156109f957600080fd5b610a01611ee9565b6040518080602001828103825283818151815260200191508051906020019080838360005b83811015610a41578082015181840152602081019050610a26565b50505050905090810190601f168015610a6e5780820380516001836020036101000a031916815260200191505b509250505060405180910390f35b3415610a8757600080fd5b610a8f611f87565b005b3415610a9c57600080fd5b610b72600480803590602001908201803590602001908080601f0160208091040260200160405190810160405280939291908181526020018383808284378201915050505050509190803590602001908201803590602001908080601f0160208091040260200160405190810160405280939291908181526020018383808284378201915050505050509190803590602001908201803590602001908080601f01602080910402602001604051908101604052809392919081815260200183838082843782019150505050505091905050612320565b005b3415610b7f57600080fd5b610bab600480803573ffffffffffffffffffffffffffffffffffffffff169060200190919050506123da565b6040518082815260200191505060405180910390f35b3415610bcc57600080fd5b610bf8600480803573ffffffffffffffffffffffffffffffffffffffff16906020019091905050612423565b604051808215151515815260200191505060405180910390f35b610c3e600480803573ffffffffffffffffffffffffffffffffffffffff16906020019091905050612479565b005b3415610c4b57600080fd5b610c616004808035906020019091905050612781565b005b3415610c6e57600080fd5b610c8f6004808035906020019091908035151590602001909190505061286a565b005b3415610c9c57600080fd5b610ca4612952565b6040518080602001828103825283818151815260200191508051906020019080838360005b83811015610ce4578082015181840152602081019050610cc9565b50505050905090810190601f168015610d115780820380516001836020036101000a031916815260200191505b509250505060405180910390f35b3415610d2a57600080fd5b610d56600480803573ffffffffffffffffffffffffffffffffffffffff169060200190919050506129f0565b6040518082815260200191505060405180910390f35b600560003373ffffffffffffffffffffffffffffffffffffffff1673ffffffffffffffffffffffffffffffffffffffff16815260200190815260200160002060009054906101000a900460ff161515610dc457600080fd5b80600b6000600c54815260200190815260200160002060000160006101000a81548173ffffffffffffffffffffffffffffffffffffffff021916908373ffffffffffffffffffffffffffffffffffffffff16021790555042600b6000600c548152602001908152602001600020600101819055506000600b6000600c548152602001908152602001600020600201819055506000600b6000600c54815260200190815260200160002060030181905550600c6000815480929190600101919050555050565b60118054600181600116156101000203166002900480601f016020809104026020016040519081016040528092919081815260200182805460018160011615610100020316600290048015610f1f5780601f10610ef457610100808354040283529160200191610f1f565b820191906000526020600020905b815481529060010190602001808311610f0257829003601f168201915b505050505081565b6000610f31612a39565b73ffffffffffffffffffffffffffffffffffffffff163373ffffffffffffffffffffffffffffffffffffffff16141515610f6a57600080fd5b610f7382612d28565b6014819055506000601454111561108f5760106000846000191660001916815260200190815260200160002060009054906101000a900473ffffffffffffffffffffffffffffffffffffffff1690506001600560008373ffffffffffffffffffffffffffffffffffffffff1673ffffffffffffffffffffffffffffffffffffffff16815260200190815260200160002060006101000a81548160ff0219169083151502179055507fb4dcb6dd550f27b5917ebf674899ea7046ff91790c6f9f01431617ad39819db281604051808273ffffffffffffffffffffffffffffffffffffffff1673ffffffffffffffffffffffffffffffffffffffff16815260200191505060405180910390a16001600d600082825401925050819055505b505050565b61109c614489565b6110a461449d565b6000600a6040518059106110b55750595b9080825280601f01601f191660200182016040525091507f30000000000000000000000000000000000000000000000000000000000000008260008151811015156110fc57fe5b9060200101907effffffffffffffffffffffffffffffffffffffffffffffffffffffffffffff1916908160001a9053507f780000000000000000000000000000000000000000000000000000000000000082600181518110151561115c57fe5b9060200101907effffffffffffffffffffffffffffffffffffffffffffffffffffffffffffff1916908160001a905350600090505b600481101561130357611205601085836004811015156111ad57fe5b1a7f0100000000000000000000000000000000000000000000000000000000000000027f0100000000000000000000000000000000000000000000000000000000000000900460ff168115156111ff57fe5b04612d3c565b826002836002020181518110151561121957fe5b9060200101907effffffffffffffffffffffffffffffffffffffffffffffffffffffffffffff1916908160001a9053506112b46010858360048110151561125c57fe5b1a7f0100000000000000000000000000000000000000000000000000000000000000027f0100000000000000000000000000000000000000000000000000000000000000900460ff168115156112ae57fe5b06612d3c565b82600383600202018151811015156112c857fe5b9060200101907effffffffffffffffffffffffffffffffffffffffffffffffffffffffffffff1916908160001a905350806001019050611191565b8192505050919050565b611315614489565b61131d61449d565b60008060008060286040518059106113325750595b9080825280601f01601f19166020018201604052509450600093505b6014841015611511578360130360080260020a8773ffffffffffffffffffffffffffffffffffffffff1681151561138157fe5b047f01000000000000000000000000000000000000000000000000000000000000000292506010837f0100000000000000000000000000000000000000000000000000000000000000900460ff168115156113d857fe5b047f0100000000000000000000000000000000000000000000000000000000000000029150817f01000000000000000000000000000000000000000000000000000000000000009004601002837f01000000000000000000000000000000000000000000000000000000000000009004037f010000000000000000000000000000000000000000000000000000000000000002905061147682611db0565b858560020281518110151561148757fe5b9060200101907effffffffffffffffffffffffffffffffffffffffffffffffffffffffffffff1916908160001a9053506114c081611db0565b85600186600202018151811015156114d457fe5b9060200101907effffffffffffffffffffffffffffffffffffffffffffffffffffffffffffff1916908160001a905350838060010194505061134e565b8495505050505050919050565b6115936040805190810160405280600181526020017f2200000000000000000000000000000000000000000000000000000000000000815250826040805190810160405280600181526020017f2200000000000000000000000000000000000000000000000000000000000000815250612e63565b601190805190602001906115a89291906144b1565b5050565b505050565b8173ffffffffffffffffffffffffffffffffffffffff16600f60003373ffffffffffffffffffffffffffffffffffffffff1673ffffffffffffffffffffffffffffffffffffffff16815260200190815260200160002060009054906101000a900473ffffffffffffffffffffffffffffffffffffffff1673ffffffffffffffffffffffffffffffffffffffff1614801561164c575060058111155b151561165757600080fd5b6001600660008473ffffffffffffffffffffffffffffffffffffffff1673ffffffffffffffffffffffffffffffffffffffff168152602001908152602001600020540181600660008573ffffffffffffffffffffffffffffffffffffffff1673ffffffffffffffffffffffffffffffffffffffff16815260200190815260200160002054600760008673ffffffffffffffffffffffffffffffffffffffff1673ffffffffffffffffffffffffffffffffffffffff16815260200190815260200160002054020181151561172657fe5b04600760008473ffffffffffffffffffffffffffffffffffffffff1673ffffffffffffffffffffffffffffffffffffffff168152602001908152602001600020819055505050565b60145481565b6000601660008373ffffffffffffffffffffffffffffffffffffffff1673ffffffffffffffffffffffffffffffffffffffff168152602001908152602001600020549050919050565b6117c633612ea1565b565b6117d0614489565b6117d8614489565b6117e0614489565b6117e8614489565b61185b61181f601560009054906101000a90047c010000000000000000000000000000000000000000000000000000000002611094565b6040805190810160405280601881526020017f303030303030303030303030303030303030303030303030000000000000000081525087612e63565b9250606060405190810160405280603d81526020017f207b226a736f6e727063223a22322e30222c226964223a332c226d6574686f6481526020017f223a226574685f63616c6c222c22706172616d73223a5b7b22746f223a00000081525091506119cd8260118054600181600116156101000203166002900480601f0160208091040260200160405190810160405280929190818152602001828054600181600116156101000203166002900480156119565780601f1061192b57610100808354040283529160200191611956565b820191906000526020600020905b81548152906001019060200180831161193957829003601f168201915b50505050506040805190810160405280600981526020017f2c2264617461223a220000000000000000000000000000000000000000000000815250866040805190810160405280600d81526020017f227d2c226c6174657374225d7d00000000000000000000000000000000000000815250612fb5565b90507f241ba3bafc919fb4308284ce03a8f4867a8ec2f0401445d3cf41a468e7db4ae0816040518080602001828103825283818151815260200191508051906020019080838360005b83811015611a31578082015181840152602081019050611a16565b50505050905090810190601f168015611a5e5780820380516001836020036101000a031916815260200191505b509250505060405180910390a1809350505050919050565b611a7e614489565b611a86614489565b611a8e614489565b611a96614531565b600a60008673ffffffffffffffffffffffffffffffffffffffff1673ffffffffffffffffffffffffffffffffffffffff16815260200190815260200160002060606040519081016040529081600082018054600181600116156101000203166002900480601f016020809104026020016040519081016040528092919081815260200182805460018160011615610100020316600290048015611b7a5780601f10611b4f57610100808354040283529160200191611b7a565b820191906000526020600020905b815481529060010190602001808311611b5d57829003601f168201915b50505050508152602001600182018054600181600116156101000203166002900480601f016020809104026020016040519081016040528092919081815260200182805460018160011615610100020316600290048015611c1c5780601f10611bf157610100808354040283529160200191611c1c565b820191906000526020600020905b815481529060010190602001808311611bff57829003601f168201915b50505050508152602001600282018054600181600116156101000203166002900480601f016020809104026020016040519081016040528092919081815260200182805460018160011615610100020316600290048015611cbe5780601f10611c9357610100808354040283529160200191611cbe565b820191906000526020600020905b815481529060010190602001808311611ca157829003601f168201915b5050505050815250509050806000015181602001518260400151829250819150809050935093509350509193909250565b611cf7614489565b8160129080519060200190611d0d9291906144b1565b5060128054600181600116156101000203166002900480601f016020809104026020016040519081016040528092919081815260200182805460018160011615610100020316600290048015611da45780601f10611d7957610100808354040283529160200191611da4565b820191906000526020600020905b815481529060010190602001808311611d8757829003601f168201915b50505050509050919050565b6000600a7f010000000000000000000000000000000000000000000000000000000000000002827effffffffffffffffffffffffffffffffffffffffffffffffffffffffffffff19161015611e4f576030827f01000000000000000000000000000000000000000000000000000000000000009004017f0100000000000000000000000000000000000000000000000000000000000000029050611e9b565b6057827f01000000000000000000000000000000000000000000000000000000000000009004017f01000000000000000000000000000000000000000000000000000000000000000290505b919050565b6000600760008373ffffffffffffffffffffffffffffffffffffffff1673ffffffffffffffffffffffffffffffffffffffff168152602001908152602001600020549050919050565b60138054600181600116156101000203166002900480601f016020809104026020016040519081016040528092919081815260200182805460018160011615610100020316600290048015611f7f5780601f10611f5457610100808354040283529160200191611f7f565b820191906000526020600020905b815481529060010190602001808311611f6257829003601f168201915b505050505081565b600073ffffffffffffffffffffffffffffffffffffffff16600860009054906101000a900473ffffffffffffffffffffffffffffffffffffffff1673ffffffffffffffffffffffffffffffffffffffff1614156120245733600860006101000a81548173ffffffffffffffffffffffffffffffffffffffff021916908373ffffffffffffffffffffffffffffffffffffffff16021790555061231e565b33600f6000600860009054906101000a900473ffffffffffffffffffffffffffffffffffffffff1673ffffffffffffffffffffffffffffffffffffffff1673ffffffffffffffffffffffffffffffffffffffff16815260200190815260200160002060006101000a81548173ffffffffffffffffffffffffffffffffffffffff021916908373ffffffffffffffffffffffffffffffffffffffff160217905550600860009054906101000a900473ffffffffffffffffffffffffffffffffffffffff16600f60003373ffffffffffffffffffffffffffffffffffffffff1673ffffffffffffffffffffffffffffffffffffffff16815260200190815260200160002060006101000a81548173ffffffffffffffffffffffffffffffffffffffff021916908373ffffffffffffffffffffffffffffffffffffffff160217905550600160066000600860009054906101000a900473ffffffffffffffffffffffffffffffffffffffff1673ffffffffffffffffffffffffffffffffffffffff1673ffffffffffffffffffffffffffffffffffffffff168152602001908152602001600020600082825401925050819055506001600660003373ffffffffffffffffffffffffffffffffffffffff1673ffffffffffffffffffffffffffffffffffffffff168152602001908152602001600020600082825401925050819055507fd14ed81663bee87b643b51c1f63fc86cb3b2bba9cc237cf6db5c3d5967a26952600860009054906101000a900473ffffffffffffffffffffffffffffffffffffffff1633604051808373ffffffffffffffffffffffffffffffffffffffff1673ffffffffffffffffffffffffffffffffffffffff1681526020018273ffffffffffffffffffffffffffffffffffffffff1673ffffffffffffffffffffffffffffffffffffffff1681526020019250505060405180910390a16000600860006101000a81548173ffffffffffffffffffffffffffffffffffffffff021916908373ffffffffffffffffffffffffffffffffffffffff1602179055505b565b60606040519081016040528084815260200183815260200182815250600a60003373ffffffffffffffffffffffffffffffffffffffff1673ffffffffffffffffffffffffffffffffffffffff1681526020019081526020016000206000820151816000019080519060200190612397929190614565565b5060208201518160010190805190602001906123b4929190614565565b5060408201518160020190805190602001906123d1929190614565565b50905050505050565b6000600660008373ffffffffffffffffffffffffffffffffffffffff1673ffffffffffffffffffffffffffffffffffffffff168152602001908152602001600020549050919050565b6000600560008373ffffffffffffffffffffffffffffffffffffffff1673ffffffffffffffffffffffffffffffffffffffff16815260200190815260200160002060009054906101000a900460ff169050919050565b612481614489565b612489614489565b60003073ffffffffffffffffffffffffffffffffffffffff16316124e16040805190810160405280600381526020017f55524c00000000000000000000000000000000000000000000000000000000008152506133ed565b11156125a0577f241ba3bafc919fb4308284ce03a8f4867a8ec2f0401445d3cf41a468e7db4ae060405180806020018281038252604b8152602001807f4f7261636c697a6520717565727920776173204e4f542073656e742c20706c6581526020017f6173652061646420736f6d652045544820746f20636f76657220666f7220746881526020017f652071756572792066656500000000000000000000000000000000000000000081525060600191505060405180910390a161277b565b7f241ba3bafc919fb4308284ce03a8f4867a8ec2f0401445d3cf41a468e7db4ae06040518080602001828103825260358152602001807f4f7261636c697a65207175657279207761732073656e742c207374616e64696e81526020017f6720627920666f722074686520616e737765722e2e000000000000000000000081525060400191505060405180910390a16126378461130d565b9250612642836117c8565b915061271e6040805190810160405280600381526020017f55524c000000000000000000000000000000000000000000000000000000000081525060128054600181600116156101000203166002900480601f0160208091040260200160405190810160405280929190818152602001828054600181600116156101000203166002900480156127135780601f106126e857610100808354040283529160200191612713565b820191906000526020600020905b8154815290600101906020018083116126f657829003601f168201915b50505050508461374e565b90508360106000836000191660001916815260200190815260200160002060006101000a81548173ffffffffffffffffffffffffffffffffffffffff021916908373ffffffffffffffffffffffffffffffffffffffff1602179055505b50505050565b6127896145e5565b600b6000838152602001908152602001600020608060405190810160405290816000820160009054906101000a900473ffffffffffffffffffffffffffffffffffffffff1673ffffffffffffffffffffffffffffffffffffffff1673ffffffffffffffffffffffffffffffffffffffff16815260200160018201548152602001600282015481526020016003820154815250509050621275004201600b6000848152602001908152602001600020600101541115151561284857600080fd5b806060015181604001511115612866576128658160000151612ea1565b5b5050565b6128726145e5565b600b6000848152602001908152602001600020608060405190810160405290816000820160009054906101000a900473ffffffffffffffffffffffffffffffffffffffff1673ffffffffffffffffffffffffffffffffffffffff1673ffffffffffffffffffffffffffffffffffffffff1681526020016001820154815260200160028201548152602001600382015481525050905062127500420381602001511015151561291f57600080fd5b811561293b57600181604001818151019150818152505061294d565b60018160600181815101915081815250505b505050565b60128054600181600116156101000203166002900480601f0160208091040260200160405190810160405280929190818152602001828054600181600116156101000203166002900480156129e85780601f106129bd576101008083540402835291602001916129e8565b820191906000526020600020905b8154815290600101906020018083116129cb57829003601f168201915b505050505081565b6000601760008373ffffffffffffffffffffffffffffffffffffffff1673ffffffffffffffffffffffffffffffffffffffff168152602001908152602001600020549050919050565b6000806000809054906101000a900473ffffffffffffffffffffffffffffffffffffffff1673ffffffffffffffffffffffffffffffffffffffff161480612aa957506000612aa76000809054906101000a900473ffffffffffffffffffffffffffffffffffffffff16613cca565b145b15612aba57612ab86000613cd5565b505b6000809054906101000a900473ffffffffffffffffffffffffffffffffffffffff1673ffffffffffffffffffffffffffffffffffffffff166338cc48316040518163ffffffff167c0100000000000000000000000000000000000000000000000000000000028152600401602060405180830381600087803b1515612b3e57600080fd5b5af11515612b4b57600080fd5b5050506040518051905073ffffffffffffffffffffffffffffffffffffffff16600160009054906101000a900473ffffffffffffffffffffffffffffffffffffffff1673ffffffffffffffffffffffffffffffffffffffff16141515612c87576000809054906101000a900473ffffffffffffffffffffffffffffffffffffffff1673ffffffffffffffffffffffffffffffffffffffff166338cc48316040518163ffffffff167c0100000000000000000000000000000000000000000000000000000000028152600401602060405180830381600087803b1515612c2f57600080fd5b5af11515612c3c57600080fd5b50505060405180519050600160006101000a81548173ffffffffffffffffffffffffffffffffffffffff021916908373ffffffffffffffffffffffffffffffffffffffff1602179055505b600160009054906101000a900473ffffffffffffffffffffffffffffffffffffffff1673ffffffffffffffffffffffffffffffffffffffff1663c281d19e6040518163ffffffff167c0100000000000000000000000000000000000000000000000000000000028152600401602060405180830381600087803b1515612d0c57600080fd5b5af11515612d1957600080fd5b50505060405180519050905090565b6000612d35826000613ce6565b9050919050565b60008160ff16600011158015612d56575060098260ff1611155b15612dca57817f30000000000000000000000000000000000000000000000000000000000000007f01000000000000000000000000000000000000000000000000000000000000009004017f0100000000000000000000000000000000000000000000000000000000000000029050612e5e565b8160ff16600a11158015612de25750600f8260ff1611155b15612e5957600a827f61000000000000000000000000000000000000000000000000000000000000007f0100000000000000000000000000000000000000000000000000000000000000900401037f0100000000000000000000000000000000000000000000000000000000000000029050612e5e565b600080fd5b919050565b612e6b614489565b612e9884848460206040519081016040528060008152506020604051908101604052806000815250612fb5565b90509392505050565b6000600560008373ffffffffffffffffffffffffffffffffffffffff1673ffffffffffffffffffffffffffffffffffffffff16815260200190815260200160002060006101000a81548160ff0219169083151502179055507fa5900de09bdf6ec8ef95d12f8f27648ff0f5f03bf640bae24cf3529c07a1d3b881604051808273ffffffffffffffffffffffffffffffffffffffff1673ffffffffffffffffffffffffffffffffffffffff16815260200191505060405180910390a16001600d600082825403925050819055506001601660008373ffffffffffffffffffffffffffffffffffffffff1673ffffffffffffffffffffffffffffffffffffffff1681526020019081526020016000208190555050565b612fbd614489565b612fc561449d565b612fcd61449d565b612fd561449d565b612fdd61449d565b612fe561449d565b612fed614489565b612ff561449d565b6000808e98508d97508c96508b95508a94508451865188518a518c51010101016040518059106130225750595b9080825280601f01601f1916602001820160405250935083925060009150600090505b88518110156130f857888181518110151561305c57fe5b9060200101517f010000000000000000000000000000000000000000000000000000000000000090047f01000000000000000000000000000000000000000000000000000000000000000283838060010194508151811015156130bb57fe5b9060200101907effffffffffffffffffffffffffffffffffffffffffffffffffffffffffffff1916908160001a9053508080600101915050613045565b600090505b87518110156131b057878181518110151561311457fe5b9060200101517f010000000000000000000000000000000000000000000000000000000000000090047f010000000000000000000000000000000000000000000000000000000000000002838380600101945081518110151561317357fe5b9060200101907effffffffffffffffffffffffffffffffffffffffffffffffffffffffffffff1916908160001a90535080806001019150506130fd565b600090505b86518110156132685786818151811015156131cc57fe5b9060200101517f010000000000000000000000000000000000000000000000000000000000000090047f010000000000000000000000000000000000000000000000000000000000000002838380600101945081518110151561322b57fe5b9060200101907effffffffffffffffffffffffffffffffffffffffffffffffffffffffffffff1916908160001a90535080806001019150506131b5565b600090505b855181101561332057858181518110151561328457fe5b9060200101517f010000000000000000000000000000000000000000000000000000000000000090047f01000000000000000000000000000000000000000000000000000000000000000283838060010194508151811015156132e357fe5b9060200101907effffffffffffffffffffffffffffffffffffffffffffffffffffffffffffff1916908160001a905350808060010191505061326d565b600090505b84518110156133d857848181518110151561333c57fe5b9060200101517f010000000000000000000000000000000000000000000000000000000000000090047f010000000000000000000000000000000000000000000000000000000000000002838380600101945081518110151561339b57fe5b9060200101907effffffffffffffffffffffffffffffffffffffffffffffffffffffffffffff1916908160001a9053508080600101915050613325565b82995050505050505050505095945050505050565b6000806000809054906101000a900473ffffffffffffffffffffffffffffffffffffffff1673ffffffffffffffffffffffffffffffffffffffff16148061345d5750600061345b6000809054906101000a900473ffffffffffffffffffffffffffffffffffffffff16613cca565b145b1561346e5761346c6000613cd5565b505b6000809054906101000a900473ffffffffffffffffffffffffffffffffffffffff1673ffffffffffffffffffffffffffffffffffffffff166338cc48316040518163ffffffff167c0100000000000000000000000000000000000000000000000000000000028152600401602060405180830381600087803b15156134f257600080fd5b5af115156134ff57600080fd5b5050506040518051905073ffffffffffffffffffffffffffffffffffffffff16600160009054906101000a900473ffffffffffffffffffffffffffffffffffffffff1673ffffffffffffffffffffffffffffffffffffffff1614151561363b576000809054906101000a900473ffffffffffffffffffffffffffffffffffffffff1673ffffffffffffffffffffffffffffffffffffffff166338cc48316040518163ffffffff167c0100000000000000000000000000000000000000000000000000000000028152600401602060405180830381600087803b15156135e357600080fd5b5af115156135f057600080fd5b50505060405180519050600160006101000a81548173ffffffffffffffffffffffffffffffffffffffff021916908373ffffffffffffffffffffffffffffffffffffffff1602179055505b600160009054906101000a900473ffffffffffffffffffffffffffffffffffffffff1673ffffffffffffffffffffffffffffffffffffffff1663524f3889836040518263ffffffff167c01000000000000000000000000000000000000000000000000000000000281526004018080602001828103825283818151815260200191508051906020019080838360005b838110156136e55780820151818401526020810190506136ca565b50505050905090810190601f1680156137125780820380516001836020036101000a031916815260200191505b5092505050602060405180830381600087803b151561373057600080fd5b5af1151561373d57600080fd5b505050604051805190509050919050565b60008060008060009054906101000a900473ffffffffffffffffffffffffffffffffffffffff1673ffffffffffffffffffffffffffffffffffffffff1614806137c0575060006137be6000809054906101000a900473ffffffffffffffffffffffffffffffffffffffff16613cca565b145b156137d1576137cf6000613cd5565b505b6000809054906101000a900473ffffffffffffffffffffffffffffffffffffffff1673ffffffffffffffffffffffffffffffffffffffff166338cc48316040518163ffffffff167c0100000000000000000000000000000000000000000000000000000000028152600401602060405180830381600087803b151561385557600080fd5b5af1151561386257600080fd5b5050506040518051905073ffffffffffffffffffffffffffffffffffffffff16600160009054906101000a900473ffffffffffffffffffffffffffffffffffffffff1673ffffffffffffffffffffffffffffffffffffffff1614151561399e576000809054906101000a900473ffffffffffffffffffffffffffffffffffffffff1673ffffffffffffffffffffffffffffffffffffffff166338cc48316040518163ffffffff167c0100000000000000000000000000000000000000000000000000000000028152600401602060405180830381600087803b151561394657600080fd5b5af1151561395357600080fd5b50505060405180519050600160006101000a81548173ffffffffffffffffffffffffffffffffffffffff021916908373ffffffffffffffffffffffffffffffffffffffff1602179055505b600160009054906101000a900473ffffffffffffffffffffffffffffffffffffffff1673ffffffffffffffffffffffffffffffffffffffff1663524f3889866040518263ffffffff167c01000000000000000000000000000000000000000000000000000000000281526004018080602001828103825283818151815260200191508051906020019080838360005b83811015613a48578082015181840152602081019050613a2d565b50505050905090810190601f168015613a755780820380516001836020036101000a031916815260200191505b5092505050602060405180830381600087803b1515613a9357600080fd5b5af11515613aa057600080fd5b50505060405180519050905062030d403a02670de0b6b3a764000001811115613acf5760006001029150613cc2565b600160009054906101000a900473ffffffffffffffffffffffffffffffffffffffff1673ffffffffffffffffffffffffffffffffffffffff1663772286598260008888886040518663ffffffff167c010000000000000000000000000000000000000000000000000000000002815260040180858152602001806020018060200180602001848103845287818151815260200191508051906020019080838360005b83811015613b8c578082015181840152602081019050613b71565b50505050905090810190601f168015613bb95780820380516001836020036101000a031916815260200191505b50848103835286818151815260200191508051906020019080838360005b83811015613bf2578082015181840152602081019050613bd7565b50505050905090810190601f168015613c1f5780820380516001836020036101000a031916815260200191505b50848103825285818151815260200191508051906020019080838360005b83811015613c58578082015181840152602081019050613c3d565b50505050905090810190601f168015613c855780820380516001836020036101000a031916815260200191505b509750505050505050506020604051808303818588803b1515613ca757600080fd5b5af11515613cb457600080fd5b505050506040518051905091505b509392505050565b6000813b9050919050565b6000613cdf613fe0565b9050919050565b6000613cf061449d565b60008060008693506000925060009150600090505b8351811015613fc15760307f0100000000000000000000000000000000000000000000000000000000000000028482815181101515613d4057fe5b9060200101517f010000000000000000000000000000000000000000000000000000000000000090047f0100000000000000000000000000000000000000000000000000000000000000027effffffffffffffffffffffffffffffffffffffffffffffffffffffffffffff191610158015613e58575060397f0100000000000000000000000000000000000000000000000000000000000000028482815181101515613de857fe5b9060200101517f010000000000000000000000000000000000000000000000000000000000000090047f0100000000000000000000000000000000000000000000000000000000000000027effffffffffffffffffffffffffffffffffffffffffffffffffffffffffffff191611155b15613f09578115613e7b576000861415613e7157613fc1565b8580600190039650505b600a8302925060308482815181101515613e9157fe5b9060200101517f010000000000000000000000000000000000000000000000000000000000000090047f0100000000000000000000000000000000000000000000000000000000000000027f010000000000000000000000000000000000000000000000000000000000000090040383019250613fb4565b602e7f0100000000000000000000000000000000000000000000000000000000000000028482815181101515613f3b57fe5b9060200101517f010000000000000000000000000000000000000000000000000000000000000090047f0100000000000000000000000000000000000000000000000000000000000000027effffffffffffffffffffffffffffffffffffffffffffffffffffffffffffff19161415613fb357600191505b5b8080600101915050613d05565b6000861115613fd35785600a0a830292505b8294505050505092915050565b600080614000731d3b2638a7cc9f2cb3d298a3da7a90b67e5506ed613cca565b11156140a157731d3b2638a7cc9f2cb3d298a3da7a90b67e5506ed6000806101000a81548173ffffffffffffffffffffffffffffffffffffffff021916908373ffffffffffffffffffffffffffffffffffffffff1602179055506140986040805190810160405280600b81526020017f6574685f6d61696e6e657400000000000000000000000000000000000000000081525061446f565b6001905061446c565b60006140c073c03a2615d5efaf5f49f60b7bb6583eaec212fdf1613cca565b11156141615773c03a2615d5efaf5f49f60b7bb6583eaec212fdf16000806101000a81548173ffffffffffffffffffffffffffffffffffffffff021916908373ffffffffffffffffffffffffffffffffffffffff1602179055506141586040805190810160405280600c81526020017f6574685f726f707374656e33000000000000000000000000000000000000000081525061446f565b6001905061446c565b600061418073b7a07bcf2ba2f2703b24c0691b5278999c59ac7e613cca565b11156142215773b7a07bcf2ba2f2703b24c0691b5278999c59ac7e6000806101000a81548173ffffffffffffffffffffffffffffffffffffffff021916908373ffffffffffffffffffffffffffffffffffffffff1602179055506142186040805190810160405280600981526020017f6574685f6b6f76616e000000000000000000000000000000000000000000000081525061446f565b6001905061446c565b600061424073146500cfd35b22e4a392fe0adc06de1a1368ed48613cca565b11156142e15773146500cfd35b22e4a392fe0adc06de1a1368ed486000806101000a81548173ffffffffffffffffffffffffffffffffffffffff021916908373ffffffffffffffffffffffffffffffffffffffff1602179055506142d86040805190810160405280600b81526020017f6574685f72696e6b65627900000000000000000000000000000000000000000081525061446f565b6001905061446c565b6000614300736f485c8bf6fc43ea212e93bbf8ce046c7f1cb475613cca565b111561436357736f485c8bf6fc43ea212e93bbf8ce046c7f1cb4756000806101000a81548173ffffffffffffffffffffffffffffffffffffffff021916908373ffffffffffffffffffffffffffffffffffffffff1602179055506001905061446c565b60006143827320e12a1f859b3feae5fb2a0a32c18f5a65555bbf613cca565b11156143e5577320e12a1f859b3feae5fb2a0a32c18f5a65555bbf6000806101000a81548173ffffffffffffffffffffffffffffffffffffffff021916908373ffffffffffffffffffffffffffffffffffffffff1602179055506001905061446c565b60006144047351efaf4c8b3c9afbd5ab9f4bbc82784ab6ef8faa613cca565b1115614467577351efaf4c8b3c9afbd5ab9f4bbc82784ab6ef8faa6000806101000a81548173ffffffffffffffffffffffffffffffffffffffff021916908373ffffffffffffffffffffffffffffffffffffffff1602179055506001905061446c565b600090505b90565b80600290805190602001906144859291906144b1565b5050565b602060405190810160405280600081525090565b602060405190810160405280600081525090565b828054600181600116156101000203166002900490600052602060002090601f016020900481019282601f106144f257805160ff1916838001178555614520565b82800160010185558215614520579182015b8281111561451f578251825591602001919060010190614504565b5b50905061452d9190614624565b5090565b606060405190810160405280614545614649565b8152602001614552614649565b815260200161455f614649565b81525090565b828054600181600116156101000203166002900490600052602060002090601f016020900481019282601f106145a657805160ff19168380011785556145d4565b828001600101855582156145d4579182015b828111156145d35782518255916020019190600101906145b8565b5b5090506145e19190614624565b5090565b608060405190810160405280600073ffffffffffffffffffffffffffffffffffffffff1681526020016000815260200160008152602001600081525090565b61464691905b8082111561464257600081600090555060010161462a565b5090565b90565b6020604051908101604052806000815250905600a165627a7a72305820eb278c4d79399699a8730e09306f1c00c9f78f11880ce4696afef187b91129600029",
  "source": "\r\npragma solidity ^0.4.21;\r\n//Working\r\n// {\"jsonrpc\":\"2.0\",\"id\":3,\"method\":\"eth_call\",\"params\":[{\"to\":\"0x8276c4012116588547da5ce1e936fee6d2a99350\",\"data\":\"0xa230c524000000000000000000000000931b582d4573284193cbfbe5e76bd41405961be8\"},\"latest\"]}\r\n\r\nimport \"./Oraclize/Oraclize_API.sol\";\r\nimport \"./libraries/SafeMath.sol\";\r\n\r\ncontract BookClub is usingOraclize{\r\n\r\n    using SafeMath for uint256;\r\n\r\n  mapping(address => bool) members;\r\n  mapping(address => uint) reputation;\r\n  mapping(address => uint) rating;\r\n  address nextInLine;\r\n  mapping(uint => Details) matches;\r\n  struct Details{\r\n    address maker;\r\n    address taker;\r\n    uint matchId;\r\n  }\r\n\r\n    struct UserDetails{\r\n    string email;\r\n    string preferences;\r\n    string booksAvailable;\r\n  }\r\n\r\n  mapping(address => UserDetails) userInfo;\r\n  struct VoteDetails{\r\n    address traitor;\r\n    uint start;\r\n    uint yays;\r\n    uint nays;\r\n  }\r\n\r\n\r\n\r\n\r\n  mapping(uint => VoteDetails) votes;\r\n  uint vote_nonce;\r\n  uint membersCount;\r\n  uint stake;\r\n  mapping(address => address) matched;\r\n  mapping (bytes32 => address) query;\r\n  \r\n  //Bridge Functionality\r\n\r\n  string public partnerBridge; //address of bridge contract on other chain\r\n  string public api;\r\n  string public parameters;\r\n  uint public lastValue;\r\n  bytes4 private method_data;\r\n  mapping(address => uint) departingBalance;\r\n\r\n  event Print(string _issue);\r\n  event Matched(address,address);\r\n  event NewMember(address _newbie);\r\n  event MemberLeaving(address);\r\n\r\n\r\n  function BookClub() public{\r\n    vote_nonce = 0;\r\n    method_data = this.isMember.selector;\r\n    setAPI(\"json(https://ropsten.infura.io/).result\");\r\n  }\r\n  \r\n\r\n\r\n  function requestNewBook() public {\r\n    if(nextInLine == address(0)){\r\n      nextInLine = msg.sender;\r\n    }\r\n    else{\r\n      matched[nextInLine] = msg.sender;\r\n      matched[msg.sender] = nextInLine;\r\n      reputation[nextInLine] += 1;\r\n      reputation[msg.sender] += 1;\r\n      emit Matched(nextInLine,msg.sender);\r\n      nextInLine = address(0);\r\n    }\r\n  }\r\n\r\n  /*rate the user you were matched with*/\r\n  function rateUser(address _user, uint _rating) public {\r\n    require(matched[msg.sender] == _user && _rating <= 5);\r\n    rating[_user] = (rating[_user]*reputation[_user] + _rating) / (reputation[_user] + 1);\r\n  }\r\n  \r\n  function setUserInfo(string _email,string _pref, string _books) public {\r\n    userInfo[msg.sender] = UserDetails({\r\n      email:_email,\r\n      preferences:_pref,\r\n      booksAvailable:_books\r\n      });\r\n  }\r\n\r\n  function getUserInfo(address _member) public constant returns(string,string,string){\r\n    UserDetails memory _user = userInfo[_member];\r\n    return(_user.email,_user.preferences,_user.booksAvailable);\r\n  }\r\n\r\n  function isMember(address _user) public constant returns(bool){\r\n    return members[_user];\r\n  }\r\n\r\n  function getRating(address _user) public constant returns(uint){\r\n    return rating[_user];\r\n    }\r\n  function getReputation(address _user) public constant returns(uint){\r\n    return reputation[_user];\r\n    }\r\n\r\n\r\n  /*can vote to kick someone out*/\r\n  function initiateVote(address _traitor) public {\r\n    require(members[msg.sender]);\r\n    votes[vote_nonce].traitor = _traitor;\r\n    votes[vote_nonce].start = now;\r\n    votes[vote_nonce].yays = 0;\r\n    votes[vote_nonce].nays = 0;\r\n    vote_nonce++;\r\n  }\r\n  function settleVote(uint _id) public {\r\n    VoteDetails memory _vote = votes[_id];\r\n    require(votes[_id].start <= now + 86400*14);\r\n    if(_vote.yays > _vote.nays){\r\n      removeMember(_vote.traitor);\r\n    }\r\n  }\r\n\r\n  function vote(uint _id,bool _true_for_yay) public {\r\n    VoteDetails memory _vote = votes[_id];\r\n    require(_vote.start >= now - 86400*14);\r\n    if(_true_for_yay){\r\n      _vote.yays += 1;\r\n    }\r\n    else{\r\n      _vote.nays += 1;\r\n    }\r\n  }\r\n\r\n\r\n  //How do we put in a timelock or not let anyone just leave?\r\n  function leaveBookClub() public {\r\n    removeMember(msg.sender);\r\n  }\r\n\r\n  function removeMember(address _traitor) internal{\r\n    members[_traitor] = false;\r\n    emit MemberLeaving(_traitor);\r\n    membersCount -= 1;\r\n    departingBalance[_traitor] = 1;\r\n  }\r\n\r\n//Need to change callback to accept bool as result\r\n    function __callback(bytes32 myId, string result) public {\r\n        require(msg.sender == oraclize_cbAddress());\r\n        lastValue = parseInt(result);\r\n        if(lastValue > 0){\r\n          address _user = query[myId];\r\n          members[_user] = true;\r\n          emit NewMember(_user);\r\n          membersCount += 1;\r\n        }\r\n    }\r\n\r\n\r\n    function checkMain(address _user)public payable {\r\n        if (oraclize_getPrice(\"URL\") > address(this).balance) {\r\n            emit Print(\"Oraclize query was NOT sent, please add some ETH to cover for the query fee\");\r\n        } else {\r\n            emit Print(\"Oraclize query was sent, standing by for the answer..\");\r\n            string memory _n_user = toAsciiString(_user);\r\n            string memory _params = createQuery_value(_n_user);\r\n             bytes32 queryId = oraclize_query(\"URL\",api,_params);\r\n             query[queryId] = _user;\r\n        }\r\n      }\r\n\r\n    function createQuery_value(string _member_address) public constant returns(string){\r\n      string memory _code = strConcat(fromCode(method_data),\"000000000000000000000000\",_member_address);\r\n      string memory _part = ' {\"jsonrpc\":\"2.0\",\"id\":3,\"method\":\"eth_call\",\"params\":[{\"to\":';\r\n      string memory _params2 = strConcat(_part,partnerBridge,',\"data\":\"',_code,'\"},\"latest\"]}');\r\n      emit Print(_params2);\r\n      return _params2;\r\n    }\r\n\r\n\r\n  function setPartnerBridge(string _connected) public{\r\n    partnerBridge =  strConcat('\"',_connected,'\"');\r\n  }\r\n  \r\n  function setAPI(string _api) public returns(string){\r\n      api = _api; \r\n      return api;  //\r\n  }\r\n\r\n  function departingMember(address _former) public returns(uint){\r\n    return departingBalance[_former];\r\n  }\r\n\r\n  mapping (address => uint) deposited_balances;\r\n  function getDeposit(address _user) public returns(uint){\r\n    return deposited_balances[_user];\r\n  }\r\n\r\n    function fromCode(bytes4 code) public view returns (string) {                                                                                    \r\n    bytes memory result = new bytes(10);                                                                                                         \r\n    result[0] = byte('0');\r\n    result[1] = byte('x');\r\n    for (uint i=0; i<4; ++i) {\r\n        result[2*i+2] = toHexDigit(uint8(code[i])/16);\r\n        result[2*i+3] = toHexDigit(uint8(code[i])%16);\r\n    }\r\n    return string(result);\r\n}\r\n\r\n    function toHexDigit(uint8 d) pure internal returns (byte) {                                                                                      \r\n    if (0 <= d && d <= 9) {                                                                                                                      \r\n        return byte(uint8(byte('0')) + d);                                                                                                       \r\n    } else if (10 <= uint8(d) && uint8(d) <= 15) {                                                                                               \r\n        return byte(uint8(byte('a')) + d - 10);                                                                                                  \r\n    }                                                                                                                                            \r\n    revert();                                                                                                                                    \r\n}                                                                                                                                                \r\n\r\nfunction toAsciiString(address x) returns (string) {\r\n    bytes memory s = new bytes(40);\r\n    for (uint i = 0; i < 20; i++) {\r\n        byte b = byte(uint8(uint(x) / (2**(8*(19 - i)))));\r\n        byte hi = byte(uint8(b) / 16);\r\n        byte lo = byte(uint8(b) - 16 * uint8(hi));\r\n        s[2*i] = char(hi);\r\n        s[2*i+1] = char(lo);            \r\n    }\r\n    return string(s);\r\n}\r\nfunction char(byte b) returns (byte c) {\r\n    if (b < 10) return byte(uint8(b) + 0x30);\r\n    else return byte(uint8(b) + 0x57);\r\n}\r\n}\r\n",
  "sourcePath": "C:\\Nick\\hackital\\ethereumBookClub\\contracts\\BookClub.sol",
  "compiler": {
    "name": "solc",
    "version": "0.4.21+commit.dfe3193c.Emscripten.clang"
  },
  "schemaVersion": "2.0.0",
  "updatedAt": "2018-04-29T01:35:46.793Z"
}