{
  "contractName": "BookClub",
  "abi": [
    {
      "constant": true,
      "inputs": [],
      "name": "partnerBridge",
      "outputs": [
        {
          "name": "",
          "type": "string"
        }
      ],
      "payable": false,
      "stateMutability": "view",
      "type": "function"
    },
    {
      "constant": true,
      "inputs": [],
      "name": "lastValue",
      "outputs": [
        {
          "name": "",
          "type": "uint256"
        }
      ],
      "payable": false,
      "stateMutability": "view",
      "type": "function"
    },
    {
      "constant": true,
      "inputs": [],
      "name": "parameters",
      "outputs": [
        {
          "name": "",
          "type": "string"
        }
      ],
      "payable": false,
      "stateMutability": "view",
      "type": "function"
    },
    {
      "constant": true,
      "inputs": [],
      "name": "api",
      "outputs": [
        {
          "name": "",
          "type": "string"
        }
      ],
      "payable": false,
      "stateMutability": "view",
      "type": "function"
    },
    {
      "inputs": [],
      "payable": false,
      "stateMutability": "nonpayable",
      "type": "constructor"
    },
    {
      "anonymous": false,
      "inputs": [
        {
          "indexed": false,
          "name": "_issue",
          "type": "string"
        }
      ],
      "name": "Print",
      "type": "event"
    },
    {
      "anonymous": false,
      "inputs": [
        {
          "indexed": false,
          "name": "",
          "type": "address"
        },
        {
          "indexed": false,
          "name": "",
          "type": "address"
        }
      ],
      "name": "Matched",
      "type": "event"
    },
    {
      "anonymous": false,
      "inputs": [
        {
          "indexed": false,
          "name": "_newbie",
          "type": "address"
        }
      ],
      "name": "NewMember",
      "type": "event"
    },
    {
      "anonymous": false,
      "inputs": [
        {
          "indexed": false,
          "name": "",
          "type": "address"
        }
      ],
      "name": "MemberLeaving",
      "type": "event"
    },
    {
      "constant": false,
      "inputs": [],
      "name": "requestNewBook",
      "outputs": [],
      "payable": false,
      "stateMutability": "nonpayable",
      "type": "function"
    },
    {
      "constant": false,
      "inputs": [
        {
          "name": "_user",
          "type": "address"
        },
        {
          "name": "_rating",
          "type": "uint256"
        }
      ],
      "name": "rateUser",
      "outputs": [],
      "payable": false,
      "stateMutability": "nonpayable",
      "type": "function"
    },
    {
      "constant": true,
      "inputs": [
        {
          "name": "_user",
          "type": "address"
        }
      ],
      "name": "isMember",
      "outputs": [
        {
          "name": "",
          "type": "bool"
        }
      ],
      "payable": false,
      "stateMutability": "view",
      "type": "function"
    },
    {
      "constant": true,
      "inputs": [
        {
          "name": "_user",
          "type": "address"
        }
      ],
      "name": "getRating",
      "outputs": [
        {
          "name": "",
          "type": "uint256"
        }
      ],
      "payable": false,
      "stateMutability": "view",
      "type": "function"
    },
    {
      "constant": true,
      "inputs": [
        {
          "name": "_user",
          "type": "address"
        }
      ],
      "name": "getReputation",
      "outputs": [
        {
          "name": "",
          "type": "uint256"
        }
      ],
      "payable": false,
      "stateMutability": "view",
      "type": "function"
    },
    {
      "constant": false,
      "inputs": [
        {
          "name": "_traitor",
          "type": "address"
        }
      ],
      "name": "initiateVote",
      "outputs": [],
      "payable": false,
      "stateMutability": "nonpayable",
      "type": "function"
    },
    {
      "constant": false,
      "inputs": [
        {
          "name": "_id",
          "type": "uint256"
        }
      ],
      "name": "settleVote",
      "outputs": [],
      "payable": false,
      "stateMutability": "nonpayable",
      "type": "function"
    },
    {
      "constant": false,
      "inputs": [
        {
          "name": "_id",
          "type": "uint256"
        },
        {
          "name": "_true_for_yay",
          "type": "bool"
        }
      ],
      "name": "vote",
      "outputs": [],
      "payable": false,
      "stateMutability": "nonpayable",
      "type": "function"
    },
    {
      "constant": false,
      "inputs": [],
      "name": "leaveBookClub",
      "outputs": [],
      "payable": false,
      "stateMutability": "nonpayable",
      "type": "function"
    },
    {
      "constant": false,
      "inputs": [
        {
          "name": "myId",
          "type": "bytes32"
        },
        {
          "name": "result",
          "type": "string"
        }
      ],
      "name": "__callback",
      "outputs": [],
      "payable": false,
      "stateMutability": "nonpayable",
      "type": "function"
    },
    {
      "constant": false,
      "inputs": [
        {
          "name": "myid",
          "type": "bytes32"
        },
        {
          "name": "result",
          "type": "string"
        },
        {
          "name": "proof",
          "type": "bytes"
        }
      ],
      "name": "__callback",
      "outputs": [],
      "payable": false,
      "stateMutability": "nonpayable",
      "type": "function"
    },
    {
      "constant": false,
      "inputs": [
        {
          "name": "_user",
          "type": "address"
        }
      ],
      "name": "checkMain",
      "outputs": [],
      "payable": true,
      "stateMutability": "payable",
      "type": "function"
    },
    {
      "constant": true,
      "inputs": [
        {
          "name": "_member_address",
          "type": "string"
        }
      ],
      "name": "createQuery_value",
      "outputs": [
        {
          "name": "",
          "type": "string"
        }
      ],
      "payable": false,
      "stateMutability": "view",
      "type": "function"
    },
    {
      "constant": false,
      "inputs": [
        {
          "name": "_connected",
          "type": "string"
        }
      ],
      "name": "setPartnerBridge",
      "outputs": [],
      "payable": false,
      "stateMutability": "nonpayable",
      "type": "function"
    },
    {
      "constant": false,
      "inputs": [
        {
          "name": "_api",
          "type": "string"
        }
      ],
      "name": "setAPI",
      "outputs": [
        {
          "name": "",
          "type": "string"
        }
      ],
      "payable": false,
      "stateMutability": "nonpayable",
      "type": "function"
    },
    {
      "constant": false,
      "inputs": [
        {
          "name": "_former",
          "type": "address"
        }
      ],
      "name": "departingMember",
      "outputs": [
        {
          "name": "",
          "type": "uint256"
        }
      ],
      "payable": false,
      "stateMutability": "nonpayable",
      "type": "function"
    },
    {
      "constant": false,
      "inputs": [
        {
          "name": "_user",
          "type": "address"
        }
      ],
      "name": "getDeposit",
      "outputs": [
        {
          "name": "",
          "type": "uint256"
        }
      ],
      "payable": false,
      "stateMutability": "nonpayable",
      "type": "function"
    },
    {
      "constant": true,
      "inputs": [
        {
          "name": "code",
          "type": "bytes4"
        }
      ],
      "name": "fromCode",
      "outputs": [
        {
          "name": "",
          "type": "string"
        }
      ],
      "payable": false,
      "stateMutability": "view",
      "type": "function"
    },
    {
      "constant": false,
      "inputs": [
        {
          "name": "x",
          "type": "address"
        }
      ],
      "name": "toAsciiString",
      "outputs": [
        {
          "name": "",
          "type": "string"
        }
      ],
      "payable": false,
      "stateMutability": "nonpayable",
      "type": "function"
    },
    {
      "constant": false,
      "inputs": [
        {
          "name": "b",
          "type": "bytes1"
        }
      ],
      "name": "char",
      "outputs": [
        {
          "name": "c",
          "type": "bytes1"
        }
      ],
      "payable": false,
      "stateMutability": "nonpayable",
      "type": "function"
    }
  ],
  "bytecode": "0x606060405234156200001057600080fd5b6000600b8190555063e1254fba7c010000000000000000000000000000000000000000000000000000000002601460006101000a81548163ffffffff02191690837c010000000000000000000000000000000000000000000000000000000090040217905550620000f1606060405190810160405280602781526020017f6a736f6e2868747470733a2f2f726f707374656e2e696e667572612e696f2f2981526020017f2e726573756c7400000000000000000000000000000000000000000000000000815250620000f86401000000000262001749176401000000009004565b5062000284565b62000102620001c1565b81601190805190602001906200011a929190620001d5565b5060118054600181600116156101000203166002900480601f016020809104026020016040519081016040528092919081815260200182805460018160011615610100020316600290048015620001b55780601f106200018957610100808354040283529160200191620001b5565b820191906000526020600020905b8154815290600101906020018083116200019757829003601f168201915b50505050509050919050565b602060405190810160405280600081525090565b828054600181600116156101000203166002900490600052602060002090601f016020900481019282601f106200021857805160ff191683800117855562000249565b8280016001018555821562000249579182015b82811115620002485782518255916020019190600101906200022b565b5b5090506200025891906200025c565b5090565b6200028191905b808211156200027d57600081600090555060010162000263565b5090565b90565b613f7080620002946000396000f30060606040526004361061013e576000357c0100000000000000000000000000000000000000000000000000000000900463ffffffff1680631a1a2ad91461014357806322c22a201461017c57806327dc297e1461020a5780632c0ad2ad146102745780632c6e75981461032f5780633059a2b4146103e157806338bbfa501461043e5780633d4effc4146104eb578063431838341461052d5780634fb9eda9146105565780635f66c955146105a357806362fafc91146105b8578063696cf2a01461068e57806369f9ad2f1461076457806380fc9c0e14610801578063890357301461084e578063898e61e3146108dc5780639c89a0e2146108f1578063a230c5241461093e578063aa5e219e1461098f578063b76821c5146109bd578063c9d27afe146109e0578063d2c18e0b14610a0e578063e1254fba14610a9c575b600080fd5b341561014e57600080fd5b61017a600480803573ffffffffffffffffffffffffffffffffffffffff16906020019091905050610ae9565b005b341561018757600080fd5b61018f610c06565b6040518080602001828103825283818151815260200191508051906020019080838360005b838110156101cf5780820151818401526020810190506101b4565b50505050905090810190601f1680156101fc5780820380516001836020036101000a031916815260200191505b509250505060405180910390f35b341561021557600080fd5b61027260048080356000191690602001909190803590602001908201803590602001908080601f01602080910402602001604051908101604052809392919081815260200183838082843782019150505050505091905050610ca4565b005b341561027f57600080fd5b6102b460048080357bffffffffffffffffffffffffffffffffffffffffffffffffffffffff1916906020019091905050610e11565b6040518080602001828103825283818151815260200191508051906020019080838360005b838110156102f45780820151818401526020810190506102d9565b50505050905090810190601f1680156103215780820380516001836020036101000a031916815260200191505b509250505060405180910390f35b341561033a57600080fd5b610366600480803573ffffffffffffffffffffffffffffffffffffffff1690602001909190505061108a565b6040518080602001828103825283818151815260200191508051906020019080838360005b838110156103a657808201518184015260208101905061038b565b50505050905090810190601f1680156103d35780820380516001836020036101000a031916815260200191505b509250505060405180910390f35b34156103ec57600080fd5b61043c600480803590602001908201803590602001908080601f0160208091040260200160405190810160405280939291908181526020018383808284378201915050505050509190505061129b565b005b341561044957600080fd5b6104e960048080356000191690602001909190803590602001908201803590602001908080601f0160208091040260200160405190810160405280939291908181526020018383808284378201915050505050509190803590602001908201803590602001908080601f016020809104026020016040519081016040528093929190818152602001838380828437820191505050505050919050506112b5565b005b34156104f657600080fd5b61052b600480803573ffffffffffffffffffffffffffffffffffffffff169060200190919080359060200190919050506112ba565b005b341561053857600080fd5b610540611477565b6040518082815260200191505060405180910390f35b341561056157600080fd5b61058d600480803573ffffffffffffffffffffffffffffffffffffffff1690602001909190505061147d565b6040518082815260200191505060405180910390f35b34156105ae57600080fd5b6105b66114c6565b005b34156105c357600080fd5b610613600480803590602001908201803590602001908080601f016020809104026020016040519081016040528093929190818152602001838380828437820191505050505050919050506114d1565b6040518080602001828103825283818151815260200191508051906020019080838360005b83811015610653578082015181840152602081019050610638565b50505050905090810190601f1680156106805780820380516001836020036101000a031916815260200191505b509250505060405180910390f35b341561069957600080fd5b6106e9600480803590602001908201803590602001908080601f01602080910402602001604051908101604052809392919081815260200183838082843782019150505050505091905050611749565b6040518080602001828103825283818151815260200191508051906020019080838360005b8381101561072957808201518184015260208101905061070e565b50505050905090810190601f1680156107565780820380516001836020036101000a031916815260200191505b509250505060405180910390f35b341561076f57600080fd5b6107a760048080357effffffffffffffffffffffffffffffffffffffffffffffffffffffffffffff191690602001909190505061180a565b60405180827effffffffffffffffffffffffffffffffffffffffffffffffffffffffffffff19167effffffffffffffffffffffffffffffffffffffffffffffffffffffffffffff1916815260200191505060405180910390f35b341561080c57600080fd5b610838600480803573ffffffffffffffffffffffffffffffffffffffff169060200190919050506118fa565b6040518082815260200191505060405180910390f35b341561085957600080fd5b610861611943565b6040518080602001828103825283818151815260200191508051906020019080838360005b838110156108a1578082015181840152602081019050610886565b50505050905090810190601f1680156108ce5780820380516001836020036101000a031916815260200191505b509250505060405180910390f35b34156108e757600080fd5b6108ef6119e1565b005b34156108fc57600080fd5b610928600480803573ffffffffffffffffffffffffffffffffffffffff16906020019091905050611d7a565b6040518082815260200191505060405180910390f35b341561094957600080fd5b610975600480803573ffffffffffffffffffffffffffffffffffffffff16906020019091905050611dc3565b604051808215151515815260200191505060405180910390f35b6109bb600480803573ffffffffffffffffffffffffffffffffffffffff16906020019091905050611e19565b005b34156109c857600080fd5b6109de6004808035906020019091905050612121565b005b34156109eb57600080fd5b610a0c6004808035906020019091908035151590602001909190505061220a565b005b3415610a1957600080fd5b610a216122f2565b6040518080602001828103825283818151815260200191508051906020019080838360005b83811015610a61578082015181840152602081019050610a46565b50505050905090810190601f168015610a8e5780820380516001836020036101000a031916815260200191505b509250505060405180910390f35b3415610aa757600080fd5b610ad3600480803573ffffffffffffffffffffffffffffffffffffffff16906020019091905050612390565b6040518082815260200191505060405180910390f35b600560003373ffffffffffffffffffffffffffffffffffffffff1673ffffffffffffffffffffffffffffffffffffffff16815260200190815260200160002060009054906101000a900460ff161515610b4157600080fd5b80600a6000600b54815260200190815260200160002060000160006101000a81548173ffffffffffffffffffffffffffffffffffffffff021916908373ffffffffffffffffffffffffffffffffffffffff16021790555042600a6000600b548152602001908152602001600020600101819055506000600a6000600b548152602001908152602001600020600201819055506000600a6000600b54815260200190815260200160002060030181905550600b6000815480929190600101919050555050565b60108054600181600116156101000203166002900480601f016020809104026020016040519081016040528092919081815260200182805460018160011615610100020316600290048015610c9c5780601f10610c7157610100808354040283529160200191610c9c565b820191906000526020600020905b815481529060010190602001808311610c7f57829003601f168201915b505050505081565b6000610cae6123d9565b73ffffffffffffffffffffffffffffffffffffffff163373ffffffffffffffffffffffffffffffffffffffff16141515610ce757600080fd5b610cf0826126c8565b60138190555060006013541115610e0c57600f6000846000191660001916815260200190815260200160002060009054906101000a900473ffffffffffffffffffffffffffffffffffffffff1690506001600560008373ffffffffffffffffffffffffffffffffffffffff1673ffffffffffffffffffffffffffffffffffffffff16815260200190815260200160002060006101000a81548160ff0219169083151502179055507fb4dcb6dd550f27b5917ebf674899ea7046ff91790c6f9f01431617ad39819db281604051808273ffffffffffffffffffffffffffffffffffffffff1673ffffffffffffffffffffffffffffffffffffffff16815260200191505060405180910390a16001600c600082825401925050819055505b505050565b610e19613e38565b610e21613e4c565b6000600a604051805910610e325750595b9080825280601f01601f191660200182016040525091507f3000000000000000000000000000000000000000000000000000000000000000826000815181101515610e7957fe5b9060200101907effffffffffffffffffffffffffffffffffffffffffffffffffffffffffffff1916908160001a9053507f7800000000000000000000000000000000000000000000000000000000000000826001815181101515610ed957fe5b9060200101907effffffffffffffffffffffffffffffffffffffffffffffffffffffffffffff1916908160001a905350600090505b600481101561108057610f8260108583600481101515610f2a57fe5b1a7f0100000000000000000000000000000000000000000000000000000000000000027f0100000000000000000000000000000000000000000000000000000000000000900460ff16811515610f7c57fe5b046126dc565b8260028360020201815181101515610f9657fe5b9060200101907effffffffffffffffffffffffffffffffffffffffffffffffffffffffffffff1916908160001a90535061103160108583600481101515610fd957fe5b1a7f0100000000000000000000000000000000000000000000000000000000000000027f0100000000000000000000000000000000000000000000000000000000000000900460ff1681151561102b57fe5b066126dc565b826003836002020181518110151561104557fe5b9060200101907effffffffffffffffffffffffffffffffffffffffffffffffffffffffffffff1916908160001a905350806001019050610f0e565b8192505050919050565b611092613e38565b61109a613e4c565b60008060008060286040518059106110af5750595b9080825280601f01601f19166020018201604052509450600093505b601484101561128e578360130360080260020a8773ffffffffffffffffffffffffffffffffffffffff168115156110fe57fe5b047f01000000000000000000000000000000000000000000000000000000000000000292506010837f0100000000000000000000000000000000000000000000000000000000000000900460ff1681151561115557fe5b047f0100000000000000000000000000000000000000000000000000000000000000029150817f01000000000000000000000000000000000000000000000000000000000000009004601002837f01000000000000000000000000000000000000000000000000000000000000009004037f01000000000000000000000000000000000000000000000000000000000000000290506111f38261180a565b858560020281518110151561120457fe5b9060200101907effffffffffffffffffffffffffffffffffffffffffffffffffffffffffffff1916908160001a90535061123d8161180a565b856001866002020181518110151561125157fe5b9060200101907effffffffffffffffffffffffffffffffffffffffffffffffffffffffffffff1916908160001a90535083806001019450506110cb565b8495505050505050919050565b80601090805190602001906112b1929190613e60565b5050565b505050565b8173ffffffffffffffffffffffffffffffffffffffff16600e60003373ffffffffffffffffffffffffffffffffffffffff1673ffffffffffffffffffffffffffffffffffffffff16815260200190815260200160002060009054906101000a900473ffffffffffffffffffffffffffffffffffffffff1673ffffffffffffffffffffffffffffffffffffffff16148015611355575060058111155b151561136057600080fd5b6001600660008473ffffffffffffffffffffffffffffffffffffffff1673ffffffffffffffffffffffffffffffffffffffff168152602001908152602001600020540181600660008573ffffffffffffffffffffffffffffffffffffffff1673ffffffffffffffffffffffffffffffffffffffff16815260200190815260200160002054600760008673ffffffffffffffffffffffffffffffffffffffff1673ffffffffffffffffffffffffffffffffffffffff16815260200190815260200160002054020181151561142f57fe5b04600760008473ffffffffffffffffffffffffffffffffffffffff1673ffffffffffffffffffffffffffffffffffffffff168152602001908152602001600020819055505050565b60135481565b6000601560008373ffffffffffffffffffffffffffffffffffffffff1673ffffffffffffffffffffffffffffffffffffffff168152602001908152602001600020549050919050565b6114cf33612803565b565b6114d9613e38565b6114e1613e38565b6114e9613e38565b6114f1613e38565b61152e611528601460009054906101000a90047c010000000000000000000000000000000000000000000000000000000002610e11565b86612917565b9250606060405190810160405280603d81526020017f207b226a736f6e727063223a22322e30222c226964223a332c226d6574686f6481526020017f223a226574685f63616c6c222c22706172616d73223a5b7b22746f223a00000081525091506116a08260108054600181600116156101000203166002900480601f0160208091040260200160405190810160405280929190818152602001828054600181600116156101000203166002900480156116295780601f106115fe57610100808354040283529160200191611629565b820191906000526020600020905b81548152906001019060200180831161160c57829003601f168201915b50505050506040805190810160405280600981526020017f2c2264617461223a220000000000000000000000000000000000000000000000815250866040805190810160405280600d81526020017f227d2c226c6174657374225d7d00000000000000000000000000000000000000815250612964565b90507f241ba3bafc919fb4308284ce03a8f4867a8ec2f0401445d3cf41a468e7db4ae0816040518080602001828103825283818151815260200191508051906020019080838360005b838110156117045780820151818401526020810190506116e9565b50505050905090810190601f1680156117315780820380516001836020036101000a031916815260200191505b509250505060405180910390a1809350505050919050565b611751613e38565b8160119080519060200190611767929190613e60565b5060118054600181600116156101000203166002900480601f0160208091040260200160405190810160405280929190818152602001828054600181600116156101000203166002900480156117fe5780601f106117d3576101008083540402835291602001916117fe565b820191906000526020600020905b8154815290600101906020018083116117e157829003601f168201915b50505050509050919050565b6000600a7f010000000000000000000000000000000000000000000000000000000000000002827effffffffffffffffffffffffffffffffffffffffffffffffffffffffffffff191610156118a9576030827f01000000000000000000000000000000000000000000000000000000000000009004017f01000000000000000000000000000000000000000000000000000000000000000290506118f5565b6057827f01000000000000000000000000000000000000000000000000000000000000009004017f01000000000000000000000000000000000000000000000000000000000000000290505b919050565b6000600760008373ffffffffffffffffffffffffffffffffffffffff1673ffffffffffffffffffffffffffffffffffffffff168152602001908152602001600020549050919050565b60128054600181600116156101000203166002900480601f0160208091040260200160405190810160405280929190818152602001828054600181600116156101000203166002900480156119d95780601f106119ae576101008083540402835291602001916119d9565b820191906000526020600020905b8154815290600101906020018083116119bc57829003601f168201915b505050505081565b600073ffffffffffffffffffffffffffffffffffffffff16600860009054906101000a900473ffffffffffffffffffffffffffffffffffffffff1673ffffffffffffffffffffffffffffffffffffffff161415611a7e5733600860006101000a81548173ffffffffffffffffffffffffffffffffffffffff021916908373ffffffffffffffffffffffffffffffffffffffff160217905550611d78565b33600e6000600860009054906101000a900473ffffffffffffffffffffffffffffffffffffffff1673ffffffffffffffffffffffffffffffffffffffff1673ffffffffffffffffffffffffffffffffffffffff16815260200190815260200160002060006101000a81548173ffffffffffffffffffffffffffffffffffffffff021916908373ffffffffffffffffffffffffffffffffffffffff160217905550600860009054906101000a900473ffffffffffffffffffffffffffffffffffffffff16600e60003373ffffffffffffffffffffffffffffffffffffffff1673ffffffffffffffffffffffffffffffffffffffff16815260200190815260200160002060006101000a81548173ffffffffffffffffffffffffffffffffffffffff021916908373ffffffffffffffffffffffffffffffffffffffff160217905550600160066000600860009054906101000a900473ffffffffffffffffffffffffffffffffffffffff1673ffffffffffffffffffffffffffffffffffffffff1673ffffffffffffffffffffffffffffffffffffffff168152602001908152602001600020600082825401925050819055506001600660003373ffffffffffffffffffffffffffffffffffffffff1673ffffffffffffffffffffffffffffffffffffffff168152602001908152602001600020600082825401925050819055507fd14ed81663bee87b643b51c1f63fc86cb3b2bba9cc237cf6db5c3d5967a26952600860009054906101000a900473ffffffffffffffffffffffffffffffffffffffff1633604051808373ffffffffffffffffffffffffffffffffffffffff1673ffffffffffffffffffffffffffffffffffffffff1681526020018273ffffffffffffffffffffffffffffffffffffffff1673ffffffffffffffffffffffffffffffffffffffff1681526020019250505060405180910390a16000600860006101000a81548173ffffffffffffffffffffffffffffffffffffffff021916908373ffffffffffffffffffffffffffffffffffffffff1602179055505b565b6000600660008373ffffffffffffffffffffffffffffffffffffffff1673ffffffffffffffffffffffffffffffffffffffff168152602001908152602001600020549050919050565b6000600560008373ffffffffffffffffffffffffffffffffffffffff1673ffffffffffffffffffffffffffffffffffffffff16815260200190815260200160002060009054906101000a900460ff169050919050565b611e21613e38565b611e29613e38565b60003073ffffffffffffffffffffffffffffffffffffffff1631611e816040805190810160405280600381526020017f55524c0000000000000000000000000000000000000000000000000000000000815250612d9c565b1115611f40577f241ba3bafc919fb4308284ce03a8f4867a8ec2f0401445d3cf41a468e7db4ae060405180806020018281038252604b8152602001807f4f7261636c697a6520717565727920776173204e4f542073656e742c20706c6581526020017f6173652061646420736f6d652045544820746f20636f76657220666f7220746881526020017f652071756572792066656500000000000000000000000000000000000000000081525060600191505060405180910390a161211b565b7f241ba3bafc919fb4308284ce03a8f4867a8ec2f0401445d3cf41a468e7db4ae06040518080602001828103825260358152602001807f4f7261636c697a65207175657279207761732073656e742c207374616e64696e81526020017f6720627920666f722074686520616e737765722e2e000000000000000000000081525060400191505060405180910390a1611fd78461108a565b9250611fe2836114d1565b91506120be6040805190810160405280600381526020017f55524c000000000000000000000000000000000000000000000000000000000081525060118054600181600116156101000203166002900480601f0160208091040260200160405190810160405280929190818152602001828054600181600116156101000203166002900480156120b35780601f10612088576101008083540402835291602001916120b3565b820191906000526020600020905b81548152906001019060200180831161209657829003601f168201915b5050505050846130fd565b905083600f6000836000191660001916815260200190815260200160002060006101000a81548173ffffffffffffffffffffffffffffffffffffffff021916908373ffffffffffffffffffffffffffffffffffffffff1602179055505b50505050565b612129613ee0565b600a6000838152602001908152602001600020608060405190810160405290816000820160009054906101000a900473ffffffffffffffffffffffffffffffffffffffff1673ffffffffffffffffffffffffffffffffffffffff1673ffffffffffffffffffffffffffffffffffffffff16815260200160018201548152602001600282015481526020016003820154815250509050621275004201600a600084815260200190815260200160002060010154111515156121e857600080fd5b806060015181604001511115612206576122058160000151612803565b5b5050565b612212613ee0565b600a6000848152602001908152602001600020608060405190810160405290816000820160009054906101000a900473ffffffffffffffffffffffffffffffffffffffff1673ffffffffffffffffffffffffffffffffffffffff1673ffffffffffffffffffffffffffffffffffffffff168152602001600182015481526020016002820154815260200160038201548152505090506212750042038160200151101515156122bf57600080fd5b81156122db5760018160400181815101915081815250506122ed565b60018160600181815101915081815250505b505050565b60118054600181600116156101000203166002900480601f0160208091040260200160405190810160405280929190818152602001828054600181600116156101000203166002900480156123885780601f1061235d57610100808354040283529160200191612388565b820191906000526020600020905b81548152906001019060200180831161236b57829003601f168201915b505050505081565b6000601660008373ffffffffffffffffffffffffffffffffffffffff1673ffffffffffffffffffffffffffffffffffffffff168152602001908152602001600020549050919050565b6000806000809054906101000a900473ffffffffffffffffffffffffffffffffffffffff1673ffffffffffffffffffffffffffffffffffffffff161480612449575060006124476000809054906101000a900473ffffffffffffffffffffffffffffffffffffffff16613679565b145b1561245a576124586000613684565b505b6000809054906101000a900473ffffffffffffffffffffffffffffffffffffffff1673ffffffffffffffffffffffffffffffffffffffff166338cc48316040518163ffffffff167c0100000000000000000000000000000000000000000000000000000000028152600401602060405180830381600087803b15156124de57600080fd5b5af115156124eb57600080fd5b5050506040518051905073ffffffffffffffffffffffffffffffffffffffff16600160009054906101000a900473ffffffffffffffffffffffffffffffffffffffff1673ffffffffffffffffffffffffffffffffffffffff16141515612627576000809054906101000a900473ffffffffffffffffffffffffffffffffffffffff1673ffffffffffffffffffffffffffffffffffffffff166338cc48316040518163ffffffff167c0100000000000000000000000000000000000000000000000000000000028152600401602060405180830381600087803b15156125cf57600080fd5b5af115156125dc57600080fd5b50505060405180519050600160006101000a81548173ffffffffffffffffffffffffffffffffffffffff021916908373ffffffffffffffffffffffffffffffffffffffff1602179055505b600160009054906101000a900473ffffffffffffffffffffffffffffffffffffffff1673ffffffffffffffffffffffffffffffffffffffff1663c281d19e6040518163ffffffff167c0100000000000000000000000000000000000000000000000000000000028152600401602060405180830381600087803b15156126ac57600080fd5b5af115156126b957600080fd5b50505060405180519050905090565b60006126d5826000613695565b9050919050565b60008160ff166000111580156126f6575060098260ff1611155b1561276a57817f30000000000000000000000000000000000000000000000000000000000000007f01000000000000000000000000000000000000000000000000000000000000009004017f01000000000000000000000000000000000000000000000000000000000000000290506127fe565b8160ff16600a111580156127825750600f8260ff1611155b156127f957600a827f61000000000000000000000000000000000000000000000000000000000000007f0100000000000000000000000000000000000000000000000000000000000000900401037f01000000000000000000000000000000000000000000000000000000000000000290506127fe565b600080fd5b919050565b6000600560008373ffffffffffffffffffffffffffffffffffffffff1673ffffffffffffffffffffffffffffffffffffffff16815260200190815260200160002060006101000a81548160ff0219169083151502179055507fa5900de09bdf6ec8ef95d12f8f27648ff0f5f03bf640bae24cf3529c07a1d3b881604051808273ffffffffffffffffffffffffffffffffffffffff1673ffffffffffffffffffffffffffffffffffffffff16815260200191505060405180910390a16001600c600082825403925050819055506001601560008373ffffffffffffffffffffffffffffffffffffffff1673ffffffffffffffffffffffffffffffffffffffff1681526020019081526020016000208190555050565b61291f613e38565b61295c8383602060405190810160405280600081525060206040519081016040528060008152506020604051908101604052806000815250612964565b905092915050565b61296c613e38565b612974613e4c565b61297c613e4c565b612984613e4c565b61298c613e4c565b612994613e4c565b61299c613e38565b6129a4613e4c565b6000808e98508d97508c96508b95508a94508451865188518a518c51010101016040518059106129d15750595b9080825280601f01601f1916602001820160405250935083925060009150600090505b8851811015612aa7578881815181101515612a0b57fe5b9060200101517f010000000000000000000000000000000000000000000000000000000000000090047f0100000000000000000000000000000000000000000000000000000000000000028383806001019450815181101515612a6a57fe5b9060200101907effffffffffffffffffffffffffffffffffffffffffffffffffffffffffffff1916908160001a90535080806001019150506129f4565b600090505b8751811015612b5f578781815181101515612ac357fe5b9060200101517f010000000000000000000000000000000000000000000000000000000000000090047f0100000000000000000000000000000000000000000000000000000000000000028383806001019450815181101515612b2257fe5b9060200101907effffffffffffffffffffffffffffffffffffffffffffffffffffffffffffff1916908160001a9053508080600101915050612aac565b600090505b8651811015612c17578681815181101515612b7b57fe5b9060200101517f010000000000000000000000000000000000000000000000000000000000000090047f0100000000000000000000000000000000000000000000000000000000000000028383806001019450815181101515612bda57fe5b9060200101907effffffffffffffffffffffffffffffffffffffffffffffffffffffffffffff1916908160001a9053508080600101915050612b64565b600090505b8551811015612ccf578581815181101515612c3357fe5b9060200101517f010000000000000000000000000000000000000000000000000000000000000090047f0100000000000000000000000000000000000000000000000000000000000000028383806001019450815181101515612c9257fe5b9060200101907effffffffffffffffffffffffffffffffffffffffffffffffffffffffffffff1916908160001a9053508080600101915050612c1c565b600090505b8451811015612d87578481815181101515612ceb57fe5b9060200101517f010000000000000000000000000000000000000000000000000000000000000090047f0100000000000000000000000000000000000000000000000000000000000000028383806001019450815181101515612d4a57fe5b9060200101907effffffffffffffffffffffffffffffffffffffffffffffffffffffffffffff1916908160001a9053508080600101915050612cd4565b82995050505050505050505095945050505050565b6000806000809054906101000a900473ffffffffffffffffffffffffffffffffffffffff1673ffffffffffffffffffffffffffffffffffffffff161480612e0c57506000612e0a6000809054906101000a900473ffffffffffffffffffffffffffffffffffffffff16613679565b145b15612e1d57612e1b6000613684565b505b6000809054906101000a900473ffffffffffffffffffffffffffffffffffffffff1673ffffffffffffffffffffffffffffffffffffffff166338cc48316040518163ffffffff167c0100000000000000000000000000000000000000000000000000000000028152600401602060405180830381600087803b1515612ea157600080fd5b5af11515612eae57600080fd5b5050506040518051905073ffffffffffffffffffffffffffffffffffffffff16600160009054906101000a900473ffffffffffffffffffffffffffffffffffffffff1673ffffffffffffffffffffffffffffffffffffffff16141515612fea576000809054906101000a900473ffffffffffffffffffffffffffffffffffffffff1673ffffffffffffffffffffffffffffffffffffffff166338cc48316040518163ffffffff167c0100000000000000000000000000000000000000000000000000000000028152600401602060405180830381600087803b1515612f9257600080fd5b5af11515612f9f57600080fd5b50505060405180519050600160006101000a81548173ffffffffffffffffffffffffffffffffffffffff021916908373ffffffffffffffffffffffffffffffffffffffff1602179055505b600160009054906101000a900473ffffffffffffffffffffffffffffffffffffffff1673ffffffffffffffffffffffffffffffffffffffff1663524f3889836040518263ffffffff167c01000000000000000000000000000000000000000000000000000000000281526004018080602001828103825283818151815260200191508051906020019080838360005b83811015613094578082015181840152602081019050613079565b50505050905090810190601f1680156130c15780820380516001836020036101000a031916815260200191505b5092505050602060405180830381600087803b15156130df57600080fd5b5af115156130ec57600080fd5b505050604051805190509050919050565b60008060008060009054906101000a900473ffffffffffffffffffffffffffffffffffffffff1673ffffffffffffffffffffffffffffffffffffffff16148061316f5750600061316d6000809054906101000a900473ffffffffffffffffffffffffffffffffffffffff16613679565b145b156131805761317e6000613684565b505b6000809054906101000a900473ffffffffffffffffffffffffffffffffffffffff1673ffffffffffffffffffffffffffffffffffffffff166338cc48316040518163ffffffff167c0100000000000000000000000000000000000000000000000000000000028152600401602060405180830381600087803b151561320457600080fd5b5af1151561321157600080fd5b5050506040518051905073ffffffffffffffffffffffffffffffffffffffff16600160009054906101000a900473ffffffffffffffffffffffffffffffffffffffff1673ffffffffffffffffffffffffffffffffffffffff1614151561334d576000809054906101000a900473ffffffffffffffffffffffffffffffffffffffff1673ffffffffffffffffffffffffffffffffffffffff166338cc48316040518163ffffffff167c0100000000000000000000000000000000000000000000000000000000028152600401602060405180830381600087803b15156132f557600080fd5b5af1151561330257600080fd5b50505060405180519050600160006101000a81548173ffffffffffffffffffffffffffffffffffffffff021916908373ffffffffffffffffffffffffffffffffffffffff1602179055505b600160009054906101000a900473ffffffffffffffffffffffffffffffffffffffff1673ffffffffffffffffffffffffffffffffffffffff1663524f3889866040518263ffffffff167c01000000000000000000000000000000000000000000000000000000000281526004018080602001828103825283818151815260200191508051906020019080838360005b838110156133f75780820151818401526020810190506133dc565b50505050905090810190601f1680156134245780820380516001836020036101000a031916815260200191505b5092505050602060405180830381600087803b151561344257600080fd5b5af1151561344f57600080fd5b50505060405180519050905062030d403a02670de0b6b3a76400000181111561347e5760006001029150613671565b600160009054906101000a900473ffffffffffffffffffffffffffffffffffffffff1673ffffffffffffffffffffffffffffffffffffffff1663772286598260008888886040518663ffffffff167c010000000000000000000000000000000000000000000000000000000002815260040180858152602001806020018060200180602001848103845287818151815260200191508051906020019080838360005b8381101561353b578082015181840152602081019050613520565b50505050905090810190601f1680156135685780820380516001836020036101000a031916815260200191505b50848103835286818151815260200191508051906020019080838360005b838110156135a1578082015181840152602081019050613586565b50505050905090810190601f1680156135ce5780820380516001836020036101000a031916815260200191505b50848103825285818151815260200191508051906020019080838360005b838110156136075780820151818401526020810190506135ec565b50505050905090810190601f1680156136345780820380516001836020036101000a031916815260200191505b509750505050505050506020604051808303818588803b151561365657600080fd5b5af1151561366357600080fd5b505050506040518051905091505b509392505050565b6000813b9050919050565b600061368e61398f565b9050919050565b600061369f613e4c565b60008060008693506000925060009150600090505b83518110156139705760307f01000000000000000000000000000000000000000000000000000000000000000284828151811015156136ef57fe5b9060200101517f010000000000000000000000000000000000000000000000000000000000000090047f0100000000000000000000000000000000000000000000000000000000000000027effffffffffffffffffffffffffffffffffffffffffffffffffffffffffffff191610158015613807575060397f010000000000000000000000000000000000000000000000000000000000000002848281518110151561379757fe5b9060200101517f010000000000000000000000000000000000000000000000000000000000000090047f0100000000000000000000000000000000000000000000000000000000000000027effffffffffffffffffffffffffffffffffffffffffffffffffffffffffffff191611155b156138b857811561382a57600086141561382057613970565b8580600190039650505b600a830292506030848281518110151561384057fe5b9060200101517f010000000000000000000000000000000000000000000000000000000000000090047f0100000000000000000000000000000000000000000000000000000000000000027f010000000000000000000000000000000000000000000000000000000000000090040383019250613963565b602e7f01000000000000000000000000000000000000000000000000000000000000000284828151811015156138ea57fe5b9060200101517f010000000000000000000000000000000000000000000000000000000000000090047f0100000000000000000000000000000000000000000000000000000000000000027effffffffffffffffffffffffffffffffffffffffffffffffffffffffffffff1916141561396257600191505b5b80806001019150506136b4565b60008611156139825785600a0a830292505b8294505050505092915050565b6000806139af731d3b2638a7cc9f2cb3d298a3da7a90b67e5506ed613679565b1115613a5057731d3b2638a7cc9f2cb3d298a3da7a90b67e5506ed6000806101000a81548173ffffffffffffffffffffffffffffffffffffffff021916908373ffffffffffffffffffffffffffffffffffffffff160217905550613a476040805190810160405280600b81526020017f6574685f6d61696e6e6574000000000000000000000000000000000000000000815250613e1e565b60019050613e1b565b6000613a6f73c03a2615d5efaf5f49f60b7bb6583eaec212fdf1613679565b1115613b105773c03a2615d5efaf5f49f60b7bb6583eaec212fdf16000806101000a81548173ffffffffffffffffffffffffffffffffffffffff021916908373ffffffffffffffffffffffffffffffffffffffff160217905550613b076040805190810160405280600c81526020017f6574685f726f707374656e330000000000000000000000000000000000000000815250613e1e565b60019050613e1b565b6000613b2f73b7a07bcf2ba2f2703b24c0691b5278999c59ac7e613679565b1115613bd05773b7a07bcf2ba2f2703b24c0691b5278999c59ac7e6000806101000a81548173ffffffffffffffffffffffffffffffffffffffff021916908373ffffffffffffffffffffffffffffffffffffffff160217905550613bc76040805190810160405280600981526020017f6574685f6b6f76616e0000000000000000000000000000000000000000000000815250613e1e565b60019050613e1b565b6000613bef73146500cfd35b22e4a392fe0adc06de1a1368ed48613679565b1115613c905773146500cfd35b22e4a392fe0adc06de1a1368ed486000806101000a81548173ffffffffffffffffffffffffffffffffffffffff021916908373ffffffffffffffffffffffffffffffffffffffff160217905550613c876040805190810160405280600b81526020017f6574685f72696e6b656279000000000000000000000000000000000000000000815250613e1e565b60019050613e1b565b6000613caf736f485c8bf6fc43ea212e93bbf8ce046c7f1cb475613679565b1115613d1257736f485c8bf6fc43ea212e93bbf8ce046c7f1cb4756000806101000a81548173ffffffffffffffffffffffffffffffffffffffff021916908373ffffffffffffffffffffffffffffffffffffffff16021790555060019050613e1b565b6000613d317320e12a1f859b3feae5fb2a0a32c18f5a65555bbf613679565b1115613d94577320e12a1f859b3feae5fb2a0a32c18f5a65555bbf6000806101000a81548173ffffffffffffffffffffffffffffffffffffffff021916908373ffffffffffffffffffffffffffffffffffffffff16021790555060019050613e1b565b6000613db37351efaf4c8b3c9afbd5ab9f4bbc82784ab6ef8faa613679565b1115613e16577351efaf4c8b3c9afbd5ab9f4bbc82784ab6ef8faa6000806101000a81548173ffffffffffffffffffffffffffffffffffffffff021916908373ffffffffffffffffffffffffffffffffffffffff16021790555060019050613e1b565b600090505b90565b8060029080519060200190613e34929190613e60565b5050565b602060405190810160405280600081525090565b602060405190810160405280600081525090565b828054600181600116156101000203166002900490600052602060002090601f016020900481019282601f10613ea157805160ff1916838001178555613ecf565b82800160010185558215613ecf579182015b82811115613ece578251825591602001919060010190613eb3565b5b509050613edc9190613f1f565b5090565b608060405190810160405280600073ffffffffffffffffffffffffffffffffffffffff1681526020016000815260200160008152602001600081525090565b613f4191905b80821115613f3d576000816000905550600101613f25565b5090565b905600a165627a7a72305820ed97b64bb8200676d25d8006d8714ff6bf4fa33466a10b2c80d9cede3dd392800029",
  "source": "\r\npragma solidity ^0.4.21;\r\n\r\nimport \"./Oraclize/Oraclize_API.sol\";\r\nimport \"./libraries/SafeMath.sol\";\r\n\r\ncontract BookClub is usingOraclize{\r\n\r\n    using SafeMath for uint256;\r\n\r\n  mapping(address => bool) members;\r\n  mapping(address => uint) reputation;\r\n  mapping(address => uint) rating;\r\n  address nextInLine;\r\n  mapping(uint => Details) matches;\r\n  struct Details{\r\n    address maker;\r\n    address taker;\r\n    uint matchId;\r\n  }\r\n\r\n    struct userDetails{\r\n    string r;\r\n    address taker;\r\n    uint matchId;\r\n  }\r\n\r\n  struct VoteDetails{\r\n    address traitor;\r\n    uint start;\r\n    uint yays;\r\n    uint nays;\r\n  }\r\n\r\n  mapping(uint => VoteDetails) votes;\r\n  uint vote_nonce;\r\n  uint membersCount;\r\n  uint stake;\r\n  mapping(address => address) matched;\r\n  mapping (bytes32 => address) query;\r\n  \r\n  //Bridge Functionality\r\n\r\n  string public partnerBridge; //address of bridge contract on other chain\r\n  string public api;\r\n  string public parameters;\r\n  uint public lastValue;\r\n  bytes4 private method_data;\r\n  mapping(address => uint) departingBalance;\r\n\r\n  event Print(string _issue);\r\n  event Matched(address,address);\r\n  event NewMember(address _newbie);\r\n  event MemberLeaving(address);\r\n\r\n\r\n  function BookClub() public{\r\n    vote_nonce = 0;\r\n    method_data = this.getDeposit.selector;\r\n    setAPI(\"json(https://ropsten.infura.io/).result\");\r\n  }\r\n  \r\n\r\n\r\n  function requestNewBook() public {\r\n    if(nextInLine == address(0)){\r\n      nextInLine = msg.sender;\r\n    }\r\n    else{\r\n      matched[nextInLine] = msg.sender;\r\n      matched[msg.sender] = nextInLine;\r\n      reputation[nextInLine] += 1;\r\n      reputation[msg.sender] += 1;\r\n      emit Matched(nextInLine,msg.sender);\r\n      nextInLine = address(0);\r\n    }\r\n  }\r\n\r\n  /*rate the user you were matched with*/\r\n  function rateUser(address _user, uint _rating) public {\r\n    require(matched[msg.sender] == _user && _rating <= 5);\r\n    rating[_user] = (rating[_user]*reputation[_user] + _rating) / (reputation[_user] + 1);\r\n  }\r\n  \r\n\r\n  function isMember(address _user) public constant returns(bool){\r\n    return members[_user];\r\n  }\r\n\r\n  function getRating(address _user) public constant returns(uint){\r\n    return rating[_user];\r\n    }\r\n  function getReputation(address _user) public constant returns(uint){\r\n    return reputation[_user];\r\n    }\r\n\r\n\r\n  /*can vote to kick someone out*/\r\n  function initiateVote(address _traitor) public {\r\n    require(members[msg.sender]);\r\n    votes[vote_nonce].traitor = _traitor;\r\n    votes[vote_nonce].start = now;\r\n    votes[vote_nonce].yays = 0;\r\n    votes[vote_nonce].nays = 0;\r\n    vote_nonce++;\r\n  }\r\n  function settleVote(uint _id) public {\r\n    VoteDetails memory _vote = votes[_id];\r\n    require(votes[_id].start <= now + 86400*14);\r\n    if(_vote.yays > _vote.nays){\r\n      removeMember(_vote.traitor);\r\n    }\r\n  }\r\n\r\n  function vote(uint _id,bool _true_for_yay) public {\r\n    VoteDetails memory _vote = votes[_id];\r\n    require(_vote.start >= now - 86400*14);\r\n    if(_true_for_yay){\r\n      _vote.yays += 1;\r\n    }\r\n    else{\r\n      _vote.nays += 1;\r\n    }\r\n  }\r\n\r\n\r\n  //How do we put in a timelock or not let anyone just leave?\r\n  function leaveBookClub() public {\r\n    removeMember(msg.sender);\r\n  }\r\n\r\n  function removeMember(address _traitor) internal{\r\n    members[_traitor] = false;\r\n    emit MemberLeaving(_traitor);\r\n    membersCount -= 1;\r\n    departingBalance[_traitor] = 1;\r\n  }\r\n\r\n//ADD ID TO QUERY\r\n    function __callback(bytes32 myId, string result) public {\r\n        require(msg.sender == oraclize_cbAddress());\r\n        lastValue = parseInt(result);\r\n        if(lastValue > 0){\r\n          address _user = query[myId];\r\n          members[_user] = true;\r\n          emit NewMember(_user);\r\n          membersCount += 1;\r\n        }\r\n    }\r\n\r\n\r\n    function checkMain(address _user)public payable {\r\n        if (oraclize_getPrice(\"URL\") > address(this).balance) {\r\n            emit Print(\"Oraclize query was NOT sent, please add some ETH to cover for the query fee\");\r\n        } else {\r\n            emit Print(\"Oraclize query was sent, standing by for the answer..\");\r\n            string memory _n_user = toAsciiString(_user);\r\n            string memory _params = createQuery_value(_n_user);\r\n             bytes32 queryId = oraclize_query(\"URL\",api,_params);\r\n             query[queryId] = _user;\r\n        }\r\n      }\r\n\r\n    function createQuery_value(string _member_address) public constant returns(string){\r\n      string memory _code = strConcat(fromCode(method_data),_member_address);\r\n      string memory _part = ' {\"jsonrpc\":\"2.0\",\"id\":3,\"method\":\"eth_call\",\"params\":[{\"to\":';\r\n      string memory _params2 = strConcat(_part,partnerBridge,',\"data\":\"',_code,'\"},\"latest\"]}');\r\n      emit Print(_params2);\r\n      return _params2;\r\n    }\r\n\r\n\r\n  function setPartnerBridge(string _connected) public{\r\n    partnerBridge = _connected;\r\n  }\r\n  \r\n  function setAPI(string _api) public returns(string){\r\n      api = _api; \r\n      return api;  //\r\n  }\r\n\r\n  function departingMember(address _former) public returns(uint){\r\n    return departingBalance[_former];\r\n  }\r\n\r\n  mapping (address => uint) deposited_balances;\r\n  function getDeposit(address _user) public returns(uint){\r\n    return deposited_balances[_user];\r\n  }\r\n\r\n    function fromCode(bytes4 code) public view returns (string) {                                                                                    \r\n    bytes memory result = new bytes(10);                                                                                                         \r\n    result[0] = byte('0');\r\n    result[1] = byte('x');\r\n    for (uint i=0; i<4; ++i) {\r\n        result[2*i+2] = toHexDigit(uint8(code[i])/16);\r\n        result[2*i+3] = toHexDigit(uint8(code[i])%16);\r\n    }\r\n    return string(result);\r\n}\r\n\r\n    function toHexDigit(uint8 d) pure internal returns (byte) {                                                                                      \r\n    if (0 <= d && d <= 9) {                                                                                                                      \r\n        return byte(uint8(byte('0')) + d);                                                                                                       \r\n    } else if (10 <= uint8(d) && uint8(d) <= 15) {                                                                                               \r\n        return byte(uint8(byte('a')) + d - 10);                                                                                                  \r\n    }                                                                                                                                            \r\n    revert();                                                                                                                                    \r\n}                                                                                                                                                \r\n\r\nfunction toAsciiString(address x) returns (string) {\r\n    bytes memory s = new bytes(40);\r\n    for (uint i = 0; i < 20; i++) {\r\n        byte b = byte(uint8(uint(x) / (2**(8*(19 - i)))));\r\n        byte hi = byte(uint8(b) / 16);\r\n        byte lo = byte(uint8(b) - 16 * uint8(hi));\r\n        s[2*i] = char(hi);\r\n        s[2*i+1] = char(lo);            \r\n    }\r\n    return string(s);\r\n}\r\n\r\nfunction char(byte b) returns (byte c) {\r\n    if (b < 10) return byte(uint8(b) + 0x30);\r\n    else return byte(uint8(b) + 0x57);\r\n}\r\n}\r\n",
  "sourcePath": "C:\\Nick\\hackital\\ethereumBookClub\\contracts\\BookClub.sol",
  "compiler": {
    "name": "solc",
    "version": "0.4.21+commit.dfe3193c.Emscripten.clang"
  },
  "schemaVersion": "2.0.0",
  "updatedAt": "2018-04-29T00:10:18.980Z"
}