{
  "contractName": "BookClub",
  "abi": [
    {
      "constant": true,
      "inputs": [],
      "name": "partnerBridge",
      "outputs": [
        {
          "name": "",
          "type": "string"
        }
      ],
      "payable": false,
      "stateMutability": "view",
      "type": "function"
    },
    {
      "constant": true,
      "inputs": [],
      "name": "lastValue",
      "outputs": [
        {
          "name": "",
          "type": "uint256"
        }
      ],
      "payable": false,
      "stateMutability": "view",
      "type": "function"
    },
    {
      "constant": true,
      "inputs": [],
      "name": "parameters",
      "outputs": [
        {
          "name": "",
          "type": "string"
        }
      ],
      "payable": false,
      "stateMutability": "view",
      "type": "function"
    },
    {
      "constant": true,
      "inputs": [],
      "name": "api",
      "outputs": [
        {
          "name": "",
          "type": "string"
        }
      ],
      "payable": false,
      "stateMutability": "view",
      "type": "function"
    },
    {
      "inputs": [],
      "payable": false,
      "stateMutability": "nonpayable",
      "type": "constructor"
    },
    {
      "anonymous": false,
      "inputs": [
        {
          "indexed": false,
          "name": "",
          "type": "address"
        },
        {
          "indexed": false,
          "name": "",
          "type": "address"
        }
      ],
      "name": "Matched",
      "type": "event"
    },
    {
      "anonymous": false,
      "inputs": [
        {
          "indexed": false,
          "name": "",
          "type": "address"
        }
      ],
      "name": "NewMember",
      "type": "event"
    },
    {
      "anonymous": false,
      "inputs": [
        {
          "indexed": false,
          "name": "",
          "type": "address"
        }
      ],
      "name": "MemberLeaving",
      "type": "event"
    },
    {
      "anonymous": false,
      "inputs": [
        {
          "indexed": false,
          "name": "",
          "type": "string"
        }
      ],
      "name": "Print",
      "type": "event"
    },
    {
      "constant": false,
      "inputs": [],
      "name": "requestNewBook",
      "outputs": [],
      "payable": false,
      "stateMutability": "nonpayable",
      "type": "function"
    },
    {
      "constant": false,
      "inputs": [
        {
          "name": "_user",
          "type": "address"
        },
        {
          "name": "_rating",
          "type": "uint256"
        }
      ],
      "name": "rateUser",
      "outputs": [],
      "payable": false,
      "stateMutability": "nonpayable",
      "type": "function"
    },
    {
      "constant": false,
      "inputs": [
        {
          "name": "_traitor",
          "type": "address"
        }
      ],
      "name": "initiateVote",
      "outputs": [],
      "payable": false,
      "stateMutability": "nonpayable",
      "type": "function"
    },
    {
      "constant": false,
      "inputs": [
        {
          "name": "_id",
          "type": "uint256"
        }
      ],
      "name": "settleVote",
      "outputs": [],
      "payable": false,
      "stateMutability": "nonpayable",
      "type": "function"
    },
    {
      "constant": false,
      "inputs": [
        {
          "name": "_id",
          "type": "uint256"
        },
        {
          "name": "_true_for_yay",
          "type": "bool"
        }
      ],
      "name": "vote",
      "outputs": [],
      "payable": false,
      "stateMutability": "nonpayable",
      "type": "function"
    },
    {
      "constant": false,
      "inputs": [],
      "name": "leaveBookClub",
      "outputs": [],
      "payable": false,
      "stateMutability": "nonpayable",
      "type": "function"
    },
    {
      "constant": false,
      "inputs": [],
      "name": "setBridge",
      "outputs": [],
      "payable": false,
      "stateMutability": "nonpayable",
      "type": "function"
    },
    {
      "constant": false,
      "inputs": [
        {
          "name": "myid",
          "type": "bytes32"
        },
        {
          "name": "result",
          "type": "bytes32"
        }
      ],
      "name": "__callback",
      "outputs": [],
      "payable": false,
      "stateMutability": "nonpayable",
      "type": "function"
    },
    {
      "constant": false,
      "inputs": [
        {
          "name": "myid",
          "type": "bytes32"
        },
        {
          "name": "result",
          "type": "string"
        }
      ],
      "name": "__callback",
      "outputs": [],
      "payable": false,
      "stateMutability": "nonpayable",
      "type": "function"
    },
    {
      "constant": false,
      "inputs": [
        {
          "name": "myid",
          "type": "bytes32"
        },
        {
          "name": "result",
          "type": "string"
        },
        {
          "name": "proof",
          "type": "bytes"
        }
      ],
      "name": "__callback",
      "outputs": [],
      "payable": false,
      "stateMutability": "nonpayable",
      "type": "function"
    },
    {
      "constant": false,
      "inputs": [
        {
          "name": "_params",
          "type": "string"
        }
      ],
      "name": "checkMain",
      "outputs": [],
      "payable": false,
      "stateMutability": "nonpayable",
      "type": "function"
    },
    {
      "constant": false,
      "inputs": [
        {
          "name": "_connected",
          "type": "string"
        }
      ],
      "name": "setPartnerBridge",
      "outputs": [],
      "payable": false,
      "stateMutability": "nonpayable",
      "type": "function"
    },
    {
      "constant": false,
      "inputs": [
        {
          "name": "_api",
          "type": "string"
        }
      ],
      "name": "setAPI",
      "outputs": [
        {
          "name": "",
          "type": "string"
        }
      ],
      "payable": false,
      "stateMutability": "nonpayable",
      "type": "function"
    },
    {
      "constant": false,
      "inputs": [
        {
          "name": "_former",
          "type": "address"
        }
      ],
      "name": "departingMember",
      "outputs": [
        {
          "name": "",
          "type": "uint256"
        }
      ],
      "payable": false,
      "stateMutability": "nonpayable",
      "type": "function"
    },
    {
      "constant": false,
      "inputs": [
        {
          "name": "_user",
          "type": "address"
        }
      ],
      "name": "getDeposit",
      "outputs": [
        {
          "name": "",
          "type": "uint256"
        }
      ],
      "payable": false,
      "stateMutability": "nonpayable",
      "type": "function"
    }
  ],
  "bytecode": "0x6060604052341561000f57600080fd5b6000600b819055506000600c819055506129cf8061002e6000396000f300606060405260043610610107576000357c0100000000000000000000000000000000000000000000000000000000900463ffffffff1680631a1a2ad91461010c57806322c22a201461014557806327dc297e146101d35780633059a2b41461023d57806338bbfa501461029a5780633d4effc41461034757806343183834146103895780634fb9eda9146103b25780635f66c955146103ff578063696cf2a01461041457806383d2420b146104ea578063890357301461051e578063898e61e3146105ac578063b76821c5146105c1578063b886b2b0146105e4578063bfbb2da6146105f9578063c9d27afe14610656578063d2c18e0b14610684578063e1254fba14610712575b600080fd5b341561011757600080fd5b610143600480803573ffffffffffffffffffffffffffffffffffffffff1690602001909190505061075f565b005b341561015057600080fd5b61015861087c565b6040518080602001828103825283818151815260200191508051906020019080838360005b8381101561019857808201518184015260208101905061017d565b50505050905090810190601f1680156101c55780820380516001836020036101000a031916815260200191505b509250505060405180910390f35b34156101de57600080fd5b61023b60048080356000191690602001909190803590602001908201803590602001908080601f0160208091040260200160405190810160405280939291908181526020018383808284378201915050505050509190505061091a565b005b341561024857600080fd5b610298600480803590602001908201803590602001908080601f0160208091040260200160405190810160405280939291908181526020018383808284378201915050505050509190505061094c565b005b34156102a557600080fd5b61034560048080356000191690602001909190803590602001908201803590602001908080601f0160208091040260200160405190810160405280939291908181526020018383808284378201915050505050509190803590602001908201803590602001908080601f01602080910402602001604051908101604052809392919081815260200183838082843782019150505050505091905050610966565b005b341561035257600080fd5b610387600480803573ffffffffffffffffffffffffffffffffffffffff1690602001909190803590602001909190505061096b565b005b341561039457600080fd5b61039c610b28565b6040518082815260200191505060405180910390f35b34156103bd57600080fd5b6103e9600480803573ffffffffffffffffffffffffffffffffffffffff16906020019091905050610b2e565b6040518082815260200191505060405180910390f35b341561040a57600080fd5b610412610b77565b005b341561041f57600080fd5b61046f600480803590602001908201803590602001908080601f01602080910402602001604051908101604052809392919081815260200183838082843782019150505050505091905050610be0565b6040518080602001828103825283818151815260200191508051906020019080838360005b838110156104af578082015181840152602081019050610494565b50505050905090810190601f1680156104dc5780820380516001836020036101000a031916815260200191505b509250505060405180910390f35b34156104f557600080fd5b61051c60048080356000191690602001909190803560001916906020019091905050610ca1565b005b341561052957600080fd5b610531610cf1565b6040518080602001828103825283818151815260200191508051906020019080838360005b83811015610571578082015181840152602081019050610556565b50505050905090810190601f16801561059e5780820380516001836020036101000a031916815260200191505b509250505060405180910390f35b34156105b757600080fd5b6105bf610d8f565b005b34156105cc57600080fd5b6105e26004808035906020019091905050611128565b005b34156105ef57600080fd5b6105f7611211565b005b341561060457600080fd5b610654600480803590602001908201803590602001908080601f0160208091040260200160405190810160405280939291908181526020018383808284378201915050505050509190505061133c565b005b341561066157600080fd5b610682600480803590602001909190803515159060200190919050506115be565b005b341561068f57600080fd5b6106976116a6565b6040518080602001828103825283818151815260200191508051906020019080838360005b838110156106d75780820151818401526020810190506106bc565b50505050905090810190601f1680156107045780820380516001836020036101000a031916815260200191505b509250505060405180910390f35b341561071d57600080fd5b610749600480803573ffffffffffffffffffffffffffffffffffffffff16906020019091905050611744565b6040518082815260200191505060405180910390f35b600560003373ffffffffffffffffffffffffffffffffffffffff1673ffffffffffffffffffffffffffffffffffffffff16815260200190815260200160002060009054906101000a900460ff1615156107b757600080fd5b80600a6000600b54815260200190815260200160002060000160006101000a81548173ffffffffffffffffffffffffffffffffffffffff021916908373ffffffffffffffffffffffffffffffffffffffff16021790555042600a6000600b548152602001908152602001600020600101819055506000600a6000600b548152602001908152602001600020600201819055506000600a6000600b54815260200190815260200160002060030181905550600b6000815480929190600101919050555050565b60108054600181600116156101000203166002900480601f0160208091040260200160405190810160405280929190818152602001828054600181600116156101000203166002900480156109125780601f106108e757610100808354040283529160200191610912565b820191906000526020600020905b8154815290600101906020018083116108f557829003601f168201915b505050505081565b6109488282600060405180591061092e5750595b9080825280601f01601f1916602001820160405250610966565b5050565b80601090805190602001906109629291906128ab565b5050565b505050565b8173ffffffffffffffffffffffffffffffffffffffff16600f60003373ffffffffffffffffffffffffffffffffffffffff1673ffffffffffffffffffffffffffffffffffffffff16815260200190815260200160002060009054906101000a900473ffffffffffffffffffffffffffffffffffffffff1673ffffffffffffffffffffffffffffffffffffffff16148015610a06575060058111155b1515610a1157600080fd5b6001600660008473ffffffffffffffffffffffffffffffffffffffff1673ffffffffffffffffffffffffffffffffffffffff168152602001908152602001600020540181600660008573ffffffffffffffffffffffffffffffffffffffff1673ffffffffffffffffffffffffffffffffffffffff16815260200190815260200160002054600760008673ffffffffffffffffffffffffffffffffffffffff1673ffffffffffffffffffffffffffffffffffffffff168152602001908152602001600020540201811515610ae057fe5b04600760008473ffffffffffffffffffffffffffffffffffffffff1673ffffffffffffffffffffffffffffffffffffffff168152602001908152602001600020819055505050565b60135481565b6000601560008373ffffffffffffffffffffffffffffffffffffffff1673ffffffffffffffffffffffffffffffffffffffff168152602001908152602001600020549050919050565b610b803361174b565b6001600d600082825403925050819055503373ffffffffffffffffffffffffffffffffffffffff166108fc600d5434811515610bb857fe5b049081150290604051600060405180830381858888f193505050501515610bde57600080fd5b565b610be861292b565b8160119080519060200190610bfe9291906128ab565b5060118054600181600116156101000203166002900480601f016020809104026020016040519081016040528092919081815260200182805460018160011615610100020316600290048015610c955780601f10610c6a57610100808354040283529160200191610c95565b820191906000526020600020905b815481529060010190602001808311610c7857829003601f168201915b50505050509050919050565b610ca961181a565b73ffffffffffffffffffffffffffffffffffffffff163373ffffffffffffffffffffffffffffffffffffffff16141515610ce257600080fd5b80600190046013819055505050565b60128054600181600116156101000203166002900480601f016020809104026020016040519081016040528092919081815260200182805460018160011615610100020316600290048015610d875780601f10610d5c57610100808354040283529160200191610d87565b820191906000526020600020905b815481529060010190602001808311610d6a57829003601f168201915b505050505081565b600073ffffffffffffffffffffffffffffffffffffffff16600860009054906101000a900473ffffffffffffffffffffffffffffffffffffffff1673ffffffffffffffffffffffffffffffffffffffff161415610e2c5733600860006101000a81548173ffffffffffffffffffffffffffffffffffffffff021916908373ffffffffffffffffffffffffffffffffffffffff160217905550611126565b33600f6000600860009054906101000a900473ffffffffffffffffffffffffffffffffffffffff1673ffffffffffffffffffffffffffffffffffffffff1673ffffffffffffffffffffffffffffffffffffffff16815260200190815260200160002060006101000a81548173ffffffffffffffffffffffffffffffffffffffff021916908373ffffffffffffffffffffffffffffffffffffffff160217905550600860009054906101000a900473ffffffffffffffffffffffffffffffffffffffff16600f60003373ffffffffffffffffffffffffffffffffffffffff1673ffffffffffffffffffffffffffffffffffffffff16815260200190815260200160002060006101000a81548173ffffffffffffffffffffffffffffffffffffffff021916908373ffffffffffffffffffffffffffffffffffffffff160217905550600160066000600860009054906101000a900473ffffffffffffffffffffffffffffffffffffffff1673ffffffffffffffffffffffffffffffffffffffff1673ffffffffffffffffffffffffffffffffffffffff168152602001908152602001600020600082825401925050819055506001600660003373ffffffffffffffffffffffffffffffffffffffff1673ffffffffffffffffffffffffffffffffffffffff168152602001908152602001600020600082825401925050819055507fd14ed81663bee87b643b51c1f63fc86cb3b2bba9cc237cf6db5c3d5967a26952600860009054906101000a900473ffffffffffffffffffffffffffffffffffffffff1633604051808373ffffffffffffffffffffffffffffffffffffffff1673ffffffffffffffffffffffffffffffffffffffff1681526020018273ffffffffffffffffffffffffffffffffffffffff1673ffffffffffffffffffffffffffffffffffffffff1681526020019250505060405180910390a16000600860006101000a81548173ffffffffffffffffffffffffffffffffffffffff021916908373ffffffffffffffffffffffffffffffffffffffff1602179055505b565b61113061293f565b600a6000838152602001908152602001600020608060405190810160405290816000820160009054906101000a900473ffffffffffffffffffffffffffffffffffffffff1673ffffffffffffffffffffffffffffffffffffffff1673ffffffffffffffffffffffffffffffffffffffff16815260200160018201548152602001600282015481526020016003820154815250509050621275004201600a600084815260200190815260200160002060010154111515156111ef57600080fd5b80606001518160400151111561120d5761120c816000015161174b565b5b5050565b63e1254fba7c010000000000000000000000000000000000000000000000000000000002601460006101000a81548163ffffffff02191690837c0100000000000000000000000000000000000000000000000000000000900402179055506112d4606060405190810160405280602781526020017f6a736f6e2868747470733a2f2f726f707374656e2e696e667572612e696f2f2981526020017f2e726573756c7400000000000000000000000000000000000000000000000000815250610be0565b5061133a606060405190810160405280602c81526020017f223078386339616564303338323734656366323861346634333566653733316581526020017f326666323439313636646322000000000000000000000000000000000000000081525061094c565b565b3073ffffffffffffffffffffffffffffffffffffffff16316113926040805190810160405280600381526020017f55524c0000000000000000000000000000000000000000000000000000000000815250611b09565b1115611451577f241ba3bafc919fb4308284ce03a8f4867a8ec2f0401445d3cf41a468e7db4ae060405180806020018281038252604b8152602001807f4f7261636c697a6520717565727920776173204e4f542073656e742c20706c6581526020017f6173652061646420736f6d652045544820746f20636f76657220666f7220746881526020017f652071756572792066656500000000000000000000000000000000000000000081525060600191505060405180910390a16115bb565b7f241ba3bafc919fb4308284ce03a8f4867a8ec2f0401445d3cf41a468e7db4ae06040518080602001828103825260358152602001807f4f7261636c697a65207175657279207761732073656e742c207374616e64696e81526020017f6720627920666f722074686520616e737765722e2e000000000000000000000081525060400191505060405180910390a16115b96040805190810160405280600381526020017f55524c000000000000000000000000000000000000000000000000000000000081525060118054600181600116156101000203166002900480601f0160208091040260200160405190810160405280929190818152602001828054600181600116156101000203166002900480156115ae5780601f10611583576101008083540402835291602001916115ae565b820191906000526020600020905b81548152906001019060200180831161159157829003601f168201915b505050505083611e6a565b505b50565b6115c661293f565b600a6000848152602001908152602001600020608060405190810160405290816000820160009054906101000a900473ffffffffffffffffffffffffffffffffffffffff1673ffffffffffffffffffffffffffffffffffffffff1673ffffffffffffffffffffffffffffffffffffffff1681526020016001820154815260200160028201548152602001600382015481525050905062127500420381602001511015151561167357600080fd5b811561168f5760018160400181815101915081815250506116a1565b60018160600181815101915081815250505b505050565b60118054600181600116156101000203166002900480601f01602080910402602001604051908101604052809291908181526020018280546001816001161561010002031660029004801561173c5780601f106117115761010080835404028352916020019161173c565b820191906000526020600020905b81548152906001019060200180831161171f57829003601f168201915b505050505081565b6000919050565b6000600560008373ffffffffffffffffffffffffffffffffffffffff1673ffffffffffffffffffffffffffffffffffffffff16815260200190815260200160002060006101000a81548160ff0219169083151502179055507fa5900de09bdf6ec8ef95d12f8f27648ff0f5f03bf640bae24cf3529c07a1d3b881604051808273ffffffffffffffffffffffffffffffffffffffff1673ffffffffffffffffffffffffffffffffffffffff16815260200191505060405180910390a16001600d6000828254039250508190555050565b6000806000809054906101000a900473ffffffffffffffffffffffffffffffffffffffff1673ffffffffffffffffffffffffffffffffffffffff16148061188a575060006118886000809054906101000a900473ffffffffffffffffffffffffffffffffffffffff166123e6565b145b1561189b5761189960006123f1565b505b6000809054906101000a900473ffffffffffffffffffffffffffffffffffffffff1673ffffffffffffffffffffffffffffffffffffffff166338cc48316040518163ffffffff167c0100000000000000000000000000000000000000000000000000000000028152600401602060405180830381600087803b151561191f57600080fd5b5af1151561192c57600080fd5b5050506040518051905073ffffffffffffffffffffffffffffffffffffffff16600160009054906101000a900473ffffffffffffffffffffffffffffffffffffffff1673ffffffffffffffffffffffffffffffffffffffff16141515611a68576000809054906101000a900473ffffffffffffffffffffffffffffffffffffffff1673ffffffffffffffffffffffffffffffffffffffff166338cc48316040518163ffffffff167c0100000000000000000000000000000000000000000000000000000000028152600401602060405180830381600087803b1515611a1057600080fd5b5af11515611a1d57600080fd5b50505060405180519050600160006101000a81548173ffffffffffffffffffffffffffffffffffffffff021916908373ffffffffffffffffffffffffffffffffffffffff1602179055505b600160009054906101000a900473ffffffffffffffffffffffffffffffffffffffff1673ffffffffffffffffffffffffffffffffffffffff1663c281d19e6040518163ffffffff167c0100000000000000000000000000000000000000000000000000000000028152600401602060405180830381600087803b1515611aed57600080fd5b5af11515611afa57600080fd5b50505060405180519050905090565b6000806000809054906101000a900473ffffffffffffffffffffffffffffffffffffffff1673ffffffffffffffffffffffffffffffffffffffff161480611b7957506000611b776000809054906101000a900473ffffffffffffffffffffffffffffffffffffffff166123e6565b145b15611b8a57611b8860006123f1565b505b6000809054906101000a900473ffffffffffffffffffffffffffffffffffffffff1673ffffffffffffffffffffffffffffffffffffffff166338cc48316040518163ffffffff167c0100000000000000000000000000000000000000000000000000000000028152600401602060405180830381600087803b1515611c0e57600080fd5b5af11515611c1b57600080fd5b5050506040518051905073ffffffffffffffffffffffffffffffffffffffff16600160009054906101000a900473ffffffffffffffffffffffffffffffffffffffff1673ffffffffffffffffffffffffffffffffffffffff16141515611d57576000809054906101000a900473ffffffffffffffffffffffffffffffffffffffff1673ffffffffffffffffffffffffffffffffffffffff166338cc48316040518163ffffffff167c0100000000000000000000000000000000000000000000000000000000028152600401602060405180830381600087803b1515611cff57600080fd5b5af11515611d0c57600080fd5b50505060405180519050600160006101000a81548173ffffffffffffffffffffffffffffffffffffffff021916908373ffffffffffffffffffffffffffffffffffffffff1602179055505b600160009054906101000a900473ffffffffffffffffffffffffffffffffffffffff1673ffffffffffffffffffffffffffffffffffffffff1663524f3889836040518263ffffffff167c01000000000000000000000000000000000000000000000000000000000281526004018080602001828103825283818151815260200191508051906020019080838360005b83811015611e01578082015181840152602081019050611de6565b50505050905090810190601f168015611e2e5780820380516001836020036101000a031916815260200191505b5092505050602060405180830381600087803b1515611e4c57600080fd5b5af11515611e5957600080fd5b505050604051805190509050919050565b60008060008060009054906101000a900473ffffffffffffffffffffffffffffffffffffffff1673ffffffffffffffffffffffffffffffffffffffff161480611edc57506000611eda6000809054906101000a900473ffffffffffffffffffffffffffffffffffffffff166123e6565b145b15611eed57611eeb60006123f1565b505b6000809054906101000a900473ffffffffffffffffffffffffffffffffffffffff1673ffffffffffffffffffffffffffffffffffffffff166338cc48316040518163ffffffff167c0100000000000000000000000000000000000000000000000000000000028152600401602060405180830381600087803b1515611f7157600080fd5b5af11515611f7e57600080fd5b5050506040518051905073ffffffffffffffffffffffffffffffffffffffff16600160009054906101000a900473ffffffffffffffffffffffffffffffffffffffff1673ffffffffffffffffffffffffffffffffffffffff161415156120ba576000809054906101000a900473ffffffffffffffffffffffffffffffffffffffff1673ffffffffffffffffffffffffffffffffffffffff166338cc48316040518163ffffffff167c0100000000000000000000000000000000000000000000000000000000028152600401602060405180830381600087803b151561206257600080fd5b5af1151561206f57600080fd5b50505060405180519050600160006101000a81548173ffffffffffffffffffffffffffffffffffffffff021916908373ffffffffffffffffffffffffffffffffffffffff1602179055505b600160009054906101000a900473ffffffffffffffffffffffffffffffffffffffff1673ffffffffffffffffffffffffffffffffffffffff1663524f3889866040518263ffffffff167c01000000000000000000000000000000000000000000000000000000000281526004018080602001828103825283818151815260200191508051906020019080838360005b83811015612164578082015181840152602081019050612149565b50505050905090810190601f1680156121915780820380516001836020036101000a031916815260200191505b5092505050602060405180830381600087803b15156121af57600080fd5b5af115156121bc57600080fd5b50505060405180519050905062030d403a02670de0b6b3a7640000018111156121eb57600060010291506123de565b600160009054906101000a900473ffffffffffffffffffffffffffffffffffffffff1673ffffffffffffffffffffffffffffffffffffffff1663772286598260008888886040518663ffffffff167c010000000000000000000000000000000000000000000000000000000002815260040180858152602001806020018060200180602001848103845287818151815260200191508051906020019080838360005b838110156122a857808201518184015260208101905061228d565b50505050905090810190601f1680156122d55780820380516001836020036101000a031916815260200191505b50848103835286818151815260200191508051906020019080838360005b8381101561230e5780820151818401526020810190506122f3565b50505050905090810190601f16801561233b5780820380516001836020036101000a031916815260200191505b50848103825285818151815260200191508051906020019080838360005b83811015612374578082015181840152602081019050612359565b50505050905090810190601f1680156123a15780820380516001836020036101000a031916815260200191505b509750505050505050506020604051808303818588803b15156123c357600080fd5b5af115156123d057600080fd5b505050506040518051905091505b509392505050565b6000813b9050919050565b60006123fb612402565b9050919050565b600080612422731d3b2638a7cc9f2cb3d298a3da7a90b67e5506ed6123e6565b11156124c357731d3b2638a7cc9f2cb3d298a3da7a90b67e5506ed6000806101000a81548173ffffffffffffffffffffffffffffffffffffffff021916908373ffffffffffffffffffffffffffffffffffffffff1602179055506124ba6040805190810160405280600b81526020017f6574685f6d61696e6e6574000000000000000000000000000000000000000000815250612891565b6001905061288e565b60006124e273c03a2615d5efaf5f49f60b7bb6583eaec212fdf16123e6565b11156125835773c03a2615d5efaf5f49f60b7bb6583eaec212fdf16000806101000a81548173ffffffffffffffffffffffffffffffffffffffff021916908373ffffffffffffffffffffffffffffffffffffffff16021790555061257a6040805190810160405280600c81526020017f6574685f726f707374656e330000000000000000000000000000000000000000815250612891565b6001905061288e565b60006125a273b7a07bcf2ba2f2703b24c0691b5278999c59ac7e6123e6565b11156126435773b7a07bcf2ba2f2703b24c0691b5278999c59ac7e6000806101000a81548173ffffffffffffffffffffffffffffffffffffffff021916908373ffffffffffffffffffffffffffffffffffffffff16021790555061263a6040805190810160405280600981526020017f6574685f6b6f76616e0000000000000000000000000000000000000000000000815250612891565b6001905061288e565b600061266273146500cfd35b22e4a392fe0adc06de1a1368ed486123e6565b11156127035773146500cfd35b22e4a392fe0adc06de1a1368ed486000806101000a81548173ffffffffffffffffffffffffffffffffffffffff021916908373ffffffffffffffffffffffffffffffffffffffff1602179055506126fa6040805190810160405280600b81526020017f6574685f72696e6b656279000000000000000000000000000000000000000000815250612891565b6001905061288e565b6000612722736f485c8bf6fc43ea212e93bbf8ce046c7f1cb4756123e6565b111561278557736f485c8bf6fc43ea212e93bbf8ce046c7f1cb4756000806101000a81548173ffffffffffffffffffffffffffffffffffffffff021916908373ffffffffffffffffffffffffffffffffffffffff1602179055506001905061288e565b60006127a47320e12a1f859b3feae5fb2a0a32c18f5a65555bbf6123e6565b1115612807577320e12a1f859b3feae5fb2a0a32c18f5a65555bbf6000806101000a81548173ffffffffffffffffffffffffffffffffffffffff021916908373ffffffffffffffffffffffffffffffffffffffff1602179055506001905061288e565b60006128267351efaf4c8b3c9afbd5ab9f4bbc82784ab6ef8faa6123e6565b1115612889577351efaf4c8b3c9afbd5ab9f4bbc82784ab6ef8faa6000806101000a81548173ffffffffffffffffffffffffffffffffffffffff021916908373ffffffffffffffffffffffffffffffffffffffff1602179055506001905061288e565b600090505b90565b80600290805190602001906128a79291906128ab565b5050565b828054600181600116156101000203166002900490600052602060002090601f016020900481019282601f106128ec57805160ff191683800117855561291a565b8280016001018555821561291a579182015b828111156129195782518255916020019190600101906128fe565b5b509050612927919061297e565b5090565b602060405190810160405280600081525090565b608060405190810160405280600073ffffffffffffffffffffffffffffffffffffffff1681526020016000815260200160008152602001600081525090565b6129a091905b8082111561299c576000816000905550600101612984565b5090565b905600a165627a7a723058202a1f3262474dfe062c443d7c02e2262f48f74a6eb1969534ff7a4f6eb32c4ba40029",
  "source": "\r\npragma solidity ^0.4.21;\r\n\r\nimport \"./Oraclize/Oraclize_API.sol\";\r\nimport \"./libraries/SafeMath.sol\";\r\n\r\ncontract BookClub is usingOraclize{\r\n\r\n    using SafeMath for uint256;\r\n\r\n  mapping(address => bool) members;\r\n  mapping(address => uint) reputation;\r\n  mapping(address => uint) rating;\r\n  address nextInLine;\r\n  mapping(uint => Details) matches;\r\n  struct Details{\r\n    address maker;\r\n    address taker;\r\n    uint matchId;\r\n  }\r\n\r\n    struct userDetails{\r\n    string r;\r\n    address taker;\r\n    uint matchId;\r\n  }\r\n\r\n  struct VoteDetails{\r\n    address traitor;\r\n    uint start;\r\n    uint yays;\r\n    uint nays;\r\n  }\r\n  mapping(uint => VoteDetails) votes;\r\n  uint vote_nonce;\r\n  uint match_nonce;\r\n  uint membersCount;\r\n  uint stake;\r\n  mapping(address => address) matched;\r\n  \r\n\r\n  event Matched(address,address);\r\n  event NewMember(address);\r\n  event MemberLeaving(address);\r\n\r\n\r\n  function BookClub() public{\r\n    //OAR = OraclizeAddrResolverI(0xf0f20d1a90c618163d762f9f09baa003a60adeff);\r\n    vote_nonce = 0;\r\n    match_nonce =0;\r\n  }\r\n  \r\n\r\n\r\n  function requestNewBook() public {\r\n    if(nextInLine == address(0)){\r\n      nextInLine = msg.sender;\r\n    }\r\n    else{\r\n      matched[nextInLine] = msg.sender;\r\n      matched[msg.sender] = nextInLine;\r\n      reputation[nextInLine] += 1;\r\n      reputation[msg.sender] += 1;\r\n      emit Matched(nextInLine,msg.sender);\r\n      nextInLine = address(0);\r\n    }\r\n  }\r\n\r\n  /*rate the user you were matched with*/\r\n  function rateUser(address _user, uint _rating) public {\r\n    require(matched[msg.sender] == _user && _rating <= 5);\r\n    rating[_user] = (rating[_user]*reputation[_user] + _rating) / (reputation[_user] + 1);\r\n  }\r\n\r\n\r\n  /*can vote to kick someone out*/\r\n  function initiateVote(address _traitor) public {\r\n    require(members[msg.sender]);\r\n    votes[vote_nonce].traitor = _traitor;\r\n    votes[vote_nonce].start = now;\r\n    votes[vote_nonce].yays = 0;\r\n    votes[vote_nonce].nays = 0;\r\n    vote_nonce++;\r\n  }\r\n  function settleVote(uint _id) public {\r\n    VoteDetails memory _vote = votes[_id];\r\n    require(votes[_id].start <= now + 86400*14);\r\n    if(_vote.yays > _vote.nays){\r\n      removeMember(_vote.traitor);\r\n    }\r\n  }\r\n\r\n  function vote(uint _id,bool _true_for_yay) public {\r\n    VoteDetails memory _vote = votes[_id];\r\n    require(_vote.start >= now - 86400*14);\r\n    if(_true_for_yay){\r\n      _vote.yays += 1;\r\n    }\r\n    else{\r\n      _vote.nays += 1;\r\n    }\r\n  }\r\n\r\n\r\n  //How do we put in a timelock or not let anyone just leave?\r\n  function leaveBookClub() public {\r\n    removeMember(msg.sender);\r\n    membersCount -= 1;\r\n    msg.sender.transfer(msg.value / membersCount);\r\n  }\r\n\r\n  function removeMember(address _traitor) internal{\r\n    members[_traitor] = false;\r\n    emit MemberLeaving(_traitor);\r\n    membersCount -= 1;\r\n  }\r\n\r\n//Bridge Functionality\r\n\r\n  string public partnerBridge; //address of bridge contract on other chain\r\n  string public api;\r\n  string public parameters;\r\n  uint public lastValue;\r\n  bytes4 private method_data;\r\n  mapping(address => uint) departingBalance;\r\n\r\n  event Print(string);\r\n  \r\n\r\n\r\n\r\n  function setBridge() public {\r\n       method_data = this.getDeposit.selector;\r\n       setAPI(\"json(https://ropsten.infura.io/).result\");\r\n       setPartnerBridge('\"0x8c9aed038274ecf28a4f435fe731e2ff249166dc\"');\r\n  }\r\n\r\n//ADD ID TO QUERY\r\n    function __callback(bytes32 myid, bytes32 result) public {\r\n        require(msg.sender == oraclize_cbAddress());\r\n        lastValue = uint(result);\r\n\r\n    }\r\n\r\n\r\n    function checkMain(string _params)public {\r\n        if (oraclize_getPrice(\"URL\") > address(this).balance) {\r\n            emit Print(\"Oraclize query was NOT sent, please add some ETH to cover for the query fee\");\r\n        } else {\r\n            emit Print(\"Oraclize query was sent, standing by for the answer..\");\r\n            oraclize_query(\"URL\",api,_params);\r\n        }\r\n      }\r\n\r\n\r\n    function joinBookClub(address _user) internal {\r\n    members[_user] = true;\r\n    emit NewMember(_user);\r\n    membersCount += 1;\r\n\r\n  }\r\n\r\n\r\n  function setPartnerBridge(string _connected) public{\r\n    partnerBridge = _connected;\r\n  }\r\n  \r\n  function setAPI(string _api) public returns(string){\r\n      api = _api; \r\n      return api;  //\r\n  }\r\n\r\n  function departingMember(address _former) public returns(uint){\r\n    return departingBalance[_former];\r\n  }\r\n\r\n    function getDeposit(address _user) public returns(uint){\r\n  }\r\n}\r\n",
  "sourcePath": "C:\\Nick\\hackital\\ethereumBookClub\\contracts\\BookClub.sol",
  "compiler": {
    "name": "solc",
    "version": "0.4.21+commit.dfe3193c.Emscripten.clang"
  },
  "schemaVersion": "2.0.0",
  "updatedAt": "2018-04-28T18:45:34.042Z"
}