{
  "contractName": "Bridge",
  "abi": [
    {
      "constant": true,
      "inputs": [],
      "name": "partnerBridge",
      "outputs": [
        {
          "name": "",
          "type": "string"
        }
      ],
      "payable": false,
      "stateMutability": "view",
      "type": "function"
    },
    {
      "constant": true,
      "inputs": [],
      "name": "stake",
      "outputs": [
        {
          "name": "",
          "type": "uint256"
        }
      ],
      "payable": false,
      "stateMutability": "view",
      "type": "function"
    },
    {
      "constant": true,
      "inputs": [],
      "name": "owner",
      "outputs": [
        {
          "name": "",
          "type": "address"
        }
      ],
      "payable": false,
      "stateMutability": "view",
      "type": "function"
    },
    {
      "constant": true,
      "inputs": [],
      "name": "total_deposited_supply",
      "outputs": [
        {
          "name": "",
          "type": "uint256"
        }
      ],
      "payable": false,
      "stateMutability": "view",
      "type": "function"
    },
    {
      "inputs": [],
      "payable": false,
      "stateMutability": "nonpayable",
      "type": "constructor"
    },
    {
      "anonymous": false,
      "inputs": [
        {
          "indexed": false,
          "name": "_from",
          "type": "address"
        },
        {
          "indexed": false,
          "name": "_value",
          "type": "uint256"
        }
      ],
      "name": "JoinedBookClub",
      "type": "event"
    },
    {
      "anonymous": false,
      "inputs": [
        {
          "indexed": false,
          "name": "value",
          "type": "string"
        }
      ],
      "name": "LogUpdated",
      "type": "event"
    },
    {
      "anonymous": false,
      "inputs": [
        {
          "indexed": false,
          "name": "description",
          "type": "string"
        }
      ],
      "name": "LogNewOraclizeQuery",
      "type": "event"
    },
    {
      "constant": false,
      "inputs": [
        {
          "name": "_owner",
          "type": "address"
        }
      ],
      "name": "setOwner",
      "outputs": [],
      "payable": false,
      "stateMutability": "nonpayable",
      "type": "function"
    },
    {
      "constant": false,
      "inputs": [],
      "name": "joinBookClub",
      "outputs": [
        {
          "name": "",
          "type": "uint256"
        }
      ],
      "payable": true,
      "stateMutability": "payable",
      "type": "function"
    },
    {
      "constant": false,
      "inputs": [
        {
          "name": "_transferId",
          "type": "string"
        }
      ],
      "name": "checkChild",
      "outputs": [],
      "payable": true,
      "stateMutability": "payable",
      "type": "function"
    },
    {
      "constant": false,
      "inputs": [
        {
          "name": "myid",
          "type": "bytes32"
        },
        {
          "name": "result",
          "type": "string"
        },
        {
          "name": "proof",
          "type": "bytes"
        }
      ],
      "name": "__callback",
      "outputs": [],
      "payable": false,
      "stateMutability": "nonpayable",
      "type": "function"
    },
    {
      "constant": false,
      "inputs": [
        {
          "name": "myid",
          "type": "bytes32"
        },
        {
          "name": "result",
          "type": "string"
        }
      ],
      "name": "__callback",
      "outputs": [],
      "payable": false,
      "stateMutability": "nonpayable",
      "type": "function"
    },
    {
      "constant": false,
      "inputs": [
        {
          "name": "_connected",
          "type": "string"
        }
      ],
      "name": "setPartnerBridge",
      "outputs": [],
      "payable": false,
      "stateMutability": "nonpayable",
      "type": "function"
    },
    {
      "constant": false,
      "inputs": [
        {
          "name": "_api",
          "type": "string"
        },
        {
          "name": "_params",
          "type": "string"
        }
      ],
      "name": "setAPI",
      "outputs": [],
      "payable": false,
      "stateMutability": "nonpayable",
      "type": "function"
    },
    {
      "constant": true,
      "inputs": [
        {
          "name": "_member_address",
          "type": "string"
        }
      ],
      "name": "createQuery_value",
      "outputs": [
        {
          "name": "",
          "type": "string"
        }
      ],
      "payable": false,
      "stateMutability": "view",
      "type": "function"
    },
    {
      "constant": false,
      "inputs": [
        {
          "name": "_former",
          "type": "address"
        }
      ],
      "name": "departingMember",
      "outputs": [
        {
          "name": "",
          "type": "uint256"
        }
      ],
      "payable": false,
      "stateMutability": "nonpayable",
      "type": "function"
    },
    {
      "constant": false,
      "inputs": [
        {
          "name": "_user",
          "type": "address"
        }
      ],
      "name": "getDeposit",
      "outputs": [
        {
          "name": "",
          "type": "uint256"
        }
      ],
      "payable": false,
      "stateMutability": "nonpayable",
      "type": "function"
    },
    {
      "constant": true,
      "inputs": [
        {
          "name": "code",
          "type": "bytes4"
        }
      ],
      "name": "fromCode",
      "outputs": [
        {
          "name": "",
          "type": "string"
        }
      ],
      "payable": false,
      "stateMutability": "view",
      "type": "function"
    }
  ],
  "bytecode": "0x6060604052341561000f57600080fd5b634fb9eda97c010000000000000000000000000000000000000000000000000000000002600a60146101000a81548163ffffffff02191690837c01000000000000000000000000000000000000000000000000000000009004021790555033600a60006101000a81548173ffffffffffffffffffffffffffffffffffffffff021916908373ffffffffffffffffffffffffffffffffffffffff160217905550612cab806100bd6000396000f3006060604052600436106100db576000357c0100000000000000000000000000000000000000000000000000000000900463ffffffff16806313af4035146100e057806322c22a201461011957806327dc297e146101a75780632c0ad2ad146102115780633059a2b4146102cc57806338bbfa50146103295780633950fd66146103d65780633a4b66f11461042857806342d4b041146104515780634fb9eda9146104f157806362fafc911461053e5780638da5cb5b14610614578063df6b972614610669578063e1254fba14610687578063f74c8c9c146106d4575b600080fd5b34156100eb57600080fd5b610117600480803573ffffffffffffffffffffffffffffffffffffffff169060200190919050506106fd565b005b341561012457600080fd5b61012c61079d565b6040518080602001828103825283818151815260200191508051906020019080838360005b8381101561016c578082015181840152602081019050610151565b50505050905090810190601f1680156101995780820380516001836020036101000a031916815260200191505b509250505060405180910390f35b34156101b257600080fd5b61020f60048080356000191690602001909190803590602001908201803590602001908080601f0160208091040260200160405190810160405280939291908181526020018383808284378201915050505050509190505061083b565b005b341561021c57600080fd5b61025160048080357bffffffffffffffffffffffffffffffffffffffffffffffffffffffff191690602001909190505061088e565b6040518080602001828103825283818151815260200191508051906020019080838360005b83811015610291578082015181840152602081019050610276565b50505050905090810190601f1680156102be5780820380516001836020036101000a031916815260200191505b509250505060405180910390f35b34156102d757600080fd5b610327600480803590602001908201803590602001908080601f01602080910402602001604051908101604052809392919081815260200183838082843782019150505050505091905050610b07565b005b341561033457600080fd5b6103d460048080356000191690602001909190803590602001908201803590602001908080601f0160208091040260200160405190810160405280939291908181526020018383808284378201915050505050509190803590602001908201803590602001908080601f01602080910402602001604051908101604052809392919081815260200183838082843782019150505050505091905050610bf1565b005b610426600480803590602001908201803590602001908080601f01602080910402602001604051908101604052809392919081815260200183838082843782019150505050505091905050610bf6565b005b341561043357600080fd5b61043b610e8f565b6040518082815260200191505060405180910390f35b341561045c57600080fd5b6104ef600480803590602001908201803590602001908080601f0160208091040260200160405190810160405280939291908181526020018383808284378201915050505050509190803590602001908201803590602001908080601f01602080910402602001604051908101604052809392919081815260200183838082843782019150505050505091905050610e95565b005b34156104fc57600080fd5b610528600480803573ffffffffffffffffffffffffffffffffffffffff16906020019091905050610f0c565b6040518082815260200191505060405180910390f35b341561054957600080fd5b610599600480803590602001908201803590602001908080601f01602080910402602001604051908101604052809392919081815260200183838082843782019150505050505091905050610f13565b6040518080602001828103825283818151815260200191508051906020019080838360005b838110156105d95780820151818401526020810190506105be565b50505050905090810190601f1680156106065780820380516001836020036101000a031916815260200191505b509250505060405180910390f35b341561061f57600080fd5b6106276110ef565b604051808273ffffffffffffffffffffffffffffffffffffffff1673ffffffffffffffffffffffffffffffffffffffff16815260200191505060405180910390f35b610671611115565b6040518082815260200191505060405180910390f35b341561069257600080fd5b6106be600480803573ffffffffffffffffffffffffffffffffffffffff169060200190919050506111da565b6040518082815260200191505060405180910390f35b34156106df57600080fd5b6106e7611223565b6040518082815260200191505060405180910390f35b600a60009054906101000a900473ffffffffffffffffffffffffffffffffffffffff1673ffffffffffffffffffffffffffffffffffffffff163373ffffffffffffffffffffffffffffffffffffffff1614151561075957600080fd5b80600a60006101000a81548173ffffffffffffffffffffffffffffffffffffffff021916908373ffffffffffffffffffffffffffffffffffffffff16021790555050565b60078054600181600116156101000203166002900480601f0160208091040260200160405190810160405280929190818152602001828054600181600116156101000203166002900480156108335780601f1061080857610100808354040283529160200191610833565b820191906000526020600020905b81548152906001019060200180831161081657829003601f168201915b505050505081565b6000610845611229565b73ffffffffffffffffffffffffffffffffffffffff163373ffffffffffffffffffffffffffffffffffffffff1614151561087e57600080fd5b61088782611518565b9050505050565b610896612bb2565b61089e612bc6565b6000600a6040518059106108af5750595b9080825280601f01601f191660200182016040525091507f30000000000000000000000000000000000000000000000000000000000000008260008151811015156108f657fe5b9060200101907effffffffffffffffffffffffffffffffffffffffffffffffffffffffffffff1916908160001a9053507f780000000000000000000000000000000000000000000000000000000000000082600181518110151561095657fe5b9060200101907effffffffffffffffffffffffffffffffffffffffffffffffffffffffffffff1916908160001a905350600090505b6004811015610afd576109ff601085836004811015156109a757fe5b1a7f0100000000000000000000000000000000000000000000000000000000000000027f0100000000000000000000000000000000000000000000000000000000000000900460ff168115156109f957fe5b0461152c565b8260028360020201815181101515610a1357fe5b9060200101907effffffffffffffffffffffffffffffffffffffffffffffffffffffffffffff1916908160001a905350610aae60108583600481101515610a5657fe5b1a7f0100000000000000000000000000000000000000000000000000000000000000027f0100000000000000000000000000000000000000000000000000000000000000900460ff16811515610aa857fe5b0661152c565b8260038360020201815181101515610ac257fe5b9060200101907effffffffffffffffffffffffffffffffffffffffffffffffffffffffffffff1916908160001a90535080600101905061098b565b8192505050919050565b600a60009054906101000a900473ffffffffffffffffffffffffffffffffffffffff1673ffffffffffffffffffffffffffffffffffffffff163373ffffffffffffffffffffffffffffffffffffffff16141515610b6357600080fd5b610bd86040805190810160405280600181526020017f2200000000000000000000000000000000000000000000000000000000000000815250826040805190810160405280600181526020017f2200000000000000000000000000000000000000000000000000000000000000815250611653565b60079080519060200190610bed929190612bda565b5050565b505050565b610bfe612bb2565b3073ffffffffffffffffffffffffffffffffffffffff16316002610c566040805190810160405280600381526020017f55524c0000000000000000000000000000000000000000000000000000000000815250611691565b021115610d16577f621c2856e3b87f81235f8ac8a22bbb40a0142961960710d00b2b6c380902b57e60405180806020018281038252604b8152602001807f4f7261636c697a6520717565727920776173204e4f542073656e742c20706c6581526020017f6173652061646420736f6d652045544820746f20636f76657220666f7220746881526020017f652071756572792066656500000000000000000000000000000000000000000081525060600191505060405180910390a1610e8b565b7f621c2856e3b87f81235f8ac8a22bbb40a0142961960710d00b2b6c380902b57e60405180806020018281038252602a8152602001807f4f7261636c697a65207175657279207761732073656e7420666f72206c6f636b81526020017f65642062616c616e63650000000000000000000000000000000000000000000081525060400191505060405180910390a1610dad82610f13565b9050610e896040805190810160405280600381526020017f55524c000000000000000000000000000000000000000000000000000000000081525060088054600181600116156101000203166002900480601f016020809104026020016040519081016040528092919081815260200182805460018160011615610100020316600290048015610e7e5780601f10610e5357610100808354040283529160200191610e7e565b820191906000526020600020905b815481529060010190602001808311610e6157829003601f168201915b5050505050836119f2565b505b5050565b600b5481565b600a60009054906101000a900473ffffffffffffffffffffffffffffffffffffffff1673ffffffffffffffffffffffffffffffffffffffff163373ffffffffffffffffffffffffffffffffffffffff16141515610ef157600080fd5b8160089080519060200190610f07929190612bda565b505050565b6000919050565b610f1b612bb2565b610f23612bb2565b610f2b612bb2565b610f33612bb2565b610f70610f6a600a60149054906101000a90047c01000000000000000000000000000000000000000000000000000000000261088e565b86611f6e565b9250606060405190810160405280603e81526020017f207b226a736f6e727063223a22322e30222c226964223a36302c226d6574686f81526020017f64223a226574685f63616c6c222c22706172616d73223a5b7b22746f223a000081525091506110e28260078054600181600116156101000203166002900480601f01602080910402602001604051908101604052809291908181526020018280546001816001161561010002031660029004801561106b5780601f106110405761010080835404028352916020019161106b565b820191906000526020600020905b81548152906001019060200180831161104e57829003601f168201915b50505050506040805190810160405280600981526020017f2c2264617461223a220000000000000000000000000000000000000000000000815250866040805190810160405280600d81526020017f227d2c226c6174657374225d7d00000000000000000000000000000000000000815250611fbb565b9050809350505050919050565b600a60009054906101000a900473ffffffffffffffffffffffffffffffffffffffff1681565b6000600b5434148015611178575060001515600d60003373ffffffffffffffffffffffffffffffffffffffff1673ffffffffffffffffffffffffffffffffffffffff16815260200190815260200160002060009054906101000a900460ff161515145b151561118357600080fd5b34600c60003373ffffffffffffffffffffffffffffffffffffffff1673ffffffffffffffffffffffffffffffffffffffff168152602001908152602001600020819055503460056000828254019250508190555090565b6000600c60008373ffffffffffffffffffffffffffffffffffffffff1673ffffffffffffffffffffffffffffffffffffffff168152602001908152602001600020549050919050565b60055481565b6000806000809054906101000a900473ffffffffffffffffffffffffffffffffffffffff1673ffffffffffffffffffffffffffffffffffffffff161480611299575060006112976000809054906101000a900473ffffffffffffffffffffffffffffffffffffffff166123f3565b145b156112aa576112a860006123fe565b505b6000809054906101000a900473ffffffffffffffffffffffffffffffffffffffff1673ffffffffffffffffffffffffffffffffffffffff166338cc48316040518163ffffffff167c0100000000000000000000000000000000000000000000000000000000028152600401602060405180830381600087803b151561132e57600080fd5b5af1151561133b57600080fd5b5050506040518051905073ffffffffffffffffffffffffffffffffffffffff16600160009054906101000a900473ffffffffffffffffffffffffffffffffffffffff1673ffffffffffffffffffffffffffffffffffffffff16141515611477576000809054906101000a900473ffffffffffffffffffffffffffffffffffffffff1673ffffffffffffffffffffffffffffffffffffffff166338cc48316040518163ffffffff167c0100000000000000000000000000000000000000000000000000000000028152600401602060405180830381600087803b151561141f57600080fd5b5af1151561142c57600080fd5b50505060405180519050600160006101000a81548173ffffffffffffffffffffffffffffffffffffffff021916908373ffffffffffffffffffffffffffffffffffffffff1602179055505b600160009054906101000a900473ffffffffffffffffffffffffffffffffffffffff1673ffffffffffffffffffffffffffffffffffffffff1663c281d19e6040518163ffffffff167c0100000000000000000000000000000000000000000000000000000000028152600401602060405180830381600087803b15156114fc57600080fd5b5af1151561150957600080fd5b50505060405180519050905090565b600061152582600061240f565b9050919050565b60008160ff16600011158015611546575060098260ff1611155b156115ba57817f30000000000000000000000000000000000000000000000000000000000000007f01000000000000000000000000000000000000000000000000000000000000009004017f010000000000000000000000000000000000000000000000000000000000000002905061164e565b8160ff16600a111580156115d25750600f8260ff1611155b1561164957600a827f61000000000000000000000000000000000000000000000000000000000000007f0100000000000000000000000000000000000000000000000000000000000000900401037f010000000000000000000000000000000000000000000000000000000000000002905061164e565b600080fd5b919050565b61165b612bb2565b61168884848460206040519081016040528060008152506020604051908101604052806000815250611fbb565b90509392505050565b6000806000809054906101000a900473ffffffffffffffffffffffffffffffffffffffff1673ffffffffffffffffffffffffffffffffffffffff161480611701575060006116ff6000809054906101000a900473ffffffffffffffffffffffffffffffffffffffff166123f3565b145b156117125761171060006123fe565b505b6000809054906101000a900473ffffffffffffffffffffffffffffffffffffffff1673ffffffffffffffffffffffffffffffffffffffff166338cc48316040518163ffffffff167c0100000000000000000000000000000000000000000000000000000000028152600401602060405180830381600087803b151561179657600080fd5b5af115156117a357600080fd5b5050506040518051905073ffffffffffffffffffffffffffffffffffffffff16600160009054906101000a900473ffffffffffffffffffffffffffffffffffffffff1673ffffffffffffffffffffffffffffffffffffffff161415156118df576000809054906101000a900473ffffffffffffffffffffffffffffffffffffffff1673ffffffffffffffffffffffffffffffffffffffff166338cc48316040518163ffffffff167c0100000000000000000000000000000000000000000000000000000000028152600401602060405180830381600087803b151561188757600080fd5b5af1151561189457600080fd5b50505060405180519050600160006101000a81548173ffffffffffffffffffffffffffffffffffffffff021916908373ffffffffffffffffffffffffffffffffffffffff1602179055505b600160009054906101000a900473ffffffffffffffffffffffffffffffffffffffff1673ffffffffffffffffffffffffffffffffffffffff1663524f3889836040518263ffffffff167c01000000000000000000000000000000000000000000000000000000000281526004018080602001828103825283818151815260200191508051906020019080838360005b8381101561198957808201518184015260208101905061196e565b50505050905090810190601f1680156119b65780820380516001836020036101000a031916815260200191505b5092505050602060405180830381600087803b15156119d457600080fd5b5af115156119e157600080fd5b505050604051805190509050919050565b60008060008060009054906101000a900473ffffffffffffffffffffffffffffffffffffffff1673ffffffffffffffffffffffffffffffffffffffff161480611a6457506000611a626000809054906101000a900473ffffffffffffffffffffffffffffffffffffffff166123f3565b145b15611a7557611a7360006123fe565b505b6000809054906101000a900473ffffffffffffffffffffffffffffffffffffffff1673ffffffffffffffffffffffffffffffffffffffff166338cc48316040518163ffffffff167c0100000000000000000000000000000000000000000000000000000000028152600401602060405180830381600087803b1515611af957600080fd5b5af11515611b0657600080fd5b5050506040518051905073ffffffffffffffffffffffffffffffffffffffff16600160009054906101000a900473ffffffffffffffffffffffffffffffffffffffff1673ffffffffffffffffffffffffffffffffffffffff16141515611c42576000809054906101000a900473ffffffffffffffffffffffffffffffffffffffff1673ffffffffffffffffffffffffffffffffffffffff166338cc48316040518163ffffffff167c0100000000000000000000000000000000000000000000000000000000028152600401602060405180830381600087803b1515611bea57600080fd5b5af11515611bf757600080fd5b50505060405180519050600160006101000a81548173ffffffffffffffffffffffffffffffffffffffff021916908373ffffffffffffffffffffffffffffffffffffffff1602179055505b600160009054906101000a900473ffffffffffffffffffffffffffffffffffffffff1673ffffffffffffffffffffffffffffffffffffffff1663524f3889866040518263ffffffff167c01000000000000000000000000000000000000000000000000000000000281526004018080602001828103825283818151815260200191508051906020019080838360005b83811015611cec578082015181840152602081019050611cd1565b50505050905090810190601f168015611d195780820380516001836020036101000a031916815260200191505b5092505050602060405180830381600087803b1515611d3757600080fd5b5af11515611d4457600080fd5b50505060405180519050905062030d403a02670de0b6b3a764000001811115611d735760006001029150611f66565b600160009054906101000a900473ffffffffffffffffffffffffffffffffffffffff1673ffffffffffffffffffffffffffffffffffffffff1663772286598260008888886040518663ffffffff167c010000000000000000000000000000000000000000000000000000000002815260040180858152602001806020018060200180602001848103845287818151815260200191508051906020019080838360005b83811015611e30578082015181840152602081019050611e15565b50505050905090810190601f168015611e5d5780820380516001836020036101000a031916815260200191505b50848103835286818151815260200191508051906020019080838360005b83811015611e96578082015181840152602081019050611e7b565b50505050905090810190601f168015611ec35780820380516001836020036101000a031916815260200191505b50848103825285818151815260200191508051906020019080838360005b83811015611efc578082015181840152602081019050611ee1565b50505050905090810190601f168015611f295780820380516001836020036101000a031916815260200191505b509750505050505050506020604051808303818588803b1515611f4b57600080fd5b5af11515611f5857600080fd5b505050506040518051905091505b509392505050565b611f76612bb2565b611fb38383602060405190810160405280600081525060206040519081016040528060008152506020604051908101604052806000815250611fbb565b905092915050565b611fc3612bb2565b611fcb612bc6565b611fd3612bc6565b611fdb612bc6565b611fe3612bc6565b611feb612bc6565b611ff3612bb2565b611ffb612bc6565b6000808e98508d97508c96508b95508a94508451865188518a518c51010101016040518059106120285750595b9080825280601f01601f1916602001820160405250935083925060009150600090505b88518110156120fe57888181518110151561206257fe5b9060200101517f010000000000000000000000000000000000000000000000000000000000000090047f01000000000000000000000000000000000000000000000000000000000000000283838060010194508151811015156120c157fe5b9060200101907effffffffffffffffffffffffffffffffffffffffffffffffffffffffffffff1916908160001a905350808060010191505061204b565b600090505b87518110156121b657878181518110151561211a57fe5b9060200101517f010000000000000000000000000000000000000000000000000000000000000090047f010000000000000000000000000000000000000000000000000000000000000002838380600101945081518110151561217957fe5b9060200101907effffffffffffffffffffffffffffffffffffffffffffffffffffffffffffff1916908160001a9053508080600101915050612103565b600090505b865181101561226e5786818151811015156121d257fe5b9060200101517f010000000000000000000000000000000000000000000000000000000000000090047f010000000000000000000000000000000000000000000000000000000000000002838380600101945081518110151561223157fe5b9060200101907effffffffffffffffffffffffffffffffffffffffffffffffffffffffffffff1916908160001a90535080806001019150506121bb565b600090505b855181101561232657858181518110151561228a57fe5b9060200101517f010000000000000000000000000000000000000000000000000000000000000090047f01000000000000000000000000000000000000000000000000000000000000000283838060010194508151811015156122e957fe5b9060200101907effffffffffffffffffffffffffffffffffffffffffffffffffffffffffffff1916908160001a9053508080600101915050612273565b600090505b84518110156123de57848181518110151561234257fe5b9060200101517f010000000000000000000000000000000000000000000000000000000000000090047f01000000000000000000000000000000000000000000000000000000000000000283838060010194508151811015156123a157fe5b9060200101907effffffffffffffffffffffffffffffffffffffffffffffffffffffffffffff1916908160001a905350808060010191505061232b565b82995050505050505050505095945050505050565b6000813b9050919050565b6000612408612709565b9050919050565b6000612419612bc6565b60008060008693506000925060009150600090505b83518110156126ea5760307f010000000000000000000000000000000000000000000000000000000000000002848281518110151561246957fe5b9060200101517f010000000000000000000000000000000000000000000000000000000000000090047f0100000000000000000000000000000000000000000000000000000000000000027effffffffffffffffffffffffffffffffffffffffffffffffffffffffffffff191610158015612581575060397f010000000000000000000000000000000000000000000000000000000000000002848281518110151561251157fe5b9060200101517f010000000000000000000000000000000000000000000000000000000000000090047f0100000000000000000000000000000000000000000000000000000000000000027effffffffffffffffffffffffffffffffffffffffffffffffffffffffffffff191611155b156126325781156125a457600086141561259a576126ea565b8580600190039650505b600a83029250603084828151811015156125ba57fe5b9060200101517f010000000000000000000000000000000000000000000000000000000000000090047f0100000000000000000000000000000000000000000000000000000000000000027f0100000000000000000000000000000000000000000000000000000000000000900403830192506126dd565b602e7f010000000000000000000000000000000000000000000000000000000000000002848281518110151561266457fe5b9060200101517f010000000000000000000000000000000000000000000000000000000000000090047f0100000000000000000000000000000000000000000000000000000000000000027effffffffffffffffffffffffffffffffffffffffffffffffffffffffffffff191614156126dc57600191505b5b808060010191505061242e565b60008611156126fc5785600a0a830292505b8294505050505092915050565b600080612729731d3b2638a7cc9f2cb3d298a3da7a90b67e5506ed6123f3565b11156127ca57731d3b2638a7cc9f2cb3d298a3da7a90b67e5506ed6000806101000a81548173ffffffffffffffffffffffffffffffffffffffff021916908373ffffffffffffffffffffffffffffffffffffffff1602179055506127c16040805190810160405280600b81526020017f6574685f6d61696e6e6574000000000000000000000000000000000000000000815250612b98565b60019050612b95565b60006127e973c03a2615d5efaf5f49f60b7bb6583eaec212fdf16123f3565b111561288a5773c03a2615d5efaf5f49f60b7bb6583eaec212fdf16000806101000a81548173ffffffffffffffffffffffffffffffffffffffff021916908373ffffffffffffffffffffffffffffffffffffffff1602179055506128816040805190810160405280600c81526020017f6574685f726f707374656e330000000000000000000000000000000000000000815250612b98565b60019050612b95565b60006128a973b7a07bcf2ba2f2703b24c0691b5278999c59ac7e6123f3565b111561294a5773b7a07bcf2ba2f2703b24c0691b5278999c59ac7e6000806101000a81548173ffffffffffffffffffffffffffffffffffffffff021916908373ffffffffffffffffffffffffffffffffffffffff1602179055506129416040805190810160405280600981526020017f6574685f6b6f76616e0000000000000000000000000000000000000000000000815250612b98565b60019050612b95565b600061296973146500cfd35b22e4a392fe0adc06de1a1368ed486123f3565b1115612a0a5773146500cfd35b22e4a392fe0adc06de1a1368ed486000806101000a81548173ffffffffffffffffffffffffffffffffffffffff021916908373ffffffffffffffffffffffffffffffffffffffff160217905550612a016040805190810160405280600b81526020017f6574685f72696e6b656279000000000000000000000000000000000000000000815250612b98565b60019050612b95565b6000612a29736f485c8bf6fc43ea212e93bbf8ce046c7f1cb4756123f3565b1115612a8c57736f485c8bf6fc43ea212e93bbf8ce046c7f1cb4756000806101000a81548173ffffffffffffffffffffffffffffffffffffffff021916908373ffffffffffffffffffffffffffffffffffffffff16021790555060019050612b95565b6000612aab7320e12a1f859b3feae5fb2a0a32c18f5a65555bbf6123f3565b1115612b0e577320e12a1f859b3feae5fb2a0a32c18f5a65555bbf6000806101000a81548173ffffffffffffffffffffffffffffffffffffffff021916908373ffffffffffffffffffffffffffffffffffffffff16021790555060019050612b95565b6000612b2d7351efaf4c8b3c9afbd5ab9f4bbc82784ab6ef8faa6123f3565b1115612b90577351efaf4c8b3c9afbd5ab9f4bbc82784ab6ef8faa6000806101000a81548173ffffffffffffffffffffffffffffffffffffffff021916908373ffffffffffffffffffffffffffffffffffffffff16021790555060019050612b95565b600090505b90565b8060029080519060200190612bae929190612bda565b5050565b602060405190810160405280600081525090565b602060405190810160405280600081525090565b828054600181600116156101000203166002900490600052602060002090601f016020900481019282601f10612c1b57805160ff1916838001178555612c49565b82800160010185558215612c49579182015b82811115612c48578251825591602001919060010190612c2d565b5b509050612c569190612c5a565b5090565b612c7c91905b80821115612c78576000816000905550600101612c60565b5090565b905600a165627a7a72305820b055f72b940cf98e48c7dbe483ddcc36f1ba844deea5f418ba14de86263dff710029",
  "source": "pragma solidity ^0.4.21;\r\n\r\nimport \"./libraries/SafeMath.sol\";\r\nimport \"./Oraclize/Oraclize_API.sol\";\r\n\r\n\r\n\r\n//This is the basic wrapped Ether to a different chain contract. \r\n//All money deposited is transformed into ERC20 tokens at the rate of 1 wei = 1 token\r\n  /*You push money when you transfer (delete money here).  If it doesn't go through, you can check to see if transfer ID went through\r\n  --How do we deal with livliness assumption? (do we?)\r\n-We need to add ERC20 functionality to represent the Ether transferred from the other contract\r\n  */\r\ncontract Bridge is usingOraclize{\r\n\r\n  using SafeMath for uint256;\r\n\r\n  /***VARIABLES***/\r\n  uint public total_deposited_supply;\r\n  uint transNonce;\r\n  string public partnerBridge; //address of bridge contract on other chain\r\n  string api;\r\n  string parameters;\r\n  address public owner;\r\n  bytes4 private method_data;\r\n  uint public stake;\r\n\r\n  /***STORAGE***/\r\n  mapping(address => uint) deposited_balances;\r\n  mapping(address => bool) members;\r\n\r\n  /***EVENTS***/\r\n  event JoinedBookClub(address _from, uint _value);\r\n  event LogUpdated(string value);\r\n  event LogNewOraclizeQuery(string description);\r\n  /***FUNCTIONS***/\r\n\r\n  function Bridge() public {\r\n       method_data = this.departingMember.selector;\r\n       owner = msg.sender;\r\n  }\r\n \r\n  /***MODIFIERS***/\r\n  /// @dev Access modifier for Owner functionality\r\n  modifier onlyOwner() {\r\n      require(msg.sender == owner);\r\n      _;\r\n  }\r\n\r\n  function setOwner (address _owner) public onlyOwner(){\r\n    owner = _owner;\r\n  }\r\n\r\n\r\n  function joinBookClub() payable public returns(uint){\r\n    require(msg.value == stake && members[msg.sender] == false);\r\n    deposited_balances[msg.sender] = msg.value;\r\n    total_deposited_supply += msg.value;\r\n  }\r\n\r\n\r\n    //we need to append address to end of data_string\r\n\r\n  function checkChild(string _transferId) public payable{\r\n      if (oraclize_getPrice(\"URL\") * 2  > address(this).balance) {\r\n          emit LogNewOraclizeQuery(\"Oraclize query was NOT sent, please add some ETH to cover for the query fee\");\r\n      } else {\r\n          emit LogNewOraclizeQuery(\"Oraclize query was sent for locked balance\");\r\n          string memory _parameters  = createQuery_value(_transferId);\r\n          oraclize_query(\"URL\",api, _parameters);\r\n          //oraclize_query(\"URL\",\"json(https://ropsten.infura.io/).result\",'{\"jsonrpc\":\"2.0\",\"id\":3,\"method\":\"eth_call\",\"params\":[{\"to\":\"0x76a83b371ab7232706eac16edf2b726f3a2dbe82\",\"data\":\"0xad3b80a8\"}, \"latest\"]}');\r\n   }\r\n  }\r\n\r\n   function __callback(bytes32 myid, string result) public {\r\n        require (msg.sender == oraclize_cbAddress());\r\n        uint _res = parseInt(result);\r\n\r\n    }\r\n\r\n  function setPartnerBridge(string _connected) public onlyOwner(){\r\n    partnerBridge = strConcat('\"',_connected,'\"');\r\n  }\r\n\r\n\r\n  //try: \"json(https://localhost:8545).result\"\r\n  function setAPI(string _api, string _params) public onlyOwner(){\r\n      api = _api; //\"json(https://ropsten.infura.io/).result\"\r\n    }\r\n\r\n    //can make internal once it works\r\n    //check id (60 is an open, so we can try it)\r\n    function createQuery_value(string _member_address) public constant returns(string){\r\n      string memory _code = strConcat(fromCode(method_data),_member_address);\r\n      string memory _part = ' {\"jsonrpc\":\"2.0\",\"id\":60,\"method\":\"eth_call\",\"params\":[{\"to\":';\r\n      string memory _params2 = strConcat(_part,partnerBridge,',\"data\":\"',_code,'\"},\"latest\"]}');\r\n      return _params2;\r\n    }\r\n\r\n\r\n  function departingMember(address _former) public returns(uint){\r\n  }\r\n\r\n  function getDeposit(address _user) public returns(uint){\r\n    return deposited_balances[_user];\r\n  }\r\n\r\n  function fromCode(bytes4 code) public view returns (string) {                                                                                    \r\n    bytes memory result = new bytes(10);                                                                                                         \r\n    result[0] = byte('0');\r\n    result[1] = byte('x');\r\n    for (uint i=0; i<4; ++i) {\r\n        result[2*i+2] = toHexDigit(uint8(code[i])/16);\r\n        result[2*i+3] = toHexDigit(uint8(code[i])%16);\r\n    }\r\n    return string(result);\r\n}\r\n\r\n    function toHexDigit(uint8 d) pure internal returns (byte) {                                                                                      \r\n    if (0 <= d && d <= 9) {                                                                                                                      \r\n        return byte(uint8(byte('0')) + d);                                                                                                       \r\n    } else if (10 <= uint8(d) && uint8(d) <= 15) {                                                                                               \r\n        return byte(uint8(byte('a')) + d - 10);                                                                                                  \r\n    }                                                                                                                                            \r\n    revert();                                                                                                                                    \r\n}                                                                                                                                                \r\n\r\n}\r\n",
  "sourcePath": "C:\\Nick\\hackital\\ethereumBookClub\\contracts\\Bridge.sol",
  "compiler": {
    "name": "solc",
    "version": "0.4.21+commit.dfe3193c.Emscripten.clang"
  },
  "schemaVersion": "2.0.0",
  "updatedAt": "2018-04-28T18:45:34.027Z"
}