{
  "contractName": "Bridge",
  "abi": [
    {
      "constant": true,
      "inputs": [],
      "name": "partnerBridge",
      "outputs": [
        {
          "name": "",
          "type": "string"
        }
      ],
      "payable": false,
      "stateMutability": "view",
      "type": "function"
    },
    {
      "constant": true,
      "inputs": [],
      "name": "stake",
      "outputs": [
        {
          "name": "",
          "type": "uint256"
        }
      ],
      "payable": false,
      "stateMutability": "view",
      "type": "function"
    },
    {
      "constant": true,
      "inputs": [],
      "name": "owner",
      "outputs": [
        {
          "name": "",
          "type": "address"
        }
      ],
      "payable": false,
      "stateMutability": "view",
      "type": "function"
    },
    {
      "constant": true,
      "inputs": [],
      "name": "total_deposited_supply",
      "outputs": [
        {
          "name": "",
          "type": "uint256"
        }
      ],
      "payable": false,
      "stateMutability": "view",
      "type": "function"
    },
    {
      "inputs": [],
      "payable": false,
      "stateMutability": "nonpayable",
      "type": "constructor"
    },
    {
      "anonymous": false,
      "inputs": [
        {
          "indexed": false,
          "name": "_from",
          "type": "address"
        }
      ],
      "name": "JoinedBookClub",
      "type": "event"
    },
    {
      "anonymous": false,
      "inputs": [
        {
          "indexed": false,
          "name": "value",
          "type": "string"
        }
      ],
      "name": "LogUpdated",
      "type": "event"
    },
    {
      "anonymous": false,
      "inputs": [
        {
          "indexed": false,
          "name": "description",
          "type": "string"
        }
      ],
      "name": "LogNewOraclizeQuery",
      "type": "event"
    },
    {
      "constant": false,
      "inputs": [
        {
          "name": "_fee",
          "type": "uint256"
        }
      ],
      "name": "setFee",
      "outputs": [],
      "payable": false,
      "stateMutability": "nonpayable",
      "type": "function"
    },
    {
      "constant": false,
      "inputs": [
        {
          "name": "_owner",
          "type": "address"
        }
      ],
      "name": "setOwner",
      "outputs": [],
      "payable": false,
      "stateMutability": "nonpayable",
      "type": "function"
    },
    {
      "constant": true,
      "inputs": [
        {
          "name": "_user",
          "type": "address"
        }
      ],
      "name": "isMember",
      "outputs": [
        {
          "name": "",
          "type": "bool"
        }
      ],
      "payable": false,
      "stateMutability": "view",
      "type": "function"
    },
    {
      "constant": false,
      "inputs": [],
      "name": "joinBookClub",
      "outputs": [
        {
          "name": "",
          "type": "uint256"
        }
      ],
      "payable": true,
      "stateMutability": "payable",
      "type": "function"
    },
    {
      "constant": false,
      "inputs": [
        {
          "name": "_user",
          "type": "address"
        }
      ],
      "name": "checkChild",
      "outputs": [],
      "payable": true,
      "stateMutability": "payable",
      "type": "function"
    },
    {
      "constant": false,
      "inputs": [
        {
          "name": "myid",
          "type": "bytes32"
        },
        {
          "name": "result",
          "type": "string"
        },
        {
          "name": "proof",
          "type": "bytes"
        }
      ],
      "name": "__callback",
      "outputs": [],
      "payable": false,
      "stateMutability": "nonpayable",
      "type": "function"
    },
    {
      "constant": false,
      "inputs": [
        {
          "name": "myId",
          "type": "bytes32"
        },
        {
          "name": "result",
          "type": "string"
        }
      ],
      "name": "__callback",
      "outputs": [],
      "payable": false,
      "stateMutability": "nonpayable",
      "type": "function"
    },
    {
      "constant": false,
      "inputs": [
        {
          "name": "_connected",
          "type": "string"
        }
      ],
      "name": "setPartnerBridge",
      "outputs": [],
      "payable": false,
      "stateMutability": "nonpayable",
      "type": "function"
    },
    {
      "constant": false,
      "inputs": [
        {
          "name": "_api",
          "type": "string"
        }
      ],
      "name": "setAPI",
      "outputs": [],
      "payable": false,
      "stateMutability": "nonpayable",
      "type": "function"
    },
    {
      "constant": true,
      "inputs": [
        {
          "name": "_member_address",
          "type": "string"
        }
      ],
      "name": "createQuery_value",
      "outputs": [
        {
          "name": "",
          "type": "string"
        }
      ],
      "payable": false,
      "stateMutability": "view",
      "type": "function"
    },
    {
      "constant": false,
      "inputs": [
        {
          "name": "_user",
          "type": "address"
        }
      ],
      "name": "getDeposit",
      "outputs": [
        {
          "name": "",
          "type": "uint256"
        }
      ],
      "payable": false,
      "stateMutability": "nonpayable",
      "type": "function"
    },
    {
      "constant": false,
      "inputs": [
        {
          "name": "_former",
          "type": "address"
        }
      ],
      "name": "departingMember",
      "outputs": [
        {
          "name": "",
          "type": "uint256"
        }
      ],
      "payable": false,
      "stateMutability": "nonpayable",
      "type": "function"
    },
    {
      "constant": true,
      "inputs": [
        {
          "name": "code",
          "type": "bytes4"
        }
      ],
      "name": "fromCode",
      "outputs": [
        {
          "name": "",
          "type": "string"
        }
      ],
      "payable": false,
      "stateMutability": "view",
      "type": "function"
    },
    {
      "constant": false,
      "inputs": [
        {
          "name": "x",
          "type": "address"
        }
      ],
      "name": "toAsciiString",
      "outputs": [
        {
          "name": "",
          "type": "string"
        }
      ],
      "payable": false,
      "stateMutability": "nonpayable",
      "type": "function"
    }
  ],
  "bytecode": "0x606060405234156200001057600080fd5b634fb9eda97c010000000000000000000000000000000000000000000000000000000002600960146101000a81548163ffffffff02191690837c01000000000000000000000000000000000000000000000000000000009004021790555033600960006101000a81548173ffffffffffffffffffffffffffffffffffffffff021916908373ffffffffffffffffffffffffffffffffffffffff1602179055506200012a606060405190810160405280602781526020017f6a736f6e2868747470733a2f2f72696e6b6562792e696e667572612e696f2f2981526020017f2e726573756c7400000000000000000000000000000000000000000000000000815250620001306401000000000262001444176401000000009004565b62000258565b600960009054906101000a900473ffffffffffffffffffffffffffffffffffffffff1673ffffffffffffffffffffffffffffffffffffffff163373ffffffffffffffffffffffffffffffffffffffff161415156200018d57600080fd5b8060089080519060200190620001a5929190620001a9565b5050565b828054600181600116156101000203166002900490600052602060002090601f016020900481019282601f10620001ec57805160ff19168380011785556200021d565b828001600101855582156200021d579182015b828111156200021c578251825591602001919060010190620001ff565b5b5090506200022c919062000230565b5090565b6200025591905b808211156200025157600081600090555060010162000237565b5090565b90565b61322180620002686000396000f3006060604052600436106100fc576000357c0100000000000000000000000000000000000000000000000000000000900463ffffffff16806313af40351461010157806322c22a201461013a57806327dc297e146101c85780632c0ad2ad146102325780632c6e7598146102ed5780633059a2b41461039f57806338bbfa50146103fc5780633a4b66f1146104a957806346360b4f146104d25780634fb9eda91461050057806362fafc911461054d578063696cf2a01461062357806369fe0e2d146106805780638da5cb5b146106a3578063a230c524146106f8578063df6b972614610749578063e1254fba14610767578063f74c8c9c146107b4575b600080fd5b341561010c57600080fd5b610138600480803573ffffffffffffffffffffffffffffffffffffffff169060200190919050506107dd565b005b341561014557600080fd5b61014d61087d565b6040518080602001828103825283818151815260200191508051906020019080838360005b8381101561018d578082015181840152602081019050610172565b50505050905090810190601f1680156101ba5780820380516001836020036101000a031916815260200191505b509250505060405180910390f35b34156101d357600080fd5b61023060048080356000191690602001909190803590602001908201803590602001908080601f0160208091040260200160405190810160405280939291908181526020018383808284378201915050505050509190505061091b565b005b341561023d57600080fd5b61027260048080357bffffffffffffffffffffffffffffffffffffffffffffffffffffffff19169060200190919050506109fa565b6040518080602001828103825283818151815260200191508051906020019080838360005b838110156102b2578082015181840152602081019050610297565b50505050905090810190601f1680156102df5780820380516001836020036101000a031916815260200191505b509250505060405180910390f35b34156102f857600080fd5b610324600480803573ffffffffffffffffffffffffffffffffffffffff16906020019091905050610c73565b6040518080602001828103825283818151815260200191508051906020019080838360005b83811015610364578082015181840152602081019050610349565b50505050905090810190601f1680156103915780820380516001836020036101000a031916815260200191505b509250505060405180910390f35b34156103aa57600080fd5b6103fa600480803590602001908201803590602001908080601f01602080910402602001604051908101604052809392919081815260200183838082843782019150505050505091905050610e84565b005b341561040757600080fd5b6104a760048080356000191690602001909190803590602001908201803590602001908080601f0160208091040260200160405190810160405280939291908181526020018383808284378201915050505050509190803590602001908201803590602001908080601f01602080910402602001604051908101604052809392919081815260200183838082843782019150505050505091905050610f6e565b005b34156104b457600080fd5b6104bc610f73565b6040518082815260200191505060405180910390f35b6104fe600480803573ffffffffffffffffffffffffffffffffffffffff16906020019091905050610f79565b005b341561050b57600080fd5b610537600480803573ffffffffffffffffffffffffffffffffffffffff16906020019091905050611261565b6040518082815260200191505060405180910390f35b341561055857600080fd5b6105a8600480803590602001908201803590602001908080601f01602080910402602001604051908101604052809392919081815260200183838082843782019150505050505091905050611268565b6040518080602001828103825283818151815260200191508051906020019080838360005b838110156105e85780820151818401526020810190506105cd565b50505050905090810190601f1680156106155780820380516001836020036101000a031916815260200191505b509250505060405180910390f35b341561062e57600080fd5b61067e600480803590602001908201803590602001908080601f01602080910402602001604051908101604052809392919081815260200183838082843782019150505050505091905050611444565b005b341561068b57600080fd5b6106a160048080359060200190919050506114ba565b005b34156106ae57600080fd5b6106b6611520565b604051808273ffffffffffffffffffffffffffffffffffffffff1673ffffffffffffffffffffffffffffffffffffffff16815260200191505060405180910390f35b341561070357600080fd5b61072f600480803573ffffffffffffffffffffffffffffffffffffffff16906020019091905050611546565b604051808215151515815260200191505060405180910390f35b6107516115a3565b6040518082815260200191505060405180910390f35b341561077257600080fd5b61079e600480803573ffffffffffffffffffffffffffffffffffffffff16906020019091905050611660565b6040518082815260200191505060405180910390f35b34156107bf57600080fd5b6107c76116a9565b6040518082815260200191505060405180910390f35b600960009054906101000a900473ffffffffffffffffffffffffffffffffffffffff1673ffffffffffffffffffffffffffffffffffffffff163373ffffffffffffffffffffffffffffffffffffffff1614151561083957600080fd5b80600960006101000a81548173ffffffffffffffffffffffffffffffffffffffff021916908373ffffffffffffffffffffffffffffffffffffffff16021790555050565b60078054600181600116156101000203166002900480601f0160208091040260200160405190810160405280929190818152602001828054600181600116156101000203166002900480156109135780601f106108e857610100808354040283529160200191610913565b820191906000526020600020905b8154815290600101906020018083116108f657829003601f168201915b505050505081565b6000806109266116af565b73ffffffffffffffffffffffffffffffffffffffff163373ffffffffffffffffffffffffffffffffffffffff1614151561095f57600080fd5b6109688361199e565b915060018214156109f457600c6000856000191660001916815260200190815260200160002060009054906101000a900473ffffffffffffffffffffffffffffffffffffffff1690508073ffffffffffffffffffffffffffffffffffffffff166108fc600a549081150290604051600060405180830381858888f1935050505015156109f357600080fd5b5b50505050565b610a02613128565b610a0a61313c565b6000600a604051805910610a1b5750595b9080825280601f01601f191660200182016040525091507f3000000000000000000000000000000000000000000000000000000000000000826000815181101515610a6257fe5b9060200101907effffffffffffffffffffffffffffffffffffffffffffffffffffffffffffff1916908160001a9053507f7800000000000000000000000000000000000000000000000000000000000000826001815181101515610ac257fe5b9060200101907effffffffffffffffffffffffffffffffffffffffffffffffffffffffffffff1916908160001a905350600090505b6004811015610c6957610b6b60108583600481101515610b1357fe5b1a7f0100000000000000000000000000000000000000000000000000000000000000027f0100000000000000000000000000000000000000000000000000000000000000900460ff16811515610b6557fe5b046119b2565b8260028360020201815181101515610b7f57fe5b9060200101907effffffffffffffffffffffffffffffffffffffffffffffffffffffffffffff1916908160001a905350610c1a60108583600481101515610bc257fe5b1a7f0100000000000000000000000000000000000000000000000000000000000000027f0100000000000000000000000000000000000000000000000000000000000000900460ff16811515610c1457fe5b066119b2565b8260038360020201815181101515610c2e57fe5b9060200101907effffffffffffffffffffffffffffffffffffffffffffffffffffffffffffff1916908160001a905350806001019050610af7565b8192505050919050565b610c7b613128565b610c8361313c565b6000806000806028604051805910610c985750595b9080825280601f01601f19166020018201604052509450600093505b6014841015610e77578360130360080260020a8773ffffffffffffffffffffffffffffffffffffffff16811515610ce757fe5b047f01000000000000000000000000000000000000000000000000000000000000000292506010837f0100000000000000000000000000000000000000000000000000000000000000900460ff16811515610d3e57fe5b047f0100000000000000000000000000000000000000000000000000000000000000029150817f01000000000000000000000000000000000000000000000000000000000000009004601002837f01000000000000000000000000000000000000000000000000000000000000009004037f0100000000000000000000000000000000000000000000000000000000000000029050610ddc82611ad9565b8585600202815181101515610ded57fe5b9060200101907effffffffffffffffffffffffffffffffffffffffffffffffffffffffffffff1916908160001a905350610e2681611ad9565b8560018660020201815181101515610e3a57fe5b9060200101907effffffffffffffffffffffffffffffffffffffffffffffffffffffffffffff1916908160001a9053508380600101945050610cb4565b8495505050505050919050565b600960009054906101000a900473ffffffffffffffffffffffffffffffffffffffff1673ffffffffffffffffffffffffffffffffffffffff163373ffffffffffffffffffffffffffffffffffffffff16141515610ee057600080fd5b610f556040805190810160405280600181526020017f2200000000000000000000000000000000000000000000000000000000000000815250826040805190810160405280600181526020017f2200000000000000000000000000000000000000000000000000000000000000815250611bc9565b60079080519060200190610f6a929190613150565b5050565b505050565b600a5481565b610f81613128565b6000346002610fc46040805190810160405280600381526020017f55524c0000000000000000000000000000000000000000000000000000000000815250611c07565b021115611084577f621c2856e3b87f81235f8ac8a22bbb40a0142961960710d00b2b6c380902b57e60405180806020018281038252604b8152602001807f4f7261636c697a6520717565727920776173204e4f542073656e742c20706c6581526020017f6173652061646420736f6d652045544820746f20636f76657220666f7220746881526020017f652071756572792066656500000000000000000000000000000000000000000081525060600191505060405180910390a161125c565b7f621c2856e3b87f81235f8ac8a22bbb40a0142961960710d00b2b6c380902b57e60405180806020018281038252602a8152602001807f4f7261636c697a65207175657279207761732073656e7420666f72206c6f636b81526020017f65642062616c616e63650000000000000000000000000000000000000000000081525060400191505060405180910390a161112361111e84610c73565b611268565b91506111ff6040805190810160405280600381526020017f55524c000000000000000000000000000000000000000000000000000000000081525060088054600181600116156101000203166002900480601f0160208091040260200160405190810160405280929190818152602001828054600181600116156101000203166002900480156111f45780601f106111c9576101008083540402835291602001916111f4565b820191906000526020600020905b8154815290600101906020018083116111d757829003601f168201915b505050505084611f68565b905082600c6000836000191660001916815260200190815260200160002060006101000a81548173ffffffffffffffffffffffffffffffffffffffff021916908373ffffffffffffffffffffffffffffffffffffffff1602179055505b505050565b6000919050565b611270613128565b611278613128565b611280613128565b611288613128565b6112c56112bf600960149054906101000a90047c0100000000000000000000000000000000000000000000000000000000026109fa565b866124e4565b9250606060405190810160405280603d81526020017f207b226a736f6e727063223a22322e30222c226964223a342c226d6574686f6481526020017f223a226574685f63616c6c222c22706172616d73223a5b7b22746f223a00000081525091506114378260078054600181600116156101000203166002900480601f0160208091040260200160405190810160405280929190818152602001828054600181600116156101000203166002900480156113c05780601f10611395576101008083540402835291602001916113c0565b820191906000526020600020905b8154815290600101906020018083116113a357829003601f168201915b50505050506040805190810160405280600981526020017f2c2264617461223a220000000000000000000000000000000000000000000000815250866040805190810160405280600d81526020017f227d2c226c6174657374225d7d00000000000000000000000000000000000000815250612531565b9050809350505050919050565b600960009054906101000a900473ffffffffffffffffffffffffffffffffffffffff1673ffffffffffffffffffffffffffffffffffffffff163373ffffffffffffffffffffffffffffffffffffffff161415156114a057600080fd5b80600890805190602001906114b6929190613150565b5050565b600960009054906101000a900473ffffffffffffffffffffffffffffffffffffffff1673ffffffffffffffffffffffffffffffffffffffff163373ffffffffffffffffffffffffffffffffffffffff1614151561151657600080fd5b80600a8190555050565b600960009054906101000a900473ffffffffffffffffffffffffffffffffffffffff1681565b600080600090506000600b60008573ffffffffffffffffffffffffffffffffffffffff1673ffffffffffffffffffffffffffffffffffffffff16815260200190815260200160002054111561159a57600190505b80915050919050565b60006001600b60003373ffffffffffffffffffffffffffffffffffffffff1673ffffffffffffffffffffffffffffffffffffffff16815260200190815260200160002081905550346005600082825401925050819055507fb5b0b2aa87a8c25fd9d3877caf6f9af759ae24eb4fc766caf6803760df0b9e2233604051808273ffffffffffffffffffffffffffffffffffffffff1673ffffffffffffffffffffffffffffffffffffffff16815260200191505060405180910390a190565b6000600b60008373ffffffffffffffffffffffffffffffffffffffff1673ffffffffffffffffffffffffffffffffffffffff168152602001908152602001600020549050919050565b60055481565b6000806000809054906101000a900473ffffffffffffffffffffffffffffffffffffffff1673ffffffffffffffffffffffffffffffffffffffff16148061171f5750600061171d6000809054906101000a900473ffffffffffffffffffffffffffffffffffffffff16612969565b145b156117305761172e6000612974565b505b6000809054906101000a900473ffffffffffffffffffffffffffffffffffffffff1673ffffffffffffffffffffffffffffffffffffffff166338cc48316040518163ffffffff167c0100000000000000000000000000000000000000000000000000000000028152600401602060405180830381600087803b15156117b457600080fd5b5af115156117c157600080fd5b5050506040518051905073ffffffffffffffffffffffffffffffffffffffff16600160009054906101000a900473ffffffffffffffffffffffffffffffffffffffff1673ffffffffffffffffffffffffffffffffffffffff161415156118fd576000809054906101000a900473ffffffffffffffffffffffffffffffffffffffff1673ffffffffffffffffffffffffffffffffffffffff166338cc48316040518163ffffffff167c0100000000000000000000000000000000000000000000000000000000028152600401602060405180830381600087803b15156118a557600080fd5b5af115156118b257600080fd5b50505060405180519050600160006101000a81548173ffffffffffffffffffffffffffffffffffffffff021916908373ffffffffffffffffffffffffffffffffffffffff1602179055505b600160009054906101000a900473ffffffffffffffffffffffffffffffffffffffff1673ffffffffffffffffffffffffffffffffffffffff1663c281d19e6040518163ffffffff167c0100000000000000000000000000000000000000000000000000000000028152600401602060405180830381600087803b151561198257600080fd5b5af1151561198f57600080fd5b50505060405180519050905090565b60006119ab826000612985565b9050919050565b60008160ff166000111580156119cc575060098260ff1611155b15611a4057817f30000000000000000000000000000000000000000000000000000000000000007f01000000000000000000000000000000000000000000000000000000000000009004017f0100000000000000000000000000000000000000000000000000000000000000029050611ad4565b8160ff16600a11158015611a585750600f8260ff1611155b15611acf57600a827f61000000000000000000000000000000000000000000000000000000000000007f0100000000000000000000000000000000000000000000000000000000000000900401037f0100000000000000000000000000000000000000000000000000000000000000029050611ad4565b600080fd5b919050565b6000600a7f010000000000000000000000000000000000000000000000000000000000000002827effffffffffffffffffffffffffffffffffffffffffffffffffffffffffffff19161015611b78576030827f01000000000000000000000000000000000000000000000000000000000000009004017f0100000000000000000000000000000000000000000000000000000000000000029050611bc4565b6057827f01000000000000000000000000000000000000000000000000000000000000009004017f01000000000000000000000000000000000000000000000000000000000000000290505b919050565b611bd1613128565b611bfe84848460206040519081016040528060008152506020604051908101604052806000815250612531565b90509392505050565b6000806000809054906101000a900473ffffffffffffffffffffffffffffffffffffffff1673ffffffffffffffffffffffffffffffffffffffff161480611c7757506000611c756000809054906101000a900473ffffffffffffffffffffffffffffffffffffffff16612969565b145b15611c8857611c866000612974565b505b6000809054906101000a900473ffffffffffffffffffffffffffffffffffffffff1673ffffffffffffffffffffffffffffffffffffffff166338cc48316040518163ffffffff167c0100000000000000000000000000000000000000000000000000000000028152600401602060405180830381600087803b1515611d0c57600080fd5b5af11515611d1957600080fd5b5050506040518051905073ffffffffffffffffffffffffffffffffffffffff16600160009054906101000a900473ffffffffffffffffffffffffffffffffffffffff1673ffffffffffffffffffffffffffffffffffffffff16141515611e55576000809054906101000a900473ffffffffffffffffffffffffffffffffffffffff1673ffffffffffffffffffffffffffffffffffffffff166338cc48316040518163ffffffff167c0100000000000000000000000000000000000000000000000000000000028152600401602060405180830381600087803b1515611dfd57600080fd5b5af11515611e0a57600080fd5b50505060405180519050600160006101000a81548173ffffffffffffffffffffffffffffffffffffffff021916908373ffffffffffffffffffffffffffffffffffffffff1602179055505b600160009054906101000a900473ffffffffffffffffffffffffffffffffffffffff1673ffffffffffffffffffffffffffffffffffffffff1663524f3889836040518263ffffffff167c01000000000000000000000000000000000000000000000000000000000281526004018080602001828103825283818151815260200191508051906020019080838360005b83811015611eff578082015181840152602081019050611ee4565b50505050905090810190601f168015611f2c5780820380516001836020036101000a031916815260200191505b5092505050602060405180830381600087803b1515611f4a57600080fd5b5af11515611f5757600080fd5b505050604051805190509050919050565b60008060008060009054906101000a900473ffffffffffffffffffffffffffffffffffffffff1673ffffffffffffffffffffffffffffffffffffffff161480611fda57506000611fd86000809054906101000a900473ffffffffffffffffffffffffffffffffffffffff16612969565b145b15611feb57611fe96000612974565b505b6000809054906101000a900473ffffffffffffffffffffffffffffffffffffffff1673ffffffffffffffffffffffffffffffffffffffff166338cc48316040518163ffffffff167c0100000000000000000000000000000000000000000000000000000000028152600401602060405180830381600087803b151561206f57600080fd5b5af1151561207c57600080fd5b5050506040518051905073ffffffffffffffffffffffffffffffffffffffff16600160009054906101000a900473ffffffffffffffffffffffffffffffffffffffff1673ffffffffffffffffffffffffffffffffffffffff161415156121b8576000809054906101000a900473ffffffffffffffffffffffffffffffffffffffff1673ffffffffffffffffffffffffffffffffffffffff166338cc48316040518163ffffffff167c0100000000000000000000000000000000000000000000000000000000028152600401602060405180830381600087803b151561216057600080fd5b5af1151561216d57600080fd5b50505060405180519050600160006101000a81548173ffffffffffffffffffffffffffffffffffffffff021916908373ffffffffffffffffffffffffffffffffffffffff1602179055505b600160009054906101000a900473ffffffffffffffffffffffffffffffffffffffff1673ffffffffffffffffffffffffffffffffffffffff1663524f3889866040518263ffffffff167c01000000000000000000000000000000000000000000000000000000000281526004018080602001828103825283818151815260200191508051906020019080838360005b83811015612262578082015181840152602081019050612247565b50505050905090810190601f16801561228f5780820380516001836020036101000a031916815260200191505b5092505050602060405180830381600087803b15156122ad57600080fd5b5af115156122ba57600080fd5b50505060405180519050905062030d403a02670de0b6b3a7640000018111156122e957600060010291506124dc565b600160009054906101000a900473ffffffffffffffffffffffffffffffffffffffff1673ffffffffffffffffffffffffffffffffffffffff1663772286598260008888886040518663ffffffff167c010000000000000000000000000000000000000000000000000000000002815260040180858152602001806020018060200180602001848103845287818151815260200191508051906020019080838360005b838110156123a657808201518184015260208101905061238b565b50505050905090810190601f1680156123d35780820380516001836020036101000a031916815260200191505b50848103835286818151815260200191508051906020019080838360005b8381101561240c5780820151818401526020810190506123f1565b50505050905090810190601f1680156124395780820380516001836020036101000a031916815260200191505b50848103825285818151815260200191508051906020019080838360005b83811015612472578082015181840152602081019050612457565b50505050905090810190601f16801561249f5780820380516001836020036101000a031916815260200191505b509750505050505050506020604051808303818588803b15156124c157600080fd5b5af115156124ce57600080fd5b505050506040518051905091505b509392505050565b6124ec613128565b6125298383602060405190810160405280600081525060206040519081016040528060008152506020604051908101604052806000815250612531565b905092915050565b612539613128565b61254161313c565b61254961313c565b61255161313c565b61255961313c565b61256161313c565b612569613128565b61257161313c565b6000808e98508d97508c96508b95508a94508451865188518a518c510101010160405180591061259e5750595b9080825280601f01601f1916602001820160405250935083925060009150600090505b88518110156126745788818151811015156125d857fe5b9060200101517f010000000000000000000000000000000000000000000000000000000000000090047f010000000000000000000000000000000000000000000000000000000000000002838380600101945081518110151561263757fe5b9060200101907effffffffffffffffffffffffffffffffffffffffffffffffffffffffffffff1916908160001a90535080806001019150506125c1565b600090505b875181101561272c57878181518110151561269057fe5b9060200101517f010000000000000000000000000000000000000000000000000000000000000090047f01000000000000000000000000000000000000000000000000000000000000000283838060010194508151811015156126ef57fe5b9060200101907effffffffffffffffffffffffffffffffffffffffffffffffffffffffffffff1916908160001a9053508080600101915050612679565b600090505b86518110156127e457868181518110151561274857fe5b9060200101517f010000000000000000000000000000000000000000000000000000000000000090047f01000000000000000000000000000000000000000000000000000000000000000283838060010194508151811015156127a757fe5b9060200101907effffffffffffffffffffffffffffffffffffffffffffffffffffffffffffff1916908160001a9053508080600101915050612731565b600090505b855181101561289c57858181518110151561280057fe5b9060200101517f010000000000000000000000000000000000000000000000000000000000000090047f010000000000000000000000000000000000000000000000000000000000000002838380600101945081518110151561285f57fe5b9060200101907effffffffffffffffffffffffffffffffffffffffffffffffffffffffffffff1916908160001a90535080806001019150506127e9565b600090505b84518110156129545784818151811015156128b857fe5b9060200101517f010000000000000000000000000000000000000000000000000000000000000090047f010000000000000000000000000000000000000000000000000000000000000002838380600101945081518110151561291757fe5b9060200101907effffffffffffffffffffffffffffffffffffffffffffffffffffffffffffff1916908160001a90535080806001019150506128a1565b82995050505050505050505095945050505050565b6000813b9050919050565b600061297e612c7f565b9050919050565b600061298f61313c565b60008060008693506000925060009150600090505b8351811015612c605760307f01000000000000000000000000000000000000000000000000000000000000000284828151811015156129df57fe5b9060200101517f010000000000000000000000000000000000000000000000000000000000000090047f0100000000000000000000000000000000000000000000000000000000000000027effffffffffffffffffffffffffffffffffffffffffffffffffffffffffffff191610158015612af7575060397f0100000000000000000000000000000000000000000000000000000000000000028482815181101515612a8757fe5b9060200101517f010000000000000000000000000000000000000000000000000000000000000090047f0100000000000000000000000000000000000000000000000000000000000000027effffffffffffffffffffffffffffffffffffffffffffffffffffffffffffff191611155b15612ba8578115612b1a576000861415612b1057612c60565b8580600190039650505b600a8302925060308482815181101515612b3057fe5b9060200101517f010000000000000000000000000000000000000000000000000000000000000090047f0100000000000000000000000000000000000000000000000000000000000000027f010000000000000000000000000000000000000000000000000000000000000090040383019250612c53565b602e7f0100000000000000000000000000000000000000000000000000000000000000028482815181101515612bda57fe5b9060200101517f010000000000000000000000000000000000000000000000000000000000000090047f0100000000000000000000000000000000000000000000000000000000000000027effffffffffffffffffffffffffffffffffffffffffffffffffffffffffffff19161415612c5257600191505b5b80806001019150506129a4565b6000861115612c725785600a0a830292505b8294505050505092915050565b600080612c9f731d3b2638a7cc9f2cb3d298a3da7a90b67e5506ed612969565b1115612d4057731d3b2638a7cc9f2cb3d298a3da7a90b67e5506ed6000806101000a81548173ffffffffffffffffffffffffffffffffffffffff021916908373ffffffffffffffffffffffffffffffffffffffff160217905550612d376040805190810160405280600b81526020017f6574685f6d61696e6e657400000000000000000000000000000000000000000081525061310e565b6001905061310b565b6000612d5f73c03a2615d5efaf5f49f60b7bb6583eaec212fdf1612969565b1115612e005773c03a2615d5efaf5f49f60b7bb6583eaec212fdf16000806101000a81548173ffffffffffffffffffffffffffffffffffffffff021916908373ffffffffffffffffffffffffffffffffffffffff160217905550612df76040805190810160405280600c81526020017f6574685f726f707374656e33000000000000000000000000000000000000000081525061310e565b6001905061310b565b6000612e1f73b7a07bcf2ba2f2703b24c0691b5278999c59ac7e612969565b1115612ec05773b7a07bcf2ba2f2703b24c0691b5278999c59ac7e6000806101000a81548173ffffffffffffffffffffffffffffffffffffffff021916908373ffffffffffffffffffffffffffffffffffffffff160217905550612eb76040805190810160405280600981526020017f6574685f6b6f76616e000000000000000000000000000000000000000000000081525061310e565b6001905061310b565b6000612edf73146500cfd35b22e4a392fe0adc06de1a1368ed48612969565b1115612f805773146500cfd35b22e4a392fe0adc06de1a1368ed486000806101000a81548173ffffffffffffffffffffffffffffffffffffffff021916908373ffffffffffffffffffffffffffffffffffffffff160217905550612f776040805190810160405280600b81526020017f6574685f72696e6b65627900000000000000000000000000000000000000000081525061310e565b6001905061310b565b6000612f9f736f485c8bf6fc43ea212e93bbf8ce046c7f1cb475612969565b111561300257736f485c8bf6fc43ea212e93bbf8ce046c7f1cb4756000806101000a81548173ffffffffffffffffffffffffffffffffffffffff021916908373ffffffffffffffffffffffffffffffffffffffff1602179055506001905061310b565b60006130217320e12a1f859b3feae5fb2a0a32c18f5a65555bbf612969565b1115613084577320e12a1f859b3feae5fb2a0a32c18f5a65555bbf6000806101000a81548173ffffffffffffffffffffffffffffffffffffffff021916908373ffffffffffffffffffffffffffffffffffffffff1602179055506001905061310b565b60006130a37351efaf4c8b3c9afbd5ab9f4bbc82784ab6ef8faa612969565b1115613106577351efaf4c8b3c9afbd5ab9f4bbc82784ab6ef8faa6000806101000a81548173ffffffffffffffffffffffffffffffffffffffff021916908373ffffffffffffffffffffffffffffffffffffffff1602179055506001905061310b565b600090505b90565b8060029080519060200190613124929190613150565b5050565b602060405190810160405280600081525090565b602060405190810160405280600081525090565b828054600181600116156101000203166002900490600052602060002090601f016020900481019282601f1061319157805160ff19168380011785556131bf565b828001600101855582156131bf579182015b828111156131be5782518255916020019190600101906131a3565b5b5090506131cc91906131d0565b5090565b6131f291905b808211156131ee5760008160009055506001016131d6565b5090565b905600a165627a7a72305820834fc373322efd27c9bcabdc6e97c88838521429d5f8b56b0e512b7492da7a860029",
  "source": "pragma solidity ^0.4.21;\r\n\r\nimport \"./libraries/SafeMath.sol\";\r\nimport \"./Oraclize/Oraclize_API.sol\";\r\n\r\n\r\n\r\n//This is the basic wrapped Ether to a different chain contract. \r\n//All money deposited is transformed into ERC20 tokens at the rate of 1 wei = 1 token\r\n  /*You push money when you transfer (delete money here).  If it doesn't go through, you can check to see if transfer ID went through\r\n  --How do we deal with livliness assumption? (do we?)\r\n-We need to add ERC20 functionality to represent the Ether transferred from the other contract\r\n  */\r\ncontract Bridge is usingOraclize{\r\n\r\n  using SafeMath for uint256;\r\n\r\n  /***VARIABLES***/\r\n  uint public total_deposited_supply;\r\n  uint transNonce;\r\n  string public partnerBridge; //address of bridge contract on other chain\r\n  string private api;\r\n  address public owner;\r\n  bytes4 private method_data;\r\n  uint public stake;\r\n\r\n  /***STORAGE***/\r\n  mapping(address => uint) deposited_balances;\r\n  mapping (bytes32 => address) query;\r\n\r\n  /***EVENTS***/\r\n  event JoinedBookClub(address _from);\r\n  event LogUpdated(string value);\r\n  event LogNewOraclizeQuery(string description);\r\n\r\n    /***MODIFIERS***/\r\n  /// @dev Access modifier for Owner functionality\r\n  modifier onlyOwner() {\r\n      require(msg.sender == owner);\r\n      _;\r\n  }\r\n\r\n  /***FUNCTIONS***/\r\n\r\n  function Bridge() public {\r\n      method_data = this.departingMember.selector;\r\n      owner = msg.sender;\r\n      setAPI(\"json(https://rinkeby.infura.io/).result\");\r\n  }\r\n\r\n  function setFee(uint _fee) public onlyOwner(){\r\n    stake = _fee;\r\n  }\r\n \r\n\r\n  function setOwner (address _owner) public onlyOwner(){\r\n    owner = _owner;\r\n  }\r\n\r\n  function isMember(address _user) public constant returns(bool){\r\n    bool _val = false;\r\n    if(deposited_balances[_user] > 0){\r\n      _val = true;\r\n    }\r\n    return _val;\r\n  }\r\n\r\n\r\n  function joinBookClub() payable public returns(uint){\r\n    //require(msg.value == stake && deposited_balances[msg.sender] == 0);\r\n    deposited_balances[msg.sender] = 1;\r\n    total_deposited_supply += msg.value;\r\n    emit JoinedBookClub(msg.sender);\r\n  }\r\n\r\n\r\n    //we need to append address to end of data_string\r\n\r\n  function checkChild(address _user) public payable{\r\n      if (oraclize_getPrice(\"URL\") * 2  > msg.value) {\r\n          emit LogNewOraclizeQuery(\"Oraclize query was NOT sent, please add some ETH to cover for the query fee\");\r\n      } else {\r\n          emit LogNewOraclizeQuery(\"Oraclize query was sent for locked balance\");\r\n          string memory _params  = createQuery_value(toAsciiString(_user));\r\n          bytes32 queryId = oraclize_query(\"URL\",api,_params);\r\n          query[queryId] = _user;\r\n   }\r\n  }\r\n\r\n   function __callback(bytes32 myId, string result) public {\r\n        require (msg.sender == oraclize_cbAddress());\r\n        uint _res = parseInt(result);\r\n        if(_res == 1){\r\n          address _User = query[myId];\r\n          _User.transfer(stake);\r\n        }\r\n    }\r\n\r\n  function setPartnerBridge(string _connected) public onlyOwner(){\r\n    partnerBridge = strConcat('\"',_connected,'\"');\r\n  }\r\n\r\n\r\n  //try: \"json(https://localhost:8545).result\"\r\n  function setAPI(string _api) public onlyOwner(){\r\n      api = _api; //\"json(https://ropsten.infura.io/).result\"\r\n    }\r\n\r\n    //can make internal once it works\r\n    //check id (60 is an open, so we can try it)\r\n    function createQuery_value(string _member_address) public constant returns(string){\r\n      string memory _code = strConcat(fromCode(method_data),_member_address);\r\n      string memory _part = ' {\"jsonrpc\":\"2.0\",\"id\":4,\"method\":\"eth_call\",\"params\":[{\"to\":';\r\n      string memory _params2 = strConcat(_part,partnerBridge,',\"data\":\"',_code,'\"},\"latest\"]}');\r\n      return _params2;\r\n    }\r\n\r\n\r\n\r\n  function getDeposit(address _user) public returns(uint){\r\n    return deposited_balances[_user];\r\n  }\r\n  function departingMember(address _former) public returns(uint){\r\n  }\r\n\r\n\r\n  function fromCode(bytes4 code) public view returns (string) {                                                                                    \r\n    bytes memory result = new bytes(10);                                                                                                         \r\n    result[0] = byte('0');\r\n    result[1] = byte('x');\r\n    for (uint i=0; i<4; ++i) {\r\n        result[2*i+2] = toHexDigit(uint8(code[i])/16);\r\n        result[2*i+3] = toHexDigit(uint8(code[i])%16);\r\n    }\r\n    return string(result);\r\n}\r\n\r\n    function toHexDigit(uint8 d) pure internal returns (byte) {                                                                                      \r\n    if (0 <= d && d <= 9) {                                                                                                                      \r\n        return byte(uint8(byte('0')) + d);                                                                                                       \r\n    } else if (10 <= uint8(d) && uint8(d) <= 15) {                                                                                               \r\n        return byte(uint8(byte('a')) + d - 10);                                                                                                  \r\n    }                                                                                                                                            \r\n    revert();                                                                                                                                    \r\n}                                                                                                                                                \r\n\r\n\r\n\r\nfunction toAsciiString(address x) returns (string) {\r\n    bytes memory s = new bytes(40);\r\n    for (uint i = 0; i < 20; i++) {\r\n        byte b = byte(uint8(uint(x) / (2**(8*(19 - i)))));\r\n        byte hi = byte(uint8(b) / 16);\r\n        byte lo = byte(uint8(b) - 16 * uint8(hi));\r\n        s[2*i] = char(hi);\r\n        s[2*i+1] = char(lo);            \r\n    }\r\n    return string(s);\r\n}\r\n\r\nfunction char(byte b) internal returns (byte c) {\r\n    if (b < 10) return byte(uint8(b) + 0x30);\r\n    else return byte(uint8(b) + 0x57);\r\n}\r\n\r\n\r\n}\r\n",
  "sourcePath": "C:\\Nick\\hackital\\ethereumBookClub\\contracts\\Bridge.sol",
  "compiler": {
    "name": "solc",
    "version": "0.4.21+commit.dfe3193c.Emscripten.clang"
  },
  "schemaVersion": "2.0.0",
  "updatedAt": "2018-04-29T00:42:04.615Z"
}