{
  "contractName": "Bridge",
  "abi": [
    {
      "constant": true,
      "inputs": [],
      "name": "partnerBridge",
      "outputs": [
        {
          "name": "",
          "type": "string"
        }
      ],
      "payable": false,
      "stateMutability": "view",
      "type": "function"
    },
    {
      "constant": true,
      "inputs": [],
      "name": "stake",
      "outputs": [
        {
          "name": "",
          "type": "uint256"
        }
      ],
      "payable": false,
      "stateMutability": "view",
      "type": "function"
    },
    {
      "constant": true,
      "inputs": [],
      "name": "owner",
      "outputs": [
        {
          "name": "",
          "type": "address"
        }
      ],
      "payable": false,
      "stateMutability": "view",
      "type": "function"
    },
    {
      "constant": true,
      "inputs": [],
      "name": "total_deposited_supply",
      "outputs": [
        {
          "name": "",
          "type": "uint256"
        }
      ],
      "payable": false,
      "stateMutability": "view",
      "type": "function"
    },
    {
      "inputs": [],
      "payable": false,
      "stateMutability": "nonpayable",
      "type": "constructor"
    },
    {
      "anonymous": false,
      "inputs": [
        {
          "indexed": false,
          "name": "_from",
          "type": "address"
        }
      ],
      "name": "JoinedBookClub",
      "type": "event"
    },
    {
      "anonymous": false,
      "inputs": [
        {
          "indexed": false,
          "name": "value",
          "type": "string"
        }
      ],
      "name": "LogUpdated",
      "type": "event"
    },
    {
      "anonymous": false,
      "inputs": [
        {
          "indexed": false,
          "name": "description",
          "type": "string"
        }
      ],
      "name": "LogNewOraclizeQuery",
      "type": "event"
    },
    {
      "constant": false,
      "inputs": [
        {
          "name": "_fee",
          "type": "uint256"
        }
      ],
      "name": "setFee",
      "outputs": [],
      "payable": false,
      "stateMutability": "nonpayable",
      "type": "function"
    },
    {
      "constant": false,
      "inputs": [
        {
          "name": "_owner",
          "type": "address"
        }
      ],
      "name": "setOwner",
      "outputs": [],
      "payable": false,
      "stateMutability": "nonpayable",
      "type": "function"
    },
    {
      "constant": false,
      "inputs": [],
      "name": "joinBookClub",
      "outputs": [
        {
          "name": "",
          "type": "uint256"
        }
      ],
      "payable": true,
      "stateMutability": "payable",
      "type": "function"
    },
    {
      "constant": false,
      "inputs": [
        {
          "name": "_user",
          "type": "address"
        }
      ],
      "name": "checkChild",
      "outputs": [],
      "payable": true,
      "stateMutability": "payable",
      "type": "function"
    },
    {
      "constant": false,
      "inputs": [
        {
          "name": "myid",
          "type": "bytes32"
        },
        {
          "name": "result",
          "type": "string"
        },
        {
          "name": "proof",
          "type": "bytes"
        }
      ],
      "name": "__callback",
      "outputs": [],
      "payable": false,
      "stateMutability": "nonpayable",
      "type": "function"
    },
    {
      "constant": false,
      "inputs": [
        {
          "name": "myId",
          "type": "bytes32"
        },
        {
          "name": "result",
          "type": "string"
        }
      ],
      "name": "__callback",
      "outputs": [],
      "payable": false,
      "stateMutability": "nonpayable",
      "type": "function"
    },
    {
      "constant": false,
      "inputs": [
        {
          "name": "_connected",
          "type": "string"
        }
      ],
      "name": "setPartnerBridge",
      "outputs": [],
      "payable": false,
      "stateMutability": "nonpayable",
      "type": "function"
    },
    {
      "constant": false,
      "inputs": [
        {
          "name": "_api",
          "type": "string"
        }
      ],
      "name": "setAPI",
      "outputs": [],
      "payable": false,
      "stateMutability": "nonpayable",
      "type": "function"
    },
    {
      "constant": true,
      "inputs": [
        {
          "name": "_member_address",
          "type": "string"
        }
      ],
      "name": "createQuery_value",
      "outputs": [
        {
          "name": "",
          "type": "string"
        }
      ],
      "payable": false,
      "stateMutability": "view",
      "type": "function"
    },
    {
      "constant": false,
      "inputs": [
        {
          "name": "_user",
          "type": "address"
        }
      ],
      "name": "getDeposit",
      "outputs": [
        {
          "name": "",
          "type": "uint256"
        }
      ],
      "payable": false,
      "stateMutability": "nonpayable",
      "type": "function"
    },
    {
      "constant": false,
      "inputs": [
        {
          "name": "_former",
          "type": "address"
        }
      ],
      "name": "departingMember",
      "outputs": [
        {
          "name": "",
          "type": "uint256"
        }
      ],
      "payable": false,
      "stateMutability": "nonpayable",
      "type": "function"
    },
    {
      "constant": true,
      "inputs": [
        {
          "name": "code",
          "type": "bytes4"
        }
      ],
      "name": "fromCode",
      "outputs": [
        {
          "name": "",
          "type": "string"
        }
      ],
      "payable": false,
      "stateMutability": "view",
      "type": "function"
    },
    {
      "constant": false,
      "inputs": [
        {
          "name": "x",
          "type": "address"
        }
      ],
      "name": "toAsciiString",
      "outputs": [
        {
          "name": "",
          "type": "string"
        }
      ],
      "payable": false,
      "stateMutability": "nonpayable",
      "type": "function"
    }
  ],
  "bytecode": "0x606060405234156200001057600080fd5b634fb9eda97c010000000000000000000000000000000000000000000000000000000002600960146101000a81548163ffffffff02191690837c01000000000000000000000000000000000000000000000000000000009004021790555033600960006101000a81548173ffffffffffffffffffffffffffffffffffffffff021916908373ffffffffffffffffffffffffffffffffffffffff1602179055506200012a606060405190810160405280602781526020017f6a736f6e2868747470733a2f2f72696e6b6562792e696e667572612e696f2f2981526020017f2e726573756c74000000000000000000000000000000000000000000000000008152506200013064010000000002620013e8176401000000009004565b62000258565b600960009054906101000a900473ffffffffffffffffffffffffffffffffffffffff1673ffffffffffffffffffffffffffffffffffffffff163373ffffffffffffffffffffffffffffffffffffffff161415156200018d57600080fd5b8060089080519060200190620001a5929190620001a9565b5050565b828054600181600116156101000203166002900490600052602060002090601f016020900481019282601f10620001ec57805160ff19168380011785556200021d565b828001600101855582156200021d579182015b828111156200021c578251825591602001919060010190620001ff565b5b5090506200022c919062000230565b5090565b6200025591905b808211156200025157600081600090555060010162000237565b5090565b90565b6131c280620002686000396000f3006060604052600436106100f1576000357c0100000000000000000000000000000000000000000000000000000000900463ffffffff16806313af4035146100f657806322c22a201461012f57806327dc297e146101bd5780632c0ad2ad146102275780632c6e7598146102e25780633059a2b41461039457806338bbfa50146103f15780633a4b66f11461049e57806346360b4f146104c75780634fb9eda9146104f557806362fafc9114610542578063696cf2a01461061857806369fe0e2d146106755780638da5cb5b14610698578063df6b9726146106ed578063e1254fba1461070b578063f74c8c9c14610758575b600080fd5b341561010157600080fd5b61012d600480803573ffffffffffffffffffffffffffffffffffffffff16906020019091905050610781565b005b341561013a57600080fd5b610142610821565b6040518080602001828103825283818151815260200191508051906020019080838360005b83811015610182578082015181840152602081019050610167565b50505050905090810190601f1680156101af5780820380516001836020036101000a031916815260200191505b509250505060405180910390f35b34156101c857600080fd5b61022560048080356000191690602001909190803590602001908201803590602001908080601f016020809104026020016040519081016040528093929190818152602001838380828437820191505050505050919050506108bf565b005b341561023257600080fd5b61026760048080357bffffffffffffffffffffffffffffffffffffffffffffffffffffffff191690602001909190505061099e565b6040518080602001828103825283818151815260200191508051906020019080838360005b838110156102a757808201518184015260208101905061028c565b50505050905090810190601f1680156102d45780820380516001836020036101000a031916815260200191505b509250505060405180910390f35b34156102ed57600080fd5b610319600480803573ffffffffffffffffffffffffffffffffffffffff16906020019091905050610c17565b6040518080602001828103825283818151815260200191508051906020019080838360005b8381101561035957808201518184015260208101905061033e565b50505050905090810190601f1680156103865780820380516001836020036101000a031916815260200191505b509250505060405180910390f35b341561039f57600080fd5b6103ef600480803590602001908201803590602001908080601f01602080910402602001604051908101604052809392919081815260200183838082843782019150505050505091905050610e28565b005b34156103fc57600080fd5b61049c60048080356000191690602001909190803590602001908201803590602001908080601f0160208091040260200160405190810160405280939291908181526020018383808284378201915050505050509190803590602001908201803590602001908080601f01602080910402602001604051908101604052809392919081815260200183838082843782019150505050505091905050610f12565b005b34156104a957600080fd5b6104b1610f17565b6040518082815260200191505060405180910390f35b6104f3600480803573ffffffffffffffffffffffffffffffffffffffff16906020019091905050610f1d565b005b341561050057600080fd5b61052c600480803573ffffffffffffffffffffffffffffffffffffffff16906020019091905050611205565b6040518082815260200191505060405180910390f35b341561054d57600080fd5b61059d600480803590602001908201803590602001908080601f0160208091040260200160405190810160405280939291908181526020018383808284378201915050505050509190505061120c565b6040518080602001828103825283818151815260200191508051906020019080838360005b838110156105dd5780820151818401526020810190506105c2565b50505050905090810190601f16801561060a5780820380516001836020036101000a031916815260200191505b509250505060405180910390f35b341561062357600080fd5b610673600480803590602001908201803590602001908080601f016020809104026020016040519081016040528093929190818152602001838380828437820191505050505050919050506113e8565b005b341561068057600080fd5b610696600480803590602001909190505061145e565b005b34156106a357600080fd5b6106ab6114c4565b604051808273ffffffffffffffffffffffffffffffffffffffff1673ffffffffffffffffffffffffffffffffffffffff16815260200191505060405180910390f35b6106f56114ea565b6040518082815260200191505060405180910390f35b341561071657600080fd5b610742600480803573ffffffffffffffffffffffffffffffffffffffff16906020019091905050611601565b6040518082815260200191505060405180910390f35b341561076357600080fd5b61076b61164a565b6040518082815260200191505060405180910390f35b600960009054906101000a900473ffffffffffffffffffffffffffffffffffffffff1673ffffffffffffffffffffffffffffffffffffffff163373ffffffffffffffffffffffffffffffffffffffff161415156107dd57600080fd5b80600960006101000a81548173ffffffffffffffffffffffffffffffffffffffff021916908373ffffffffffffffffffffffffffffffffffffffff16021790555050565b60078054600181600116156101000203166002900480601f0160208091040260200160405190810160405280929190818152602001828054600181600116156101000203166002900480156108b75780601f1061088c576101008083540402835291602001916108b7565b820191906000526020600020905b81548152906001019060200180831161089a57829003601f168201915b505050505081565b6000806108ca611650565b73ffffffffffffffffffffffffffffffffffffffff163373ffffffffffffffffffffffffffffffffffffffff1614151561090357600080fd5b61090c8361193f565b9150600182141561099857600c6000856000191660001916815260200190815260200160002060009054906101000a900473ffffffffffffffffffffffffffffffffffffffff1690508073ffffffffffffffffffffffffffffffffffffffff166108fc600a549081150290604051600060405180830381858888f19350505050151561099757600080fd5b5b50505050565b6109a66130c9565b6109ae6130dd565b6000600a6040518059106109bf5750595b9080825280601f01601f191660200182016040525091507f3000000000000000000000000000000000000000000000000000000000000000826000815181101515610a0657fe5b9060200101907effffffffffffffffffffffffffffffffffffffffffffffffffffffffffffff1916908160001a9053507f7800000000000000000000000000000000000000000000000000000000000000826001815181101515610a6657fe5b9060200101907effffffffffffffffffffffffffffffffffffffffffffffffffffffffffffff1916908160001a905350600090505b6004811015610c0d57610b0f60108583600481101515610ab757fe5b1a7f0100000000000000000000000000000000000000000000000000000000000000027f0100000000000000000000000000000000000000000000000000000000000000900460ff16811515610b0957fe5b04611953565b8260028360020201815181101515610b2357fe5b9060200101907effffffffffffffffffffffffffffffffffffffffffffffffffffffffffffff1916908160001a905350610bbe60108583600481101515610b6657fe5b1a7f0100000000000000000000000000000000000000000000000000000000000000027f0100000000000000000000000000000000000000000000000000000000000000900460ff16811515610bb857fe5b06611953565b8260038360020201815181101515610bd257fe5b9060200101907effffffffffffffffffffffffffffffffffffffffffffffffffffffffffffff1916908160001a905350806001019050610a9b565b8192505050919050565b610c1f6130c9565b610c276130dd565b6000806000806028604051805910610c3c5750595b9080825280601f01601f19166020018201604052509450600093505b6014841015610e1b578360130360080260020a8773ffffffffffffffffffffffffffffffffffffffff16811515610c8b57fe5b047f01000000000000000000000000000000000000000000000000000000000000000292506010837f0100000000000000000000000000000000000000000000000000000000000000900460ff16811515610ce257fe5b047f0100000000000000000000000000000000000000000000000000000000000000029150817f01000000000000000000000000000000000000000000000000000000000000009004601002837f01000000000000000000000000000000000000000000000000000000000000009004037f0100000000000000000000000000000000000000000000000000000000000000029050610d8082611a7a565b8585600202815181101515610d9157fe5b9060200101907effffffffffffffffffffffffffffffffffffffffffffffffffffffffffffff1916908160001a905350610dca81611a7a565b8560018660020201815181101515610dde57fe5b9060200101907effffffffffffffffffffffffffffffffffffffffffffffffffffffffffffff1916908160001a9053508380600101945050610c58565b8495505050505050919050565b600960009054906101000a900473ffffffffffffffffffffffffffffffffffffffff1673ffffffffffffffffffffffffffffffffffffffff163373ffffffffffffffffffffffffffffffffffffffff16141515610e8457600080fd5b610ef96040805190810160405280600181526020017f2200000000000000000000000000000000000000000000000000000000000000815250826040805190810160405280600181526020017f2200000000000000000000000000000000000000000000000000000000000000815250611b6a565b60079080519060200190610f0e9291906130f1565b5050565b505050565b600a5481565b610f256130c9565b6000346002610f686040805190810160405280600381526020017f55524c0000000000000000000000000000000000000000000000000000000000815250611ba8565b021115611028577f621c2856e3b87f81235f8ac8a22bbb40a0142961960710d00b2b6c380902b57e60405180806020018281038252604b8152602001807f4f7261636c697a6520717565727920776173204e4f542073656e742c20706c6581526020017f6173652061646420736f6d652045544820746f20636f76657220666f7220746881526020017f652071756572792066656500000000000000000000000000000000000000000081525060600191505060405180910390a1611200565b7f621c2856e3b87f81235f8ac8a22bbb40a0142961960710d00b2b6c380902b57e60405180806020018281038252602a8152602001807f4f7261636c697a65207175657279207761732073656e7420666f72206c6f636b81526020017f65642062616c616e63650000000000000000000000000000000000000000000081525060400191505060405180910390a16110c76110c284610c17565b61120c565b91506111a36040805190810160405280600381526020017f55524c000000000000000000000000000000000000000000000000000000000081525060088054600181600116156101000203166002900480601f0160208091040260200160405190810160405280929190818152602001828054600181600116156101000203166002900480156111985780601f1061116d57610100808354040283529160200191611198565b820191906000526020600020905b81548152906001019060200180831161117b57829003601f168201915b505050505084611f09565b905082600c6000836000191660001916815260200190815260200160002060006101000a81548173ffffffffffffffffffffffffffffffffffffffff021916908373ffffffffffffffffffffffffffffffffffffffff1602179055505b505050565b6000919050565b6112146130c9565b61121c6130c9565b6112246130c9565b61122c6130c9565b611269611263600960149054906101000a90047c01000000000000000000000000000000000000000000000000000000000261099e565b86612485565b9250606060405190810160405280603d81526020017f207b226a736f6e727063223a22322e30222c226964223a342c226d6574686f6481526020017f223a226574685f63616c6c222c22706172616d73223a5b7b22746f223a00000081525091506113db8260078054600181600116156101000203166002900480601f0160208091040260200160405190810160405280929190818152602001828054600181600116156101000203166002900480156113645780601f1061133957610100808354040283529160200191611364565b820191906000526020600020905b81548152906001019060200180831161134757829003601f168201915b50505050506040805190810160405280600981526020017f2c2264617461223a220000000000000000000000000000000000000000000000815250866040805190810160405280600d81526020017f227d2c226c6174657374225d7d000000000000000000000000000000000000008152506124d2565b9050809350505050919050565b600960009054906101000a900473ffffffffffffffffffffffffffffffffffffffff1673ffffffffffffffffffffffffffffffffffffffff163373ffffffffffffffffffffffffffffffffffffffff1614151561144457600080fd5b806008908051906020019061145a9291906130f1565b5050565b600960009054906101000a900473ffffffffffffffffffffffffffffffffffffffff1673ffffffffffffffffffffffffffffffffffffffff163373ffffffffffffffffffffffffffffffffffffffff161415156114ba57600080fd5b80600a8190555050565b600960009054906101000a900473ffffffffffffffffffffffffffffffffffffffff1681565b6000600a543414801561153c57506000600b60003373ffffffffffffffffffffffffffffffffffffffff1673ffffffffffffffffffffffffffffffffffffffff16815260200190815260200160002054145b151561154757600080fd5b34600b60003373ffffffffffffffffffffffffffffffffffffffff1673ffffffffffffffffffffffffffffffffffffffff16815260200190815260200160002081905550346005600082825401925050819055507fb5b0b2aa87a8c25fd9d3877caf6f9af759ae24eb4fc766caf6803760df0b9e2233604051808273ffffffffffffffffffffffffffffffffffffffff1673ffffffffffffffffffffffffffffffffffffffff16815260200191505060405180910390a190565b6000600b60008373ffffffffffffffffffffffffffffffffffffffff1673ffffffffffffffffffffffffffffffffffffffff168152602001908152602001600020549050919050565b60055481565b6000806000809054906101000a900473ffffffffffffffffffffffffffffffffffffffff1673ffffffffffffffffffffffffffffffffffffffff1614806116c0575060006116be6000809054906101000a900473ffffffffffffffffffffffffffffffffffffffff1661290a565b145b156116d1576116cf6000612915565b505b6000809054906101000a900473ffffffffffffffffffffffffffffffffffffffff1673ffffffffffffffffffffffffffffffffffffffff166338cc48316040518163ffffffff167c0100000000000000000000000000000000000000000000000000000000028152600401602060405180830381600087803b151561175557600080fd5b5af1151561176257600080fd5b5050506040518051905073ffffffffffffffffffffffffffffffffffffffff16600160009054906101000a900473ffffffffffffffffffffffffffffffffffffffff1673ffffffffffffffffffffffffffffffffffffffff1614151561189e576000809054906101000a900473ffffffffffffffffffffffffffffffffffffffff1673ffffffffffffffffffffffffffffffffffffffff166338cc48316040518163ffffffff167c0100000000000000000000000000000000000000000000000000000000028152600401602060405180830381600087803b151561184657600080fd5b5af1151561185357600080fd5b50505060405180519050600160006101000a81548173ffffffffffffffffffffffffffffffffffffffff021916908373ffffffffffffffffffffffffffffffffffffffff1602179055505b600160009054906101000a900473ffffffffffffffffffffffffffffffffffffffff1673ffffffffffffffffffffffffffffffffffffffff1663c281d19e6040518163ffffffff167c0100000000000000000000000000000000000000000000000000000000028152600401602060405180830381600087803b151561192357600080fd5b5af1151561193057600080fd5b50505060405180519050905090565b600061194c826000612926565b9050919050565b60008160ff1660001115801561196d575060098260ff1611155b156119e157817f30000000000000000000000000000000000000000000000000000000000000007f01000000000000000000000000000000000000000000000000000000000000009004017f0100000000000000000000000000000000000000000000000000000000000000029050611a75565b8160ff16600a111580156119f95750600f8260ff1611155b15611a7057600a827f61000000000000000000000000000000000000000000000000000000000000007f0100000000000000000000000000000000000000000000000000000000000000900401037f0100000000000000000000000000000000000000000000000000000000000000029050611a75565b600080fd5b919050565b6000600a7f010000000000000000000000000000000000000000000000000000000000000002827effffffffffffffffffffffffffffffffffffffffffffffffffffffffffffff19161015611b19576030827f01000000000000000000000000000000000000000000000000000000000000009004017f0100000000000000000000000000000000000000000000000000000000000000029050611b65565b6057827f01000000000000000000000000000000000000000000000000000000000000009004017f01000000000000000000000000000000000000000000000000000000000000000290505b919050565b611b726130c9565b611b9f848484602060405190810160405280600081525060206040519081016040528060008152506124d2565b90509392505050565b6000806000809054906101000a900473ffffffffffffffffffffffffffffffffffffffff1673ffffffffffffffffffffffffffffffffffffffff161480611c1857506000611c166000809054906101000a900473ffffffffffffffffffffffffffffffffffffffff1661290a565b145b15611c2957611c276000612915565b505b6000809054906101000a900473ffffffffffffffffffffffffffffffffffffffff1673ffffffffffffffffffffffffffffffffffffffff166338cc48316040518163ffffffff167c0100000000000000000000000000000000000000000000000000000000028152600401602060405180830381600087803b1515611cad57600080fd5b5af11515611cba57600080fd5b5050506040518051905073ffffffffffffffffffffffffffffffffffffffff16600160009054906101000a900473ffffffffffffffffffffffffffffffffffffffff1673ffffffffffffffffffffffffffffffffffffffff16141515611df6576000809054906101000a900473ffffffffffffffffffffffffffffffffffffffff1673ffffffffffffffffffffffffffffffffffffffff166338cc48316040518163ffffffff167c0100000000000000000000000000000000000000000000000000000000028152600401602060405180830381600087803b1515611d9e57600080fd5b5af11515611dab57600080fd5b50505060405180519050600160006101000a81548173ffffffffffffffffffffffffffffffffffffffff021916908373ffffffffffffffffffffffffffffffffffffffff1602179055505b600160009054906101000a900473ffffffffffffffffffffffffffffffffffffffff1673ffffffffffffffffffffffffffffffffffffffff1663524f3889836040518263ffffffff167c01000000000000000000000000000000000000000000000000000000000281526004018080602001828103825283818151815260200191508051906020019080838360005b83811015611ea0578082015181840152602081019050611e85565b50505050905090810190601f168015611ecd5780820380516001836020036101000a031916815260200191505b5092505050602060405180830381600087803b1515611eeb57600080fd5b5af11515611ef857600080fd5b505050604051805190509050919050565b60008060008060009054906101000a900473ffffffffffffffffffffffffffffffffffffffff1673ffffffffffffffffffffffffffffffffffffffff161480611f7b57506000611f796000809054906101000a900473ffffffffffffffffffffffffffffffffffffffff1661290a565b145b15611f8c57611f8a6000612915565b505b6000809054906101000a900473ffffffffffffffffffffffffffffffffffffffff1673ffffffffffffffffffffffffffffffffffffffff166338cc48316040518163ffffffff167c0100000000000000000000000000000000000000000000000000000000028152600401602060405180830381600087803b151561201057600080fd5b5af1151561201d57600080fd5b5050506040518051905073ffffffffffffffffffffffffffffffffffffffff16600160009054906101000a900473ffffffffffffffffffffffffffffffffffffffff1673ffffffffffffffffffffffffffffffffffffffff16141515612159576000809054906101000a900473ffffffffffffffffffffffffffffffffffffffff1673ffffffffffffffffffffffffffffffffffffffff166338cc48316040518163ffffffff167c0100000000000000000000000000000000000000000000000000000000028152600401602060405180830381600087803b151561210157600080fd5b5af1151561210e57600080fd5b50505060405180519050600160006101000a81548173ffffffffffffffffffffffffffffffffffffffff021916908373ffffffffffffffffffffffffffffffffffffffff1602179055505b600160009054906101000a900473ffffffffffffffffffffffffffffffffffffffff1673ffffffffffffffffffffffffffffffffffffffff1663524f3889866040518263ffffffff167c01000000000000000000000000000000000000000000000000000000000281526004018080602001828103825283818151815260200191508051906020019080838360005b838110156122035780820151818401526020810190506121e8565b50505050905090810190601f1680156122305780820380516001836020036101000a031916815260200191505b5092505050602060405180830381600087803b151561224e57600080fd5b5af1151561225b57600080fd5b50505060405180519050905062030d403a02670de0b6b3a76400000181111561228a576000600102915061247d565b600160009054906101000a900473ffffffffffffffffffffffffffffffffffffffff1673ffffffffffffffffffffffffffffffffffffffff1663772286598260008888886040518663ffffffff167c010000000000000000000000000000000000000000000000000000000002815260040180858152602001806020018060200180602001848103845287818151815260200191508051906020019080838360005b8381101561234757808201518184015260208101905061232c565b50505050905090810190601f1680156123745780820380516001836020036101000a031916815260200191505b50848103835286818151815260200191508051906020019080838360005b838110156123ad578082015181840152602081019050612392565b50505050905090810190601f1680156123da5780820380516001836020036101000a031916815260200191505b50848103825285818151815260200191508051906020019080838360005b838110156124135780820151818401526020810190506123f8565b50505050905090810190601f1680156124405780820380516001836020036101000a031916815260200191505b509750505050505050506020604051808303818588803b151561246257600080fd5b5af1151561246f57600080fd5b505050506040518051905091505b509392505050565b61248d6130c9565b6124ca83836020604051908101604052806000815250602060405190810160405280600081525060206040519081016040528060008152506124d2565b905092915050565b6124da6130c9565b6124e26130dd565b6124ea6130dd565b6124f26130dd565b6124fa6130dd565b6125026130dd565b61250a6130c9565b6125126130dd565b6000808e98508d97508c96508b95508a94508451865188518a518c510101010160405180591061253f5750595b9080825280601f01601f1916602001820160405250935083925060009150600090505b885181101561261557888181518110151561257957fe5b9060200101517f010000000000000000000000000000000000000000000000000000000000000090047f01000000000000000000000000000000000000000000000000000000000000000283838060010194508151811015156125d857fe5b9060200101907effffffffffffffffffffffffffffffffffffffffffffffffffffffffffffff1916908160001a9053508080600101915050612562565b600090505b87518110156126cd57878181518110151561263157fe5b9060200101517f010000000000000000000000000000000000000000000000000000000000000090047f010000000000000000000000000000000000000000000000000000000000000002838380600101945081518110151561269057fe5b9060200101907effffffffffffffffffffffffffffffffffffffffffffffffffffffffffffff1916908160001a905350808060010191505061261a565b600090505b86518110156127855786818151811015156126e957fe5b9060200101517f010000000000000000000000000000000000000000000000000000000000000090047f010000000000000000000000000000000000000000000000000000000000000002838380600101945081518110151561274857fe5b9060200101907effffffffffffffffffffffffffffffffffffffffffffffffffffffffffffff1916908160001a90535080806001019150506126d2565b600090505b855181101561283d5785818151811015156127a157fe5b9060200101517f010000000000000000000000000000000000000000000000000000000000000090047f010000000000000000000000000000000000000000000000000000000000000002838380600101945081518110151561280057fe5b9060200101907effffffffffffffffffffffffffffffffffffffffffffffffffffffffffffff1916908160001a905350808060010191505061278a565b600090505b84518110156128f557848181518110151561285957fe5b9060200101517f010000000000000000000000000000000000000000000000000000000000000090047f01000000000000000000000000000000000000000000000000000000000000000283838060010194508151811015156128b857fe5b9060200101907effffffffffffffffffffffffffffffffffffffffffffffffffffffffffffff1916908160001a9053508080600101915050612842565b82995050505050505050505095945050505050565b6000813b9050919050565b600061291f612c20565b9050919050565b60006129306130dd565b60008060008693506000925060009150600090505b8351811015612c015760307f010000000000000000000000000000000000000000000000000000000000000002848281518110151561298057fe5b9060200101517f010000000000000000000000000000000000000000000000000000000000000090047f0100000000000000000000000000000000000000000000000000000000000000027effffffffffffffffffffffffffffffffffffffffffffffffffffffffffffff191610158015612a98575060397f0100000000000000000000000000000000000000000000000000000000000000028482815181101515612a2857fe5b9060200101517f010000000000000000000000000000000000000000000000000000000000000090047f0100000000000000000000000000000000000000000000000000000000000000027effffffffffffffffffffffffffffffffffffffffffffffffffffffffffffff191611155b15612b49578115612abb576000861415612ab157612c01565b8580600190039650505b600a8302925060308482815181101515612ad157fe5b9060200101517f010000000000000000000000000000000000000000000000000000000000000090047f0100000000000000000000000000000000000000000000000000000000000000027f010000000000000000000000000000000000000000000000000000000000000090040383019250612bf4565b602e7f0100000000000000000000000000000000000000000000000000000000000000028482815181101515612b7b57fe5b9060200101517f010000000000000000000000000000000000000000000000000000000000000090047f0100000000000000000000000000000000000000000000000000000000000000027effffffffffffffffffffffffffffffffffffffffffffffffffffffffffffff19161415612bf357600191505b5b8080600101915050612945565b6000861115612c135785600a0a830292505b8294505050505092915050565b600080612c40731d3b2638a7cc9f2cb3d298a3da7a90b67e5506ed61290a565b1115612ce157731d3b2638a7cc9f2cb3d298a3da7a90b67e5506ed6000806101000a81548173ffffffffffffffffffffffffffffffffffffffff021916908373ffffffffffffffffffffffffffffffffffffffff160217905550612cd86040805190810160405280600b81526020017f6574685f6d61696e6e65740000000000000000000000000000000000000000008152506130af565b600190506130ac565b6000612d0073c03a2615d5efaf5f49f60b7bb6583eaec212fdf161290a565b1115612da15773c03a2615d5efaf5f49f60b7bb6583eaec212fdf16000806101000a81548173ffffffffffffffffffffffffffffffffffffffff021916908373ffffffffffffffffffffffffffffffffffffffff160217905550612d986040805190810160405280600c81526020017f6574685f726f707374656e3300000000000000000000000000000000000000008152506130af565b600190506130ac565b6000612dc073b7a07bcf2ba2f2703b24c0691b5278999c59ac7e61290a565b1115612e615773b7a07bcf2ba2f2703b24c0691b5278999c59ac7e6000806101000a81548173ffffffffffffffffffffffffffffffffffffffff021916908373ffffffffffffffffffffffffffffffffffffffff160217905550612e586040805190810160405280600981526020017f6574685f6b6f76616e00000000000000000000000000000000000000000000008152506130af565b600190506130ac565b6000612e8073146500cfd35b22e4a392fe0adc06de1a1368ed4861290a565b1115612f215773146500cfd35b22e4a392fe0adc06de1a1368ed486000806101000a81548173ffffffffffffffffffffffffffffffffffffffff021916908373ffffffffffffffffffffffffffffffffffffffff160217905550612f186040805190810160405280600b81526020017f6574685f72696e6b6562790000000000000000000000000000000000000000008152506130af565b600190506130ac565b6000612f40736f485c8bf6fc43ea212e93bbf8ce046c7f1cb47561290a565b1115612fa357736f485c8bf6fc43ea212e93bbf8ce046c7f1cb4756000806101000a81548173ffffffffffffffffffffffffffffffffffffffff021916908373ffffffffffffffffffffffffffffffffffffffff160217905550600190506130ac565b6000612fc27320e12a1f859b3feae5fb2a0a32c18f5a65555bbf61290a565b1115613025577320e12a1f859b3feae5fb2a0a32c18f5a65555bbf6000806101000a81548173ffffffffffffffffffffffffffffffffffffffff021916908373ffffffffffffffffffffffffffffffffffffffff160217905550600190506130ac565b60006130447351efaf4c8b3c9afbd5ab9f4bbc82784ab6ef8faa61290a565b11156130a7577351efaf4c8b3c9afbd5ab9f4bbc82784ab6ef8faa6000806101000a81548173ffffffffffffffffffffffffffffffffffffffff021916908373ffffffffffffffffffffffffffffffffffffffff160217905550600190506130ac565b600090505b90565b80600290805190602001906130c59291906130f1565b5050565b602060405190810160405280600081525090565b602060405190810160405280600081525090565b828054600181600116156101000203166002900490600052602060002090601f016020900481019282601f1061313257805160ff1916838001178555613160565b82800160010185558215613160579182015b8281111561315f578251825591602001919060010190613144565b5b50905061316d9190613171565b5090565b61319391905b8082111561318f576000816000905550600101613177565b5090565b905600a165627a7a723058204264ed79f761b6d91179231ef9b3be29e6eb83b1b14a774a3c5ece7ea2ed844e0029",
  "source": "pragma solidity ^0.4.21;\r\n\r\nimport \"./libraries/SafeMath.sol\";\r\nimport \"./Oraclize/Oraclize_API.sol\";\r\n\r\n\r\n\r\n//This is the basic wrapped Ether to a different chain contract. \r\n//All money deposited is transformed into ERC20 tokens at the rate of 1 wei = 1 token\r\n  /*You push money when you transfer (delete money here).  If it doesn't go through, you can check to see if transfer ID went through\r\n  --How do we deal with livliness assumption? (do we?)\r\n-We need to add ERC20 functionality to represent the Ether transferred from the other contract\r\n  */\r\ncontract Bridge is usingOraclize{\r\n\r\n  using SafeMath for uint256;\r\n\r\n  /***VARIABLES***/\r\n  uint public total_deposited_supply;\r\n  uint transNonce;\r\n  string public partnerBridge; //address of bridge contract on other chain\r\n  string private api;\r\n  address public owner;\r\n  bytes4 private method_data;\r\n  uint public stake;\r\n\r\n  /***STORAGE***/\r\n  mapping(address => uint) deposited_balances;\r\n  mapping (bytes32 => address) query;\r\n\r\n  /***EVENTS***/\r\n  event JoinedBookClub(address _from);\r\n  event LogUpdated(string value);\r\n  event LogNewOraclizeQuery(string description);\r\n\r\n    /***MODIFIERS***/\r\n  /// @dev Access modifier for Owner functionality\r\n  modifier onlyOwner() {\r\n      require(msg.sender == owner);\r\n      _;\r\n  }\r\n\r\n  /***FUNCTIONS***/\r\n\r\n  function Bridge() public {\r\n      method_data = this.departingMember.selector;\r\n      owner = msg.sender;\r\n      setAPI(\"json(https://rinkeby.infura.io/).result\");\r\n  }\r\n\r\n  function setFee(uint _fee) public onlyOwner(){\r\n    stake = _fee;\r\n  }\r\n \r\n\r\n  function setOwner (address _owner) public onlyOwner(){\r\n    owner = _owner;\r\n  }\r\n\r\n\r\n  function joinBookClub() payable public returns(uint){\r\n    require(msg.value == stake && deposited_balances[msg.sender] == 0);\r\n    deposited_balances[msg.sender] = msg.value;\r\n    total_deposited_supply += msg.value;\r\n    emit JoinedBookClub(msg.sender);\r\n  }\r\n\r\n\r\n    //we need to append address to end of data_string\r\n\r\n  function checkChild(address _user) public payable{\r\n      if (oraclize_getPrice(\"URL\") * 2  > msg.value) {\r\n          emit LogNewOraclizeQuery(\"Oraclize query was NOT sent, please add some ETH to cover for the query fee\");\r\n      } else {\r\n          emit LogNewOraclizeQuery(\"Oraclize query was sent for locked balance\");\r\n          string memory _params  = createQuery_value(toAsciiString(_user));\r\n          bytes32 queryId = oraclize_query(\"URL\",api,_params);\r\n          query[queryId] = _user;\r\n   }\r\n  }\r\n\r\n   function __callback(bytes32 myId, string result) public {\r\n        require (msg.sender == oraclize_cbAddress());\r\n        uint _res = parseInt(result);\r\n        if(_res == 1){\r\n          address _User = query[myId];\r\n          _User.transfer(stake);\r\n        }\r\n    }\r\n\r\n  function setPartnerBridge(string _connected) public onlyOwner(){\r\n    partnerBridge = strConcat('\"',_connected,'\"');\r\n  }\r\n\r\n\r\n  //try: \"json(https://localhost:8545).result\"\r\n  function setAPI(string _api) public onlyOwner(){\r\n      api = _api; //\"json(https://ropsten.infura.io/).result\"\r\n    }\r\n\r\n    //can make internal once it works\r\n    //check id (60 is an open, so we can try it)\r\n    function createQuery_value(string _member_address) public constant returns(string){\r\n      string memory _code = strConcat(fromCode(method_data),_member_address);\r\n      string memory _part = ' {\"jsonrpc\":\"2.0\",\"id\":4,\"method\":\"eth_call\",\"params\":[{\"to\":';\r\n      string memory _params2 = strConcat(_part,partnerBridge,',\"data\":\"',_code,'\"},\"latest\"]}');\r\n      return _params2;\r\n    }\r\n\r\n\r\n\r\n  function getDeposit(address _user) public returns(uint){\r\n    return deposited_balances[_user];\r\n  }\r\n  function departingMember(address _former) public returns(uint){\r\n  }\r\n\r\n\r\n  function fromCode(bytes4 code) public view returns (string) {                                                                                    \r\n    bytes memory result = new bytes(10);                                                                                                         \r\n    result[0] = byte('0');\r\n    result[1] = byte('x');\r\n    for (uint i=0; i<4; ++i) {\r\n        result[2*i+2] = toHexDigit(uint8(code[i])/16);\r\n        result[2*i+3] = toHexDigit(uint8(code[i])%16);\r\n    }\r\n    return string(result);\r\n}\r\n\r\n    function toHexDigit(uint8 d) pure internal returns (byte) {                                                                                      \r\n    if (0 <= d && d <= 9) {                                                                                                                      \r\n        return byte(uint8(byte('0')) + d);                                                                                                       \r\n    } else if (10 <= uint8(d) && uint8(d) <= 15) {                                                                                               \r\n        return byte(uint8(byte('a')) + d - 10);                                                                                                  \r\n    }                                                                                                                                            \r\n    revert();                                                                                                                                    \r\n}                                                                                                                                                \r\n\r\n\r\n\r\nfunction toAsciiString(address x) returns (string) {\r\n    bytes memory s = new bytes(40);\r\n    for (uint i = 0; i < 20; i++) {\r\n        byte b = byte(uint8(uint(x) / (2**(8*(19 - i)))));\r\n        byte hi = byte(uint8(b) / 16);\r\n        byte lo = byte(uint8(b) - 16 * uint8(hi));\r\n        s[2*i] = char(hi);\r\n        s[2*i+1] = char(lo);            \r\n    }\r\n    return string(s);\r\n}\r\n\r\nfunction char(byte b) internal returns (byte c) {\r\n    if (b < 10) return byte(uint8(b) + 0x30);\r\n    else return byte(uint8(b) + 0x57);\r\n}\r\n\r\n\r\n}\r\n",
  "sourcePath": "C:\\Nick\\hackital\\ethereumBookClub\\contracts\\Bridge.sol",
  "compiler": {
    "name": "solc",
    "version": "0.4.21+commit.dfe3193c.Emscripten.clang"
  },
  "schemaVersion": "2.0.0",
  "updatedAt": "2018-04-28T22:21:32.420Z"
}