{
  "contractName": "Bridge",
  "abi": [
    {
      "constant": true,
      "inputs": [],
      "name": "partnerBridge",
      "outputs": [
        {
          "name": "",
          "type": "string"
        }
      ],
      "payable": false,
      "stateMutability": "view",
      "type": "function"
    },
    {
      "constant": true,
      "inputs": [],
      "name": "stake",
      "outputs": [
        {
          "name": "",
          "type": "uint256"
        }
      ],
      "payable": false,
      "stateMutability": "view",
      "type": "function"
    },
    {
      "constant": true,
      "inputs": [],
      "name": "owner",
      "outputs": [
        {
          "name": "",
          "type": "address"
        }
      ],
      "payable": false,
      "stateMutability": "view",
      "type": "function"
    },
    {
      "constant": true,
      "inputs": [],
      "name": "total_deposited_supply",
      "outputs": [
        {
          "name": "",
          "type": "uint256"
        }
      ],
      "payable": false,
      "stateMutability": "view",
      "type": "function"
    },
    {
      "inputs": [],
      "payable": false,
      "stateMutability": "nonpayable",
      "type": "constructor"
    },
    {
      "anonymous": false,
      "inputs": [
        {
          "indexed": false,
          "name": "_from",
          "type": "address"
        },
        {
          "indexed": false,
          "name": "_value",
          "type": "uint256"
        }
      ],
      "name": "JoinedBookClub",
      "type": "event"
    },
    {
      "anonymous": false,
      "inputs": [
        {
          "indexed": false,
          "name": "value",
          "type": "string"
        }
      ],
      "name": "LogUpdated",
      "type": "event"
    },
    {
      "anonymous": false,
      "inputs": [
        {
          "indexed": false,
          "name": "description",
          "type": "string"
        }
      ],
      "name": "LogNewOraclizeQuery",
      "type": "event"
    },
    {
      "constant": false,
      "inputs": [
        {
          "name": "_owner",
          "type": "address"
        }
      ],
      "name": "setOwner",
      "outputs": [],
      "payable": false,
      "stateMutability": "nonpayable",
      "type": "function"
    },
    {
      "constant": false,
      "inputs": [],
      "name": "joinBookClub",
      "outputs": [
        {
          "name": "",
          "type": "uint256"
        }
      ],
      "payable": true,
      "stateMutability": "payable",
      "type": "function"
    },
    {
      "constant": false,
      "inputs": [
        {
          "name": "_user",
          "type": "address"
        }
      ],
      "name": "checkChild",
      "outputs": [],
      "payable": true,
      "stateMutability": "payable",
      "type": "function"
    },
    {
      "constant": false,
      "inputs": [
        {
          "name": "myid",
          "type": "bytes32"
        },
        {
          "name": "result",
          "type": "string"
        },
        {
          "name": "proof",
          "type": "bytes"
        }
      ],
      "name": "__callback",
      "outputs": [],
      "payable": false,
      "stateMutability": "nonpayable",
      "type": "function"
    },
    {
      "constant": false,
      "inputs": [
        {
          "name": "myId",
          "type": "bytes32"
        },
        {
          "name": "result",
          "type": "string"
        }
      ],
      "name": "__callback",
      "outputs": [],
      "payable": false,
      "stateMutability": "nonpayable",
      "type": "function"
    },
    {
      "constant": false,
      "inputs": [
        {
          "name": "_connected",
          "type": "string"
        }
      ],
      "name": "setPartnerBridge",
      "outputs": [],
      "payable": false,
      "stateMutability": "nonpayable",
      "type": "function"
    },
    {
      "constant": false,
      "inputs": [
        {
          "name": "_api",
          "type": "string"
        }
      ],
      "name": "setAPI",
      "outputs": [],
      "payable": false,
      "stateMutability": "nonpayable",
      "type": "function"
    },
    {
      "constant": true,
      "inputs": [
        {
          "name": "_member_address",
          "type": "string"
        }
      ],
      "name": "createQuery_value",
      "outputs": [
        {
          "name": "",
          "type": "string"
        }
      ],
      "payable": false,
      "stateMutability": "view",
      "type": "function"
    },
    {
      "constant": false,
      "inputs": [
        {
          "name": "_user",
          "type": "address"
        }
      ],
      "name": "getDeposit",
      "outputs": [
        {
          "name": "",
          "type": "uint256"
        }
      ],
      "payable": false,
      "stateMutability": "nonpayable",
      "type": "function"
    },
    {
      "constant": false,
      "inputs": [
        {
          "name": "_former",
          "type": "address"
        }
      ],
      "name": "departingMember",
      "outputs": [
        {
          "name": "",
          "type": "uint256"
        }
      ],
      "payable": false,
      "stateMutability": "nonpayable",
      "type": "function"
    },
    {
      "constant": true,
      "inputs": [
        {
          "name": "code",
          "type": "bytes4"
        }
      ],
      "name": "fromCode",
      "outputs": [
        {
          "name": "",
          "type": "string"
        }
      ],
      "payable": false,
      "stateMutability": "view",
      "type": "function"
    },
    {
      "constant": false,
      "inputs": [
        {
          "name": "x",
          "type": "address"
        }
      ],
      "name": "toAsciiString",
      "outputs": [
        {
          "name": "",
          "type": "string"
        }
      ],
      "payable": false,
      "stateMutability": "nonpayable",
      "type": "function"
    },
    {
      "constant": false,
      "inputs": [
        {
          "name": "b",
          "type": "bytes1"
        }
      ],
      "name": "char",
      "outputs": [
        {
          "name": "c",
          "type": "bytes1"
        }
      ],
      "payable": false,
      "stateMutability": "nonpayable",
      "type": "function"
    }
  ],
  "bytecode": "0x606060405234156200001057600080fd5b634fb9eda97c010000000000000000000000000000000000000000000000000000000002600a60146101000a81548163ffffffff02191690837c010000000000000000000000000000000000000000000000000000000090040217905550620000e9606060405190810160405280602781526020017f6a736f6e2868747470733a2f2f72696e6b6562792e696e667572612e696f2f2981526020017f2e726573756c7400000000000000000000000000000000000000000000000000815250620001306401000000000262001479176401000000009004565b33600a60006101000a81548173ffffffffffffffffffffffffffffffffffffffff021916908373ffffffffffffffffffffffffffffffffffffffff16021790555062000258565b600a60009054906101000a900473ffffffffffffffffffffffffffffffffffffffff1673ffffffffffffffffffffffffffffffffffffffff163373ffffffffffffffffffffffffffffffffffffffff161415156200018d57600080fd5b8060089080519060200190620001a5929190620001a9565b5050565b828054600181600116156101000203166002900490600052602060002090601f016020900481019282601f10620001ec57805160ff19168380011785556200021d565b828001600101855582156200021d579182015b828111156200021c578251825591602001919060010190620001ff565b5b5090506200022c919062000230565b5090565b6200025591905b808211156200025157600081600090555060010162000237565b5090565b90565b61319b80620002686000396000f3006060604052600436106100f1576000357c0100000000000000000000000000000000000000000000000000000000900463ffffffff16806313af4035146100f657806322c22a201461012f57806327dc297e146101bd5780632c0ad2ad146102275780632c6e7598146102e25780633059a2b41461039457806338bbfa50146103f15780633a4b66f11461049e57806346360b4f146104c75780634fb9eda9146104f557806362fafc9114610542578063696cf2a01461061857806369f9ad2f146106755780638da5cb5b14610712578063df6b972614610767578063e1254fba14610785578063f74c8c9c146107d2575b600080fd5b341561010157600080fd5b61012d600480803573ffffffffffffffffffffffffffffffffffffffff169060200190919050506107fb565b005b341561013a57600080fd5b61014261089b565b6040518080602001828103825283818151815260200191508051906020019080838360005b83811015610182578082015181840152602081019050610167565b50505050905090810190601f1680156101af5780820380516001836020036101000a031916815260200191505b509250505060405180910390f35b34156101c857600080fd5b61022560048080356000191690602001909190803590602001908201803590602001908080601f01602080910402602001604051908101604052809392919081815260200183838082843782019150505050505091905050610939565b005b341561023257600080fd5b61026760048080357bffffffffffffffffffffffffffffffffffffffffffffffffffffffff1916906020019091905050610a18565b6040518080602001828103825283818151815260200191508051906020019080838360005b838110156102a757808201518184015260208101905061028c565b50505050905090810190601f1680156102d45780820380516001836020036101000a031916815260200191505b509250505060405180910390f35b34156102ed57600080fd5b610319600480803573ffffffffffffffffffffffffffffffffffffffff16906020019091905050610c91565b6040518080602001828103825283818151815260200191508051906020019080838360005b8381101561035957808201518184015260208101905061033e565b50505050905090810190601f1680156103865780820380516001836020036101000a031916815260200191505b509250505060405180910390f35b341561039f57600080fd5b6103ef600480803590602001908201803590602001908080601f01602080910402602001604051908101604052809392919081815260200183838082843782019150505050505091905050610ea2565b005b34156103fc57600080fd5b61049c60048080356000191690602001909190803590602001908201803590602001908080601f0160208091040260200160405190810160405280939291908181526020018383808284378201915050505050509190803590602001908201803590602001908080601f01602080910402602001604051908101604052809392919081815260200183838082843782019150505050505091905050610f8c565b005b34156104a957600080fd5b6104b1610f91565b6040518082815260200191505060405180910390f35b6104f3600480803573ffffffffffffffffffffffffffffffffffffffff16906020019091905050610f97565b005b341561050057600080fd5b61052c600480803573ffffffffffffffffffffffffffffffffffffffff16906020019091905050611296565b6040518082815260200191505060405180910390f35b341561054d57600080fd5b61059d600480803590602001908201803590602001908080601f0160208091040260200160405190810160405280939291908181526020018383808284378201915050505050509190505061129d565b6040518080602001828103825283818151815260200191508051906020019080838360005b838110156105dd5780820151818401526020810190506105c2565b50505050905090810190601f16801561060a5780820380516001836020036101000a031916815260200191505b509250505060405180910390f35b341561062357600080fd5b610673600480803590602001908201803590602001908080601f01602080910402602001604051908101604052809392919081815260200183838082843782019150505050505091905050611479565b005b341561068057600080fd5b6106b860048080357effffffffffffffffffffffffffffffffffffffffffffffffffffffffffffff19169060200190919050506114ef565b60405180827effffffffffffffffffffffffffffffffffffffffffffffffffffffffffffff19167effffffffffffffffffffffffffffffffffffffffffffffffffffffffffffff1916815260200191505060405180910390f35b341561071d57600080fd5b6107256115df565b604051808273ffffffffffffffffffffffffffffffffffffffff1673ffffffffffffffffffffffffffffffffffffffff16815260200191505060405180910390f35b61076f611605565b6040518082815260200191505060405180910390f35b341561079057600080fd5b6107bc600480803573ffffffffffffffffffffffffffffffffffffffff169060200190919050506116ca565b6040518082815260200191505060405180910390f35b34156107dd57600080fd5b6107e5611713565b6040518082815260200191505060405180910390f35b600a60009054906101000a900473ffffffffffffffffffffffffffffffffffffffff1673ffffffffffffffffffffffffffffffffffffffff163373ffffffffffffffffffffffffffffffffffffffff1614151561085757600080fd5b80600a60006101000a81548173ffffffffffffffffffffffffffffffffffffffff021916908373ffffffffffffffffffffffffffffffffffffffff16021790555050565b60078054600181600116156101000203166002900480601f0160208091040260200160405190810160405280929190818152602001828054600181600116156101000203166002900480156109315780601f1061090657610100808354040283529160200191610931565b820191906000526020600020905b81548152906001019060200180831161091457829003601f168201915b505050505081565b600080610944611719565b73ffffffffffffffffffffffffffffffffffffffff163373ffffffffffffffffffffffffffffffffffffffff1614151561097d57600080fd5b61098683611a08565b91506001821415610a1257600e6000856000191660001916815260200190815260200160002060009054906101000a900473ffffffffffffffffffffffffffffffffffffffff1690508073ffffffffffffffffffffffffffffffffffffffff166108fc600b549081150290604051600060405180830381858888f193505050501515610a1157600080fd5b5b50505050565b610a206130a2565b610a286130b6565b6000600a604051805910610a395750595b9080825280601f01601f191660200182016040525091507f3000000000000000000000000000000000000000000000000000000000000000826000815181101515610a8057fe5b9060200101907effffffffffffffffffffffffffffffffffffffffffffffffffffffffffffff1916908160001a9053507f7800000000000000000000000000000000000000000000000000000000000000826001815181101515610ae057fe5b9060200101907effffffffffffffffffffffffffffffffffffffffffffffffffffffffffffff1916908160001a905350600090505b6004811015610c8757610b8960108583600481101515610b3157fe5b1a7f0100000000000000000000000000000000000000000000000000000000000000027f0100000000000000000000000000000000000000000000000000000000000000900460ff16811515610b8357fe5b04611a1c565b8260028360020201815181101515610b9d57fe5b9060200101907effffffffffffffffffffffffffffffffffffffffffffffffffffffffffffff1916908160001a905350610c3860108583600481101515610be057fe5b1a7f0100000000000000000000000000000000000000000000000000000000000000027f0100000000000000000000000000000000000000000000000000000000000000900460ff16811515610c3257fe5b06611a1c565b8260038360020201815181101515610c4c57fe5b9060200101907effffffffffffffffffffffffffffffffffffffffffffffffffffffffffffff1916908160001a905350806001019050610b15565b8192505050919050565b610c996130a2565b610ca16130b6565b6000806000806028604051805910610cb65750595b9080825280601f01601f19166020018201604052509450600093505b6014841015610e95578360130360080260020a8773ffffffffffffffffffffffffffffffffffffffff16811515610d0557fe5b047f01000000000000000000000000000000000000000000000000000000000000000292506010837f0100000000000000000000000000000000000000000000000000000000000000900460ff16811515610d5c57fe5b047f0100000000000000000000000000000000000000000000000000000000000000029150817f01000000000000000000000000000000000000000000000000000000000000009004601002837f01000000000000000000000000000000000000000000000000000000000000009004037f0100000000000000000000000000000000000000000000000000000000000000029050610dfa826114ef565b8585600202815181101515610e0b57fe5b9060200101907effffffffffffffffffffffffffffffffffffffffffffffffffffffffffffff1916908160001a905350610e44816114ef565b8560018660020201815181101515610e5857fe5b9060200101907effffffffffffffffffffffffffffffffffffffffffffffffffffffffffffff1916908160001a9053508380600101945050610cd2565b8495505050505050919050565b600a60009054906101000a900473ffffffffffffffffffffffffffffffffffffffff1673ffffffffffffffffffffffffffffffffffffffff163373ffffffffffffffffffffffffffffffffffffffff16141515610efe57600080fd5b610f736040805190810160405280600181526020017f2200000000000000000000000000000000000000000000000000000000000000815250826040805190810160405280600181526020017f2200000000000000000000000000000000000000000000000000000000000000815250611b43565b60079080519060200190610f889291906130ca565b5050565b505050565b600b5481565b610f9f6130a2565b60003073ffffffffffffffffffffffffffffffffffffffff16316002610ff96040805190810160405280600381526020017f55524c0000000000000000000000000000000000000000000000000000000000815250611b81565b0211156110b9577f621c2856e3b87f81235f8ac8a22bbb40a0142961960710d00b2b6c380902b57e60405180806020018281038252604b8152602001807f4f7261636c697a6520717565727920776173204e4f542073656e742c20706c6581526020017f6173652061646420736f6d652045544820746f20636f76657220666f7220746881526020017f652071756572792066656500000000000000000000000000000000000000000081525060600191505060405180910390a1611291565b7f621c2856e3b87f81235f8ac8a22bbb40a0142961960710d00b2b6c380902b57e60405180806020018281038252602a8152602001807f4f7261636c697a65207175657279207761732073656e7420666f72206c6f636b81526020017f65642062616c616e63650000000000000000000000000000000000000000000081525060400191505060405180910390a161115861115384610c91565b61129d565b91506112346040805190810160405280600381526020017f55524c000000000000000000000000000000000000000000000000000000000081525060088054600181600116156101000203166002900480601f0160208091040260200160405190810160405280929190818152602001828054600181600116156101000203166002900480156112295780601f106111fe57610100808354040283529160200191611229565b820191906000526020600020905b81548152906001019060200180831161120c57829003601f168201915b505050505084611ee2565b905082600e6000836000191660001916815260200190815260200160002060006101000a81548173ffffffffffffffffffffffffffffffffffffffff021916908373ffffffffffffffffffffffffffffffffffffffff1602179055505b505050565b6000919050565b6112a56130a2565b6112ad6130a2565b6112b56130a2565b6112bd6130a2565b6112fa6112f4600a60149054906101000a90047c010000000000000000000000000000000000000000000000000000000002610a18565b8661245e565b9250606060405190810160405280603d81526020017f207b226a736f6e727063223a22322e30222c226964223a342c226d6574686f6481526020017f223a226574685f63616c6c222c22706172616d73223a5b7b22746f223a000000815250915061146c8260078054600181600116156101000203166002900480601f0160208091040260200160405190810160405280929190818152602001828054600181600116156101000203166002900480156113f55780601f106113ca576101008083540402835291602001916113f5565b820191906000526020600020905b8154815290600101906020018083116113d857829003601f168201915b50505050506040805190810160405280600981526020017f2c2264617461223a220000000000000000000000000000000000000000000000815250866040805190810160405280600d81526020017f227d2c226c6174657374225d7d000000000000000000000000000000000000008152506124ab565b9050809350505050919050565b600a60009054906101000a900473ffffffffffffffffffffffffffffffffffffffff1673ffffffffffffffffffffffffffffffffffffffff163373ffffffffffffffffffffffffffffffffffffffff161415156114d557600080fd5b80600890805190602001906114eb9291906130ca565b5050565b6000600a7f010000000000000000000000000000000000000000000000000000000000000002827effffffffffffffffffffffffffffffffffffffffffffffffffffffffffffff1916101561158e576030827f01000000000000000000000000000000000000000000000000000000000000009004017f01000000000000000000000000000000000000000000000000000000000000000290506115da565b6057827f01000000000000000000000000000000000000000000000000000000000000009004017f01000000000000000000000000000000000000000000000000000000000000000290505b919050565b600a60009054906101000a900473ffffffffffffffffffffffffffffffffffffffff1681565b6000600b5434148015611668575060001515600d60003373ffffffffffffffffffffffffffffffffffffffff1673ffffffffffffffffffffffffffffffffffffffff16815260200190815260200160002060009054906101000a900460ff161515145b151561167357600080fd5b34600c60003373ffffffffffffffffffffffffffffffffffffffff1673ffffffffffffffffffffffffffffffffffffffff168152602001908152602001600020819055503460056000828254019250508190555090565b6000600c60008373ffffffffffffffffffffffffffffffffffffffff1673ffffffffffffffffffffffffffffffffffffffff168152602001908152602001600020549050919050565b60055481565b6000806000809054906101000a900473ffffffffffffffffffffffffffffffffffffffff1673ffffffffffffffffffffffffffffffffffffffff161480611789575060006117876000809054906101000a900473ffffffffffffffffffffffffffffffffffffffff166128e3565b145b1561179a5761179860006128ee565b505b6000809054906101000a900473ffffffffffffffffffffffffffffffffffffffff1673ffffffffffffffffffffffffffffffffffffffff166338cc48316040518163ffffffff167c0100000000000000000000000000000000000000000000000000000000028152600401602060405180830381600087803b151561181e57600080fd5b5af1151561182b57600080fd5b5050506040518051905073ffffffffffffffffffffffffffffffffffffffff16600160009054906101000a900473ffffffffffffffffffffffffffffffffffffffff1673ffffffffffffffffffffffffffffffffffffffff16141515611967576000809054906101000a900473ffffffffffffffffffffffffffffffffffffffff1673ffffffffffffffffffffffffffffffffffffffff166338cc48316040518163ffffffff167c0100000000000000000000000000000000000000000000000000000000028152600401602060405180830381600087803b151561190f57600080fd5b5af1151561191c57600080fd5b50505060405180519050600160006101000a81548173ffffffffffffffffffffffffffffffffffffffff021916908373ffffffffffffffffffffffffffffffffffffffff1602179055505b600160009054906101000a900473ffffffffffffffffffffffffffffffffffffffff1673ffffffffffffffffffffffffffffffffffffffff1663c281d19e6040518163ffffffff167c0100000000000000000000000000000000000000000000000000000000028152600401602060405180830381600087803b15156119ec57600080fd5b5af115156119f957600080fd5b50505060405180519050905090565b6000611a158260006128ff565b9050919050565b60008160ff16600011158015611a36575060098260ff1611155b15611aaa57817f30000000000000000000000000000000000000000000000000000000000000007f01000000000000000000000000000000000000000000000000000000000000009004017f0100000000000000000000000000000000000000000000000000000000000000029050611b3e565b8160ff16600a11158015611ac25750600f8260ff1611155b15611b3957600a827f61000000000000000000000000000000000000000000000000000000000000007f0100000000000000000000000000000000000000000000000000000000000000900401037f0100000000000000000000000000000000000000000000000000000000000000029050611b3e565b600080fd5b919050565b611b4b6130a2565b611b78848484602060405190810160405280600081525060206040519081016040528060008152506124ab565b90509392505050565b6000806000809054906101000a900473ffffffffffffffffffffffffffffffffffffffff1673ffffffffffffffffffffffffffffffffffffffff161480611bf157506000611bef6000809054906101000a900473ffffffffffffffffffffffffffffffffffffffff166128e3565b145b15611c0257611c0060006128ee565b505b6000809054906101000a900473ffffffffffffffffffffffffffffffffffffffff1673ffffffffffffffffffffffffffffffffffffffff166338cc48316040518163ffffffff167c0100000000000000000000000000000000000000000000000000000000028152600401602060405180830381600087803b1515611c8657600080fd5b5af11515611c9357600080fd5b5050506040518051905073ffffffffffffffffffffffffffffffffffffffff16600160009054906101000a900473ffffffffffffffffffffffffffffffffffffffff1673ffffffffffffffffffffffffffffffffffffffff16141515611dcf576000809054906101000a900473ffffffffffffffffffffffffffffffffffffffff1673ffffffffffffffffffffffffffffffffffffffff166338cc48316040518163ffffffff167c0100000000000000000000000000000000000000000000000000000000028152600401602060405180830381600087803b1515611d7757600080fd5b5af11515611d8457600080fd5b50505060405180519050600160006101000a81548173ffffffffffffffffffffffffffffffffffffffff021916908373ffffffffffffffffffffffffffffffffffffffff1602179055505b600160009054906101000a900473ffffffffffffffffffffffffffffffffffffffff1673ffffffffffffffffffffffffffffffffffffffff1663524f3889836040518263ffffffff167c01000000000000000000000000000000000000000000000000000000000281526004018080602001828103825283818151815260200191508051906020019080838360005b83811015611e79578082015181840152602081019050611e5e565b50505050905090810190601f168015611ea65780820380516001836020036101000a031916815260200191505b5092505050602060405180830381600087803b1515611ec457600080fd5b5af11515611ed157600080fd5b505050604051805190509050919050565b60008060008060009054906101000a900473ffffffffffffffffffffffffffffffffffffffff1673ffffffffffffffffffffffffffffffffffffffff161480611f5457506000611f526000809054906101000a900473ffffffffffffffffffffffffffffffffffffffff166128e3565b145b15611f6557611f6360006128ee565b505b6000809054906101000a900473ffffffffffffffffffffffffffffffffffffffff1673ffffffffffffffffffffffffffffffffffffffff166338cc48316040518163ffffffff167c0100000000000000000000000000000000000000000000000000000000028152600401602060405180830381600087803b1515611fe957600080fd5b5af11515611ff657600080fd5b5050506040518051905073ffffffffffffffffffffffffffffffffffffffff16600160009054906101000a900473ffffffffffffffffffffffffffffffffffffffff1673ffffffffffffffffffffffffffffffffffffffff16141515612132576000809054906101000a900473ffffffffffffffffffffffffffffffffffffffff1673ffffffffffffffffffffffffffffffffffffffff166338cc48316040518163ffffffff167c0100000000000000000000000000000000000000000000000000000000028152600401602060405180830381600087803b15156120da57600080fd5b5af115156120e757600080fd5b50505060405180519050600160006101000a81548173ffffffffffffffffffffffffffffffffffffffff021916908373ffffffffffffffffffffffffffffffffffffffff1602179055505b600160009054906101000a900473ffffffffffffffffffffffffffffffffffffffff1673ffffffffffffffffffffffffffffffffffffffff1663524f3889866040518263ffffffff167c01000000000000000000000000000000000000000000000000000000000281526004018080602001828103825283818151815260200191508051906020019080838360005b838110156121dc5780820151818401526020810190506121c1565b50505050905090810190601f1680156122095780820380516001836020036101000a031916815260200191505b5092505050602060405180830381600087803b151561222757600080fd5b5af1151561223457600080fd5b50505060405180519050905062030d403a02670de0b6b3a7640000018111156122635760006001029150612456565b600160009054906101000a900473ffffffffffffffffffffffffffffffffffffffff1673ffffffffffffffffffffffffffffffffffffffff1663772286598260008888886040518663ffffffff167c010000000000000000000000000000000000000000000000000000000002815260040180858152602001806020018060200180602001848103845287818151815260200191508051906020019080838360005b83811015612320578082015181840152602081019050612305565b50505050905090810190601f16801561234d5780820380516001836020036101000a031916815260200191505b50848103835286818151815260200191508051906020019080838360005b8381101561238657808201518184015260208101905061236b565b50505050905090810190601f1680156123b35780820380516001836020036101000a031916815260200191505b50848103825285818151815260200191508051906020019080838360005b838110156123ec5780820151818401526020810190506123d1565b50505050905090810190601f1680156124195780820380516001836020036101000a031916815260200191505b509750505050505050506020604051808303818588803b151561243b57600080fd5b5af1151561244857600080fd5b505050506040518051905091505b509392505050565b6124666130a2565b6124a383836020604051908101604052806000815250602060405190810160405280600081525060206040519081016040528060008152506124ab565b905092915050565b6124b36130a2565b6124bb6130b6565b6124c36130b6565b6124cb6130b6565b6124d36130b6565b6124db6130b6565b6124e36130a2565b6124eb6130b6565b6000808e98508d97508c96508b95508a94508451865188518a518c51010101016040518059106125185750595b9080825280601f01601f1916602001820160405250935083925060009150600090505b88518110156125ee57888181518110151561255257fe5b9060200101517f010000000000000000000000000000000000000000000000000000000000000090047f01000000000000000000000000000000000000000000000000000000000000000283838060010194508151811015156125b157fe5b9060200101907effffffffffffffffffffffffffffffffffffffffffffffffffffffffffffff1916908160001a905350808060010191505061253b565b600090505b87518110156126a657878181518110151561260a57fe5b9060200101517f010000000000000000000000000000000000000000000000000000000000000090047f010000000000000000000000000000000000000000000000000000000000000002838380600101945081518110151561266957fe5b9060200101907effffffffffffffffffffffffffffffffffffffffffffffffffffffffffffff1916908160001a90535080806001019150506125f3565b600090505b865181101561275e5786818151811015156126c257fe5b9060200101517f010000000000000000000000000000000000000000000000000000000000000090047f010000000000000000000000000000000000000000000000000000000000000002838380600101945081518110151561272157fe5b9060200101907effffffffffffffffffffffffffffffffffffffffffffffffffffffffffffff1916908160001a90535080806001019150506126ab565b600090505b855181101561281657858181518110151561277a57fe5b9060200101517f010000000000000000000000000000000000000000000000000000000000000090047f01000000000000000000000000000000000000000000000000000000000000000283838060010194508151811015156127d957fe5b9060200101907effffffffffffffffffffffffffffffffffffffffffffffffffffffffffffff1916908160001a9053508080600101915050612763565b600090505b84518110156128ce57848181518110151561283257fe5b9060200101517f010000000000000000000000000000000000000000000000000000000000000090047f010000000000000000000000000000000000000000000000000000000000000002838380600101945081518110151561289157fe5b9060200101907effffffffffffffffffffffffffffffffffffffffffffffffffffffffffffff1916908160001a905350808060010191505061281b565b82995050505050505050505095945050505050565b6000813b9050919050565b60006128f8612bf9565b9050919050565b60006129096130b6565b60008060008693506000925060009150600090505b8351811015612bda5760307f010000000000000000000000000000000000000000000000000000000000000002848281518110151561295957fe5b9060200101517f010000000000000000000000000000000000000000000000000000000000000090047f0100000000000000000000000000000000000000000000000000000000000000027effffffffffffffffffffffffffffffffffffffffffffffffffffffffffffff191610158015612a71575060397f0100000000000000000000000000000000000000000000000000000000000000028482815181101515612a0157fe5b9060200101517f010000000000000000000000000000000000000000000000000000000000000090047f0100000000000000000000000000000000000000000000000000000000000000027effffffffffffffffffffffffffffffffffffffffffffffffffffffffffffff191611155b15612b22578115612a94576000861415612a8a57612bda565b8580600190039650505b600a8302925060308482815181101515612aaa57fe5b9060200101517f010000000000000000000000000000000000000000000000000000000000000090047f0100000000000000000000000000000000000000000000000000000000000000027f010000000000000000000000000000000000000000000000000000000000000090040383019250612bcd565b602e7f0100000000000000000000000000000000000000000000000000000000000000028482815181101515612b5457fe5b9060200101517f010000000000000000000000000000000000000000000000000000000000000090047f0100000000000000000000000000000000000000000000000000000000000000027effffffffffffffffffffffffffffffffffffffffffffffffffffffffffffff19161415612bcc57600191505b5b808060010191505061291e565b6000861115612bec5785600a0a830292505b8294505050505092915050565b600080612c19731d3b2638a7cc9f2cb3d298a3da7a90b67e5506ed6128e3565b1115612cba57731d3b2638a7cc9f2cb3d298a3da7a90b67e5506ed6000806101000a81548173ffffffffffffffffffffffffffffffffffffffff021916908373ffffffffffffffffffffffffffffffffffffffff160217905550612cb16040805190810160405280600b81526020017f6574685f6d61696e6e6574000000000000000000000000000000000000000000815250613088565b60019050613085565b6000612cd973c03a2615d5efaf5f49f60b7bb6583eaec212fdf16128e3565b1115612d7a5773c03a2615d5efaf5f49f60b7bb6583eaec212fdf16000806101000a81548173ffffffffffffffffffffffffffffffffffffffff021916908373ffffffffffffffffffffffffffffffffffffffff160217905550612d716040805190810160405280600c81526020017f6574685f726f707374656e330000000000000000000000000000000000000000815250613088565b60019050613085565b6000612d9973b7a07bcf2ba2f2703b24c0691b5278999c59ac7e6128e3565b1115612e3a5773b7a07bcf2ba2f2703b24c0691b5278999c59ac7e6000806101000a81548173ffffffffffffffffffffffffffffffffffffffff021916908373ffffffffffffffffffffffffffffffffffffffff160217905550612e316040805190810160405280600981526020017f6574685f6b6f76616e0000000000000000000000000000000000000000000000815250613088565b60019050613085565b6000612e5973146500cfd35b22e4a392fe0adc06de1a1368ed486128e3565b1115612efa5773146500cfd35b22e4a392fe0adc06de1a1368ed486000806101000a81548173ffffffffffffffffffffffffffffffffffffffff021916908373ffffffffffffffffffffffffffffffffffffffff160217905550612ef16040805190810160405280600b81526020017f6574685f72696e6b656279000000000000000000000000000000000000000000815250613088565b60019050613085565b6000612f19736f485c8bf6fc43ea212e93bbf8ce046c7f1cb4756128e3565b1115612f7c57736f485c8bf6fc43ea212e93bbf8ce046c7f1cb4756000806101000a81548173ffffffffffffffffffffffffffffffffffffffff021916908373ffffffffffffffffffffffffffffffffffffffff16021790555060019050613085565b6000612f9b7320e12a1f859b3feae5fb2a0a32c18f5a65555bbf6128e3565b1115612ffe577320e12a1f859b3feae5fb2a0a32c18f5a65555bbf6000806101000a81548173ffffffffffffffffffffffffffffffffffffffff021916908373ffffffffffffffffffffffffffffffffffffffff16021790555060019050613085565b600061301d7351efaf4c8b3c9afbd5ab9f4bbc82784ab6ef8faa6128e3565b1115613080577351efaf4c8b3c9afbd5ab9f4bbc82784ab6ef8faa6000806101000a81548173ffffffffffffffffffffffffffffffffffffffff021916908373ffffffffffffffffffffffffffffffffffffffff16021790555060019050613085565b600090505b90565b806002908051906020019061309e9291906130ca565b5050565b602060405190810160405280600081525090565b602060405190810160405280600081525090565b828054600181600116156101000203166002900490600052602060002090601f016020900481019282601f1061310b57805160ff1916838001178555613139565b82800160010185558215613139579182015b8281111561313857825182559160200191906001019061311d565b5b509050613146919061314a565b5090565b61316c91905b80821115613168576000816000905550600101613150565b5090565b905600a165627a7a723058204b8c4d31fae64659f69687ea4e6c37594207638b26bbe42b1af96b35e9a4f8260029",
  "source": "pragma solidity ^0.4.21;\r\n\r\nimport \"./libraries/SafeMath.sol\";\r\nimport \"./Oraclize/Oraclize_API.sol\";\r\n\r\n\r\n\r\n//This is the basic wrapped Ether to a different chain contract. \r\n//All money deposited is transformed into ERC20 tokens at the rate of 1 wei = 1 token\r\n  /*You push money when you transfer (delete money here).  If it doesn't go through, you can check to see if transfer ID went through\r\n  --How do we deal with livliness assumption? (do we?)\r\n-We need to add ERC20 functionality to represent the Ether transferred from the other contract\r\n  */\r\ncontract Bridge is usingOraclize{\r\n\r\n  using SafeMath for uint256;\r\n\r\n  /***VARIABLES***/\r\n  uint public total_deposited_supply;\r\n  uint transNonce;\r\n  string public partnerBridge; //address of bridge contract on other chain\r\n  string api;\r\n  string parameters;\r\n  address public owner;\r\n  bytes4 private method_data;\r\n  uint public stake;\r\n\r\n  /***STORAGE***/\r\n  mapping(address => uint) deposited_balances;\r\n  mapping(address => bool) members;\r\n  mapping (bytes32 => address) query;\r\n\r\n  /***EVENTS***/\r\n  event JoinedBookClub(address _from, uint _value);\r\n  event LogUpdated(string value);\r\n  event LogNewOraclizeQuery(string description);\r\n  /***FUNCTIONS***/\r\n\r\n  function Bridge() public {\r\n       method_data = this.departingMember.selector;\r\n        setAPI(\"json(https://rinkeby.infura.io/).result\");\r\n       owner = msg.sender;\r\n  }\r\n \r\n  /***MODIFIERS***/\r\n  /// @dev Access modifier for Owner functionality\r\n  modifier onlyOwner() {\r\n      require(msg.sender == owner);\r\n      _;\r\n  }\r\n\r\n  function setOwner (address _owner) public onlyOwner(){\r\n    owner = _owner;\r\n  }\r\n\r\n\r\n  function joinBookClub() payable public returns(uint){\r\n    require(msg.value == stake && members[msg.sender] == false);\r\n    deposited_balances[msg.sender] = msg.value;\r\n    total_deposited_supply += msg.value;\r\n  }\r\n\r\n\r\n    //we need to append address to end of data_string\r\n\r\n  function checkChild(address _user) public payable{\r\n      if (oraclize_getPrice(\"URL\") * 2  > address(this).balance) {\r\n          emit LogNewOraclizeQuery(\"Oraclize query was NOT sent, please add some ETH to cover for the query fee\");\r\n      } else {\r\n          emit LogNewOraclizeQuery(\"Oraclize query was sent for locked balance\");\r\n          string memory _params  = createQuery_value(toAsciiString(_user));\r\n           bytes32 queryId = oraclize_query(\"URL\",api,_params);\r\n             query[queryId] = _user;\r\n          //oraclize_query(\"URL\",\"json(https://ropsten.infura.io/).result\",'{\"jsonrpc\":\"2.0\",\"id\":3,\"method\":\"eth_call\",\"params\":[{\"to\":\"0x76a83b371ab7232706eac16edf2b726f3a2dbe82\",\"data\":\"0xad3b80a8\"}, \"latest\"]}');\r\n   }\r\n  }\r\n\r\n   function __callback(bytes32 myId, string result) public {\r\n        require (msg.sender == oraclize_cbAddress());\r\n        uint _res = parseInt(result);\r\n        if(_res == 1){\r\n          address _User = query[myId];\r\n          _User.transfer(stake);\r\n        }\r\n    }\r\n\r\n  function setPartnerBridge(string _connected) public onlyOwner(){\r\n    partnerBridge = strConcat('\"',_connected,'\"');\r\n  }\r\n\r\n\r\n  //try: \"json(https://localhost:8545).result\"\r\n  function setAPI(string _api) public onlyOwner(){\r\n      api = _api; //\"json(https://ropsten.infura.io/).result\"\r\n    }\r\n\r\n    //can make internal once it works\r\n    //check id (60 is an open, so we can try it)\r\n    function createQuery_value(string _member_address) public constant returns(string){\r\n      string memory _code = strConcat(fromCode(method_data),_member_address);\r\n      string memory _part = ' {\"jsonrpc\":\"2.0\",\"id\":4,\"method\":\"eth_call\",\"params\":[{\"to\":';\r\n      string memory _params2 = strConcat(_part,partnerBridge,',\"data\":\"',_code,'\"},\"latest\"]}');\r\n      return _params2;\r\n    }\r\n\r\n\r\n\r\n  function getDeposit(address _user) public returns(uint){\r\n    return deposited_balances[_user];\r\n  }\r\n  function departingMember(address _former) public returns(uint){\r\n  }\r\n\r\n\r\n  function fromCode(bytes4 code) public view returns (string) {                                                                                    \r\n    bytes memory result = new bytes(10);                                                                                                         \r\n    result[0] = byte('0');\r\n    result[1] = byte('x');\r\n    for (uint i=0; i<4; ++i) {\r\n        result[2*i+2] = toHexDigit(uint8(code[i])/16);\r\n        result[2*i+3] = toHexDigit(uint8(code[i])%16);\r\n    }\r\n    return string(result);\r\n}\r\n\r\n    function toHexDigit(uint8 d) pure internal returns (byte) {                                                                                      \r\n    if (0 <= d && d <= 9) {                                                                                                                      \r\n        return byte(uint8(byte('0')) + d);                                                                                                       \r\n    } else if (10 <= uint8(d) && uint8(d) <= 15) {                                                                                               \r\n        return byte(uint8(byte('a')) + d - 10);                                                                                                  \r\n    }                                                                                                                                            \r\n    revert();                                                                                                                                    \r\n}                                                                                                                                                \r\n\r\n\r\n\r\nfunction toAsciiString(address x) returns (string) {\r\n    bytes memory s = new bytes(40);\r\n    for (uint i = 0; i < 20; i++) {\r\n        byte b = byte(uint8(uint(x) / (2**(8*(19 - i)))));\r\n        byte hi = byte(uint8(b) / 16);\r\n        byte lo = byte(uint8(b) - 16 * uint8(hi));\r\n        s[2*i] = char(hi);\r\n        s[2*i+1] = char(lo);            \r\n    }\r\n    return string(s);\r\n}\r\n\r\nfunction char(byte b) returns (byte c) {\r\n    if (b < 10) return byte(uint8(b) + 0x30);\r\n    else return byte(uint8(b) + 0x57);\r\n}\r\n\r\n\r\n}\r\n",
  "sourcePath": "C:\\Nick\\hackital\\ethereumBookClub\\contracts\\Bridge.sol",
  "compiler": {
    "name": "solc",
    "version": "0.4.21+commit.dfe3193c.Emscripten.clang"
  },
  "schemaVersion": "2.0.0",
  "updatedAt": "2018-04-28T20:37:09.575Z"
}