{
  "contractName": "Bridge",
  "abi": [
    {
      "constant": true,
      "inputs": [],
      "name": "partnerBridge",
      "outputs": [
        {
          "name": "",
          "type": "string"
        }
      ],
      "payable": false,
      "stateMutability": "view",
      "type": "function"
    },
    {
      "constant": true,
      "inputs": [],
      "name": "stake",
      "outputs": [
        {
          "name": "",
          "type": "uint256"
        }
      ],
      "payable": false,
      "stateMutability": "view",
      "type": "function"
    },
    {
      "constant": true,
      "inputs": [],
      "name": "owner",
      "outputs": [
        {
          "name": "",
          "type": "address"
        }
      ],
      "payable": false,
      "stateMutability": "view",
      "type": "function"
    },
    {
      "constant": true,
      "inputs": [],
      "name": "total_deposited_supply",
      "outputs": [
        {
          "name": "",
          "type": "uint256"
        }
      ],
      "payable": false,
      "stateMutability": "view",
      "type": "function"
    },
    {
      "inputs": [],
      "payable": false,
      "stateMutability": "nonpayable",
      "type": "constructor"
    },
    {
      "anonymous": false,
      "inputs": [
        {
          "indexed": false,
          "name": "_from",
          "type": "address"
        }
      ],
      "name": "JoinedBookClub",
      "type": "event"
    },
    {
      "anonymous": false,
      "inputs": [
        {
          "indexed": false,
          "name": "value",
          "type": "string"
        }
      ],
      "name": "LogUpdated",
      "type": "event"
    },
    {
      "anonymous": false,
      "inputs": [
        {
          "indexed": false,
          "name": "description",
          "type": "string"
        }
      ],
      "name": "LogNewOraclizeQuery",
      "type": "event"
    },
    {
      "constant": false,
      "inputs": [
        {
          "name": "_fee",
          "type": "uint256"
        }
      ],
      "name": "setFee",
      "outputs": [],
      "payable": false,
      "stateMutability": "nonpayable",
      "type": "function"
    },
    {
      "constant": false,
      "inputs": [
        {
          "name": "_owner",
          "type": "address"
        }
      ],
      "name": "setOwner",
      "outputs": [],
      "payable": false,
      "stateMutability": "nonpayable",
      "type": "function"
    },
    {
      "constant": true,
      "inputs": [
        {
          "name": "_user",
          "type": "address"
        }
      ],
      "name": "isMember",
      "outputs": [
        {
          "name": "",
          "type": "bool"
        }
      ],
      "payable": false,
      "stateMutability": "view",
      "type": "function"
    },
    {
      "constant": false,
      "inputs": [],
      "name": "joinBookClub",
      "outputs": [
        {
          "name": "",
          "type": "uint256"
        }
      ],
      "payable": true,
      "stateMutability": "payable",
      "type": "function"
    },
    {
      "constant": false,
      "inputs": [
        {
          "name": "_user",
          "type": "address"
        }
      ],
      "name": "checkChild",
      "outputs": [],
      "payable": true,
      "stateMutability": "payable",
      "type": "function"
    },
    {
      "constant": false,
      "inputs": [
        {
          "name": "myid",
          "type": "bytes32"
        },
        {
          "name": "result",
          "type": "string"
        },
        {
          "name": "proof",
          "type": "bytes"
        }
      ],
      "name": "__callback",
      "outputs": [],
      "payable": false,
      "stateMutability": "nonpayable",
      "type": "function"
    },
    {
      "constant": false,
      "inputs": [
        {
          "name": "myId",
          "type": "bytes32"
        },
        {
          "name": "result",
          "type": "string"
        }
      ],
      "name": "__callback",
      "outputs": [],
      "payable": false,
      "stateMutability": "nonpayable",
      "type": "function"
    },
    {
      "constant": false,
      "inputs": [
        {
          "name": "_connected",
          "type": "string"
        }
      ],
      "name": "setPartnerBridge",
      "outputs": [],
      "payable": false,
      "stateMutability": "nonpayable",
      "type": "function"
    },
    {
      "constant": false,
      "inputs": [
        {
          "name": "_api",
          "type": "string"
        }
      ],
      "name": "setAPI",
      "outputs": [],
      "payable": false,
      "stateMutability": "nonpayable",
      "type": "function"
    },
    {
      "constant": true,
      "inputs": [
        {
          "name": "_member_address",
          "type": "string"
        }
      ],
      "name": "createQuery_value",
      "outputs": [
        {
          "name": "",
          "type": "string"
        }
      ],
      "payable": false,
      "stateMutability": "view",
      "type": "function"
    },
    {
      "constant": false,
      "inputs": [
        {
          "name": "_former",
          "type": "address"
        }
      ],
      "name": "departingMember",
      "outputs": [
        {
          "name": "",
          "type": "uint256"
        }
      ],
      "payable": false,
      "stateMutability": "nonpayable",
      "type": "function"
    },
    {
      "constant": true,
      "inputs": [
        {
          "name": "code",
          "type": "bytes4"
        }
      ],
      "name": "fromCode",
      "outputs": [
        {
          "name": "",
          "type": "string"
        }
      ],
      "payable": false,
      "stateMutability": "view",
      "type": "function"
    },
    {
      "constant": false,
      "inputs": [
        {
          "name": "x",
          "type": "address"
        }
      ],
      "name": "toAsciiString",
      "outputs": [
        {
          "name": "",
          "type": "string"
        }
      ],
      "payable": false,
      "stateMutability": "nonpayable",
      "type": "function"
    },
    {
      "constant": false,
      "inputs": [
        {
          "name": "b",
          "type": "bytes1"
        }
      ],
      "name": "char",
      "outputs": [
        {
          "name": "c",
          "type": "bytes1"
        }
      ],
      "payable": false,
      "stateMutability": "nonpayable",
      "type": "function"
    }
  ],
  "bytecode": "0x606060405234156200001057600080fd5b634fb9eda97c010000000000000000000000000000000000000000000000000000000002600960146101000a81548163ffffffff02191690837c01000000000000000000000000000000000000000000000000000000009004021790555033600960006101000a81548173ffffffffffffffffffffffffffffffffffffffff021916908373ffffffffffffffffffffffffffffffffffffffff1602179055506200012a606060405190810160405280602781526020017f6a736f6e2868747470733a2f2f726f707374656e2e696e667572612e696f2f2981526020017f2e726573756c74000000000000000000000000000000000000000000000000008152506200013064010000000002620014ca176401000000009004565b62000258565b600960009054906101000a900473ffffffffffffffffffffffffffffffffffffffff1673ffffffffffffffffffffffffffffffffffffffff163373ffffffffffffffffffffffffffffffffffffffff161415156200018d57600080fd5b8060089080519060200190620001a5929190620001a9565b5050565b828054600181600116156101000203166002900490600052602060002090601f016020900481019282601f10620001ec57805160ff19168380011785556200021d565b828001600101855582156200021d579182015b828111156200021c578251825591602001919060010190620001ff565b5b5090506200022c919062000230565b5090565b6200025591905b808211156200025157600081600090555060010162000237565b5090565b90565b61321180620002686000396000f3006060604052600436106100fc576000357c0100000000000000000000000000000000000000000000000000000000900463ffffffff16806313af40351461010157806322c22a201461013a57806327dc297e146101c85780632c0ad2ad146102325780632c6e7598146102ed5780633059a2b41461039f57806338bbfa50146103fc5780633a4b66f1146104a957806346360b4f146104d25780634fb9eda91461050057806362fafc911461054d578063696cf2a01461062357806369f9ad2f1461068057806369fe0e2d1461071d5780638da5cb5b14610740578063a230c52414610795578063df6b9726146107e6578063f74c8c9c14610804575b600080fd5b341561010c57600080fd5b610138600480803573ffffffffffffffffffffffffffffffffffffffff1690602001909190505061082d565b005b341561014557600080fd5b61014d6108cd565b6040518080602001828103825283818151815260200191508051906020019080838360005b8381101561018d578082015181840152602081019050610172565b50505050905090810190601f1680156101ba5780820380516001836020036101000a031916815260200191505b509250505060405180910390f35b34156101d357600080fd5b61023060048080356000191690602001909190803590602001908201803590602001908080601f0160208091040260200160405190810160405280939291908181526020018383808284378201915050505050509190505061096b565b005b341561023d57600080fd5b61027260048080357bffffffffffffffffffffffffffffffffffffffffffffffffffffffff1916906020019091905050610a4a565b6040518080602001828103825283818151815260200191508051906020019080838360005b838110156102b2578082015181840152602081019050610297565b50505050905090810190601f1680156102df5780820380516001836020036101000a031916815260200191505b509250505060405180910390f35b34156102f857600080fd5b610324600480803573ffffffffffffffffffffffffffffffffffffffff16906020019091905050610cc3565b6040518080602001828103825283818151815260200191508051906020019080838360005b83811015610364578082015181840152602081019050610349565b50505050905090810190601f1680156103915780820380516001836020036101000a031916815260200191505b509250505060405180910390f35b34156103aa57600080fd5b6103fa600480803590602001908201803590602001908080601f01602080910402602001604051908101604052809392919081815260200183838082843782019150505050505091905050610ed4565b005b341561040757600080fd5b6104a760048080356000191690602001909190803590602001908201803590602001908080601f0160208091040260200160405190810160405280939291908181526020018383808284378201915050505050509190803590602001908201803590602001908080601f01602080910402602001604051908101604052809392919081815260200183838082843782019150505050505091905050610fbe565b005b34156104b457600080fd5b6104bc610fc3565b6040518082815260200191505060405180910390f35b6104fe600480803573ffffffffffffffffffffffffffffffffffffffff16906020019091905050610fc9565b005b341561050b57600080fd5b610537600480803573ffffffffffffffffffffffffffffffffffffffff169060200190919050506112b1565b6040518082815260200191505060405180910390f35b341561055857600080fd5b6105a8600480803590602001908201803590602001908080601f016020809104026020016040519081016040528093929190818152602001838380828437820191505050505050919050506112b8565b6040518080602001828103825283818151815260200191508051906020019080838360005b838110156105e85780820151818401526020810190506105cd565b50505050905090810190601f1680156106155780820380516001836020036101000a031916815260200191505b509250505060405180910390f35b341561062e57600080fd5b61067e600480803590602001908201803590602001908080601f016020809104026020016040519081016040528093929190818152602001838380828437820191505050505050919050506114ca565b005b341561068b57600080fd5b6106c360048080357effffffffffffffffffffffffffffffffffffffffffffffffffffffffffffff1916906020019091905050611540565b60405180827effffffffffffffffffffffffffffffffffffffffffffffffffffffffffffff19167effffffffffffffffffffffffffffffffffffffffffffffffffffffffffffff1916815260200191505060405180910390f35b341561072857600080fd5b61073e6004808035906020019091905050611630565b005b341561074b57600080fd5b610753611696565b604051808273ffffffffffffffffffffffffffffffffffffffff1673ffffffffffffffffffffffffffffffffffffffff16815260200191505060405180910390f35b34156107a057600080fd5b6107cc600480803573ffffffffffffffffffffffffffffffffffffffff169060200190919050506116bc565b604051808215151515815260200191505060405180910390f35b6107ee611719565b6040518082815260200191505060405180910390f35b341561080f57600080fd5b6108176117d6565b6040518082815260200191505060405180910390f35b600960009054906101000a900473ffffffffffffffffffffffffffffffffffffffff1673ffffffffffffffffffffffffffffffffffffffff163373ffffffffffffffffffffffffffffffffffffffff1614151561088957600080fd5b80600960006101000a81548173ffffffffffffffffffffffffffffffffffffffff021916908373ffffffffffffffffffffffffffffffffffffffff16021790555050565b60078054600181600116156101000203166002900480601f0160208091040260200160405190810160405280929190818152602001828054600181600116156101000203166002900480156109635780601f1061093857610100808354040283529160200191610963565b820191906000526020600020905b81548152906001019060200180831161094657829003601f168201915b505050505081565b6000806109766117dc565b73ffffffffffffffffffffffffffffffffffffffff163373ffffffffffffffffffffffffffffffffffffffff161415156109af57600080fd5b6109b883611acb565b91506001821415610a4457600c6000856000191660001916815260200190815260200160002060009054906101000a900473ffffffffffffffffffffffffffffffffffffffff1690508073ffffffffffffffffffffffffffffffffffffffff166108fc600a549081150290604051600060405180830381858888f193505050501515610a4357600080fd5b5b50505050565b610a52613118565b610a5a61312c565b6000600a604051805910610a6b5750595b9080825280601f01601f191660200182016040525091507f3000000000000000000000000000000000000000000000000000000000000000826000815181101515610ab257fe5b9060200101907effffffffffffffffffffffffffffffffffffffffffffffffffffffffffffff1916908160001a9053507f7800000000000000000000000000000000000000000000000000000000000000826001815181101515610b1257fe5b9060200101907effffffffffffffffffffffffffffffffffffffffffffffffffffffffffffff1916908160001a905350600090505b6004811015610cb957610bbb60108583600481101515610b6357fe5b1a7f0100000000000000000000000000000000000000000000000000000000000000027f0100000000000000000000000000000000000000000000000000000000000000900460ff16811515610bb557fe5b04611adf565b8260028360020201815181101515610bcf57fe5b9060200101907effffffffffffffffffffffffffffffffffffffffffffffffffffffffffffff1916908160001a905350610c6a60108583600481101515610c1257fe5b1a7f0100000000000000000000000000000000000000000000000000000000000000027f0100000000000000000000000000000000000000000000000000000000000000900460ff16811515610c6457fe5b06611adf565b8260038360020201815181101515610c7e57fe5b9060200101907effffffffffffffffffffffffffffffffffffffffffffffffffffffffffffff1916908160001a905350806001019050610b47565b8192505050919050565b610ccb613118565b610cd361312c565b6000806000806028604051805910610ce85750595b9080825280601f01601f19166020018201604052509450600093505b6014841015610ec7578360130360080260020a8773ffffffffffffffffffffffffffffffffffffffff16811515610d3757fe5b047f01000000000000000000000000000000000000000000000000000000000000000292506010837f0100000000000000000000000000000000000000000000000000000000000000900460ff16811515610d8e57fe5b047f0100000000000000000000000000000000000000000000000000000000000000029150817f01000000000000000000000000000000000000000000000000000000000000009004601002837f01000000000000000000000000000000000000000000000000000000000000009004037f0100000000000000000000000000000000000000000000000000000000000000029050610e2c82611540565b8585600202815181101515610e3d57fe5b9060200101907effffffffffffffffffffffffffffffffffffffffffffffffffffffffffffff1916908160001a905350610e7681611540565b8560018660020201815181101515610e8a57fe5b9060200101907effffffffffffffffffffffffffffffffffffffffffffffffffffffffffffff1916908160001a9053508380600101945050610d04565b8495505050505050919050565b600960009054906101000a900473ffffffffffffffffffffffffffffffffffffffff1673ffffffffffffffffffffffffffffffffffffffff163373ffffffffffffffffffffffffffffffffffffffff16141515610f3057600080fd5b610fa56040805190810160405280600181526020017f2200000000000000000000000000000000000000000000000000000000000000815250826040805190810160405280600181526020017f2200000000000000000000000000000000000000000000000000000000000000815250611c06565b60079080519060200190610fba929190613140565b5050565b505050565b600a5481565b610fd1613118565b60003460026110146040805190810160405280600381526020017f55524c0000000000000000000000000000000000000000000000000000000000815250611c44565b0211156110d4577f621c2856e3b87f81235f8ac8a22bbb40a0142961960710d00b2b6c380902b57e60405180806020018281038252604b8152602001807f4f7261636c697a6520717565727920776173204e4f542073656e742c20706c6581526020017f6173652061646420736f6d652045544820746f20636f76657220666f7220746881526020017f652071756572792066656500000000000000000000000000000000000000000081525060600191505060405180910390a16112ac565b7f621c2856e3b87f81235f8ac8a22bbb40a0142961960710d00b2b6c380902b57e60405180806020018281038252602a8152602001807f4f7261636c697a65207175657279207761732073656e7420666f72206c6f636b81526020017f65642062616c616e63650000000000000000000000000000000000000000000081525060400191505060405180910390a161117361116e84610cc3565b6112b8565b915061124f6040805190810160405280600381526020017f55524c000000000000000000000000000000000000000000000000000000000081525060088054600181600116156101000203166002900480601f0160208091040260200160405190810160405280929190818152602001828054600181600116156101000203166002900480156112445780601f1061121957610100808354040283529160200191611244565b820191906000526020600020905b81548152906001019060200180831161122757829003601f168201915b505050505084611fa5565b905082600c6000836000191660001916815260200190815260200160002060006101000a81548173ffffffffffffffffffffffffffffffffffffffff021916908373ffffffffffffffffffffffffffffffffffffffff1602179055505b505050565b6000919050565b6112c0613118565b6112c8613118565b6112d0613118565b6112d8613118565b61134b61130f600960149054906101000a90047c010000000000000000000000000000000000000000000000000000000002610a4a565b6040805190810160405280601881526020017f303030303030303030303030303030303030303030303030000000000000000081525087611c06565b9250606060405190810160405280603d81526020017f207b226a736f6e727063223a22322e30222c226964223a342c226d6574686f6481526020017f223a226574685f63616c6c222c22706172616d73223a5b7b22746f223a00000081525091506114bd8260078054600181600116156101000203166002900480601f0160208091040260200160405190810160405280929190818152602001828054600181600116156101000203166002900480156114465780601f1061141b57610100808354040283529160200191611446565b820191906000526020600020905b81548152906001019060200180831161142957829003601f168201915b50505050506040805190810160405280600981526020017f2c2264617461223a220000000000000000000000000000000000000000000000815250866040805190810160405280600d81526020017f227d2c226c6174657374225d7d00000000000000000000000000000000000000815250612521565b9050809350505050919050565b600960009054906101000a900473ffffffffffffffffffffffffffffffffffffffff1673ffffffffffffffffffffffffffffffffffffffff163373ffffffffffffffffffffffffffffffffffffffff1614151561152657600080fd5b806008908051906020019061153c929190613140565b5050565b6000600a7f010000000000000000000000000000000000000000000000000000000000000002827effffffffffffffffffffffffffffffffffffffffffffffffffffffffffffff191610156115df576030827f01000000000000000000000000000000000000000000000000000000000000009004017f010000000000000000000000000000000000000000000000000000000000000002905061162b565b6057827f01000000000000000000000000000000000000000000000000000000000000009004017f01000000000000000000000000000000000000000000000000000000000000000290505b919050565b600960009054906101000a900473ffffffffffffffffffffffffffffffffffffffff1673ffffffffffffffffffffffffffffffffffffffff163373ffffffffffffffffffffffffffffffffffffffff1614151561168c57600080fd5b80600a8190555050565b600960009054906101000a900473ffffffffffffffffffffffffffffffffffffffff1681565b600080600090506000600b60008573ffffffffffffffffffffffffffffffffffffffff1673ffffffffffffffffffffffffffffffffffffffff16815260200190815260200160002054111561171057600190505b80915050919050565b60006001600b60003373ffffffffffffffffffffffffffffffffffffffff1673ffffffffffffffffffffffffffffffffffffffff16815260200190815260200160002081905550346005600082825401925050819055507fb5b0b2aa87a8c25fd9d3877caf6f9af759ae24eb4fc766caf6803760df0b9e2233604051808273ffffffffffffffffffffffffffffffffffffffff1673ffffffffffffffffffffffffffffffffffffffff16815260200191505060405180910390a190565b60055481565b6000806000809054906101000a900473ffffffffffffffffffffffffffffffffffffffff1673ffffffffffffffffffffffffffffffffffffffff16148061184c5750600061184a6000809054906101000a900473ffffffffffffffffffffffffffffffffffffffff16612959565b145b1561185d5761185b6000612964565b505b6000809054906101000a900473ffffffffffffffffffffffffffffffffffffffff1673ffffffffffffffffffffffffffffffffffffffff166338cc48316040518163ffffffff167c0100000000000000000000000000000000000000000000000000000000028152600401602060405180830381600087803b15156118e157600080fd5b5af115156118ee57600080fd5b5050506040518051905073ffffffffffffffffffffffffffffffffffffffff16600160009054906101000a900473ffffffffffffffffffffffffffffffffffffffff1673ffffffffffffffffffffffffffffffffffffffff16141515611a2a576000809054906101000a900473ffffffffffffffffffffffffffffffffffffffff1673ffffffffffffffffffffffffffffffffffffffff166338cc48316040518163ffffffff167c0100000000000000000000000000000000000000000000000000000000028152600401602060405180830381600087803b15156119d257600080fd5b5af115156119df57600080fd5b50505060405180519050600160006101000a81548173ffffffffffffffffffffffffffffffffffffffff021916908373ffffffffffffffffffffffffffffffffffffffff1602179055505b600160009054906101000a900473ffffffffffffffffffffffffffffffffffffffff1673ffffffffffffffffffffffffffffffffffffffff1663c281d19e6040518163ffffffff167c0100000000000000000000000000000000000000000000000000000000028152600401602060405180830381600087803b1515611aaf57600080fd5b5af11515611abc57600080fd5b50505060405180519050905090565b6000611ad8826000612975565b9050919050565b60008160ff16600011158015611af9575060098260ff1611155b15611b6d57817f30000000000000000000000000000000000000000000000000000000000000007f01000000000000000000000000000000000000000000000000000000000000009004017f0100000000000000000000000000000000000000000000000000000000000000029050611c01565b8160ff16600a11158015611b855750600f8260ff1611155b15611bfc57600a827f61000000000000000000000000000000000000000000000000000000000000007f0100000000000000000000000000000000000000000000000000000000000000900401037f0100000000000000000000000000000000000000000000000000000000000000029050611c01565b600080fd5b919050565b611c0e613118565b611c3b84848460206040519081016040528060008152506020604051908101604052806000815250612521565b90509392505050565b6000806000809054906101000a900473ffffffffffffffffffffffffffffffffffffffff1673ffffffffffffffffffffffffffffffffffffffff161480611cb457506000611cb26000809054906101000a900473ffffffffffffffffffffffffffffffffffffffff16612959565b145b15611cc557611cc36000612964565b505b6000809054906101000a900473ffffffffffffffffffffffffffffffffffffffff1673ffffffffffffffffffffffffffffffffffffffff166338cc48316040518163ffffffff167c0100000000000000000000000000000000000000000000000000000000028152600401602060405180830381600087803b1515611d4957600080fd5b5af11515611d5657600080fd5b5050506040518051905073ffffffffffffffffffffffffffffffffffffffff16600160009054906101000a900473ffffffffffffffffffffffffffffffffffffffff1673ffffffffffffffffffffffffffffffffffffffff16141515611e92576000809054906101000a900473ffffffffffffffffffffffffffffffffffffffff1673ffffffffffffffffffffffffffffffffffffffff166338cc48316040518163ffffffff167c0100000000000000000000000000000000000000000000000000000000028152600401602060405180830381600087803b1515611e3a57600080fd5b5af11515611e4757600080fd5b50505060405180519050600160006101000a81548173ffffffffffffffffffffffffffffffffffffffff021916908373ffffffffffffffffffffffffffffffffffffffff1602179055505b600160009054906101000a900473ffffffffffffffffffffffffffffffffffffffff1673ffffffffffffffffffffffffffffffffffffffff1663524f3889836040518263ffffffff167c01000000000000000000000000000000000000000000000000000000000281526004018080602001828103825283818151815260200191508051906020019080838360005b83811015611f3c578082015181840152602081019050611f21565b50505050905090810190601f168015611f695780820380516001836020036101000a031916815260200191505b5092505050602060405180830381600087803b1515611f8757600080fd5b5af11515611f9457600080fd5b505050604051805190509050919050565b60008060008060009054906101000a900473ffffffffffffffffffffffffffffffffffffffff1673ffffffffffffffffffffffffffffffffffffffff161480612017575060006120156000809054906101000a900473ffffffffffffffffffffffffffffffffffffffff16612959565b145b15612028576120266000612964565b505b6000809054906101000a900473ffffffffffffffffffffffffffffffffffffffff1673ffffffffffffffffffffffffffffffffffffffff166338cc48316040518163ffffffff167c0100000000000000000000000000000000000000000000000000000000028152600401602060405180830381600087803b15156120ac57600080fd5b5af115156120b957600080fd5b5050506040518051905073ffffffffffffffffffffffffffffffffffffffff16600160009054906101000a900473ffffffffffffffffffffffffffffffffffffffff1673ffffffffffffffffffffffffffffffffffffffff161415156121f5576000809054906101000a900473ffffffffffffffffffffffffffffffffffffffff1673ffffffffffffffffffffffffffffffffffffffff166338cc48316040518163ffffffff167c0100000000000000000000000000000000000000000000000000000000028152600401602060405180830381600087803b151561219d57600080fd5b5af115156121aa57600080fd5b50505060405180519050600160006101000a81548173ffffffffffffffffffffffffffffffffffffffff021916908373ffffffffffffffffffffffffffffffffffffffff1602179055505b600160009054906101000a900473ffffffffffffffffffffffffffffffffffffffff1673ffffffffffffffffffffffffffffffffffffffff1663524f3889866040518263ffffffff167c01000000000000000000000000000000000000000000000000000000000281526004018080602001828103825283818151815260200191508051906020019080838360005b8381101561229f578082015181840152602081019050612284565b50505050905090810190601f1680156122cc5780820380516001836020036101000a031916815260200191505b5092505050602060405180830381600087803b15156122ea57600080fd5b5af115156122f757600080fd5b50505060405180519050905062030d403a02670de0b6b3a7640000018111156123265760006001029150612519565b600160009054906101000a900473ffffffffffffffffffffffffffffffffffffffff1673ffffffffffffffffffffffffffffffffffffffff1663772286598260008888886040518663ffffffff167c010000000000000000000000000000000000000000000000000000000002815260040180858152602001806020018060200180602001848103845287818151815260200191508051906020019080838360005b838110156123e35780820151818401526020810190506123c8565b50505050905090810190601f1680156124105780820380516001836020036101000a031916815260200191505b50848103835286818151815260200191508051906020019080838360005b8381101561244957808201518184015260208101905061242e565b50505050905090810190601f1680156124765780820380516001836020036101000a031916815260200191505b50848103825285818151815260200191508051906020019080838360005b838110156124af578082015181840152602081019050612494565b50505050905090810190601f1680156124dc5780820380516001836020036101000a031916815260200191505b509750505050505050506020604051808303818588803b15156124fe57600080fd5b5af1151561250b57600080fd5b505050506040518051905091505b509392505050565b612529613118565b61253161312c565b61253961312c565b61254161312c565b61254961312c565b61255161312c565b612559613118565b61256161312c565b6000808e98508d97508c96508b95508a94508451865188518a518c510101010160405180591061258e5750595b9080825280601f01601f1916602001820160405250935083925060009150600090505b88518110156126645788818151811015156125c857fe5b9060200101517f010000000000000000000000000000000000000000000000000000000000000090047f010000000000000000000000000000000000000000000000000000000000000002838380600101945081518110151561262757fe5b9060200101907effffffffffffffffffffffffffffffffffffffffffffffffffffffffffffff1916908160001a90535080806001019150506125b1565b600090505b875181101561271c57878181518110151561268057fe5b9060200101517f010000000000000000000000000000000000000000000000000000000000000090047f01000000000000000000000000000000000000000000000000000000000000000283838060010194508151811015156126df57fe5b9060200101907effffffffffffffffffffffffffffffffffffffffffffffffffffffffffffff1916908160001a9053508080600101915050612669565b600090505b86518110156127d457868181518110151561273857fe5b9060200101517f010000000000000000000000000000000000000000000000000000000000000090047f010000000000000000000000000000000000000000000000000000000000000002838380600101945081518110151561279757fe5b9060200101907effffffffffffffffffffffffffffffffffffffffffffffffffffffffffffff1916908160001a9053508080600101915050612721565b600090505b855181101561288c5785818151811015156127f057fe5b9060200101517f010000000000000000000000000000000000000000000000000000000000000090047f010000000000000000000000000000000000000000000000000000000000000002838380600101945081518110151561284f57fe5b9060200101907effffffffffffffffffffffffffffffffffffffffffffffffffffffffffffff1916908160001a90535080806001019150506127d9565b600090505b84518110156129445784818151811015156128a857fe5b9060200101517f010000000000000000000000000000000000000000000000000000000000000090047f010000000000000000000000000000000000000000000000000000000000000002838380600101945081518110151561290757fe5b9060200101907effffffffffffffffffffffffffffffffffffffffffffffffffffffffffffff1916908160001a9053508080600101915050612891565b82995050505050505050505095945050505050565b6000813b9050919050565b600061296e612c6f565b9050919050565b600061297f61312c565b60008060008693506000925060009150600090505b8351811015612c505760307f01000000000000000000000000000000000000000000000000000000000000000284828151811015156129cf57fe5b9060200101517f010000000000000000000000000000000000000000000000000000000000000090047f0100000000000000000000000000000000000000000000000000000000000000027effffffffffffffffffffffffffffffffffffffffffffffffffffffffffffff191610158015612ae7575060397f0100000000000000000000000000000000000000000000000000000000000000028482815181101515612a7757fe5b9060200101517f010000000000000000000000000000000000000000000000000000000000000090047f0100000000000000000000000000000000000000000000000000000000000000027effffffffffffffffffffffffffffffffffffffffffffffffffffffffffffff191611155b15612b98578115612b0a576000861415612b0057612c50565b8580600190039650505b600a8302925060308482815181101515612b2057fe5b9060200101517f010000000000000000000000000000000000000000000000000000000000000090047f0100000000000000000000000000000000000000000000000000000000000000027f010000000000000000000000000000000000000000000000000000000000000090040383019250612c43565b602e7f0100000000000000000000000000000000000000000000000000000000000000028482815181101515612bca57fe5b9060200101517f010000000000000000000000000000000000000000000000000000000000000090047f0100000000000000000000000000000000000000000000000000000000000000027effffffffffffffffffffffffffffffffffffffffffffffffffffffffffffff19161415612c4257600191505b5b8080600101915050612994565b6000861115612c625785600a0a830292505b8294505050505092915050565b600080612c8f731d3b2638a7cc9f2cb3d298a3da7a90b67e5506ed612959565b1115612d3057731d3b2638a7cc9f2cb3d298a3da7a90b67e5506ed6000806101000a81548173ffffffffffffffffffffffffffffffffffffffff021916908373ffffffffffffffffffffffffffffffffffffffff160217905550612d276040805190810160405280600b81526020017f6574685f6d61696e6e65740000000000000000000000000000000000000000008152506130fe565b600190506130fb565b6000612d4f73c03a2615d5efaf5f49f60b7bb6583eaec212fdf1612959565b1115612df05773c03a2615d5efaf5f49f60b7bb6583eaec212fdf16000806101000a81548173ffffffffffffffffffffffffffffffffffffffff021916908373ffffffffffffffffffffffffffffffffffffffff160217905550612de76040805190810160405280600c81526020017f6574685f726f707374656e3300000000000000000000000000000000000000008152506130fe565b600190506130fb565b6000612e0f73b7a07bcf2ba2f2703b24c0691b5278999c59ac7e612959565b1115612eb05773b7a07bcf2ba2f2703b24c0691b5278999c59ac7e6000806101000a81548173ffffffffffffffffffffffffffffffffffffffff021916908373ffffffffffffffffffffffffffffffffffffffff160217905550612ea76040805190810160405280600981526020017f6574685f6b6f76616e00000000000000000000000000000000000000000000008152506130fe565b600190506130fb565b6000612ecf73146500cfd35b22e4a392fe0adc06de1a1368ed48612959565b1115612f705773146500cfd35b22e4a392fe0adc06de1a1368ed486000806101000a81548173ffffffffffffffffffffffffffffffffffffffff021916908373ffffffffffffffffffffffffffffffffffffffff160217905550612f676040805190810160405280600b81526020017f6574685f72696e6b6562790000000000000000000000000000000000000000008152506130fe565b600190506130fb565b6000612f8f736f485c8bf6fc43ea212e93bbf8ce046c7f1cb475612959565b1115612ff257736f485c8bf6fc43ea212e93bbf8ce046c7f1cb4756000806101000a81548173ffffffffffffffffffffffffffffffffffffffff021916908373ffffffffffffffffffffffffffffffffffffffff160217905550600190506130fb565b60006130117320e12a1f859b3feae5fb2a0a32c18f5a65555bbf612959565b1115613074577320e12a1f859b3feae5fb2a0a32c18f5a65555bbf6000806101000a81548173ffffffffffffffffffffffffffffffffffffffff021916908373ffffffffffffffffffffffffffffffffffffffff160217905550600190506130fb565b60006130937351efaf4c8b3c9afbd5ab9f4bbc82784ab6ef8faa612959565b11156130f6577351efaf4c8b3c9afbd5ab9f4bbc82784ab6ef8faa6000806101000a81548173ffffffffffffffffffffffffffffffffffffffff021916908373ffffffffffffffffffffffffffffffffffffffff160217905550600190506130fb565b600090505b90565b8060029080519060200190613114929190613140565b5050565b602060405190810160405280600081525090565b602060405190810160405280600081525090565b828054600181600116156101000203166002900490600052602060002090601f016020900481019282601f1061318157805160ff19168380011785556131af565b828001600101855582156131af579182015b828111156131ae578251825591602001919060010190613193565b5b5090506131bc91906131c0565b5090565b6131e291905b808211156131de5760008160009055506001016131c6565b5090565b905600a165627a7a72305820d3847147b8aeea8ad38c356d50884a323ee00cf1e89b6d0cf7bc8e99ec816bf10029",
  "source": "pragma solidity ^0.4.21;\r\n\r\nimport \"./libraries/SafeMath.sol\";\r\nimport \"./Oraclize/Oraclize_API.sol\";\r\n\r\n\r\n\r\n//This is the basic wrapped Ether to a different chain contract. \r\n//All money deposited is transformed into ERC20 tokens at the rate of 1 wei = 1 token\r\n  /*You push money when you transfer (delete money here).  If it doesn't go through, you can check to see if transfer ID went through\r\n  --How do we deal with livliness assumption? (do we?)\r\n-We need to add ERC20 functionality to represent the Ether transferred from the other contract\r\n  */\r\ncontract Bridge is usingOraclize{\r\n\r\n  using SafeMath for uint256;\r\n\r\n  /***VARIABLES***/\r\n  uint public total_deposited_supply;\r\n  uint transNonce;\r\n  string public partnerBridge; //address of bridge contract on other chain\r\n  string private api;\r\n  address public owner;\r\n  bytes4 private method_data;\r\n  uint public stake;\r\n\r\n  /***STORAGE***/\r\n  mapping(address => uint) deposited_balances;\r\n  mapping (bytes32 => address) query;\r\n\r\n  /***EVENTS***/\r\n  event JoinedBookClub(address _from);\r\n  event LogUpdated(string value);\r\n  event LogNewOraclizeQuery(string description);\r\n\r\n    /***MODIFIERS***/\r\n  /// @dev Access modifier for Owner functionality\r\n  modifier onlyOwner() {\r\n      require(msg.sender == owner);\r\n      _;\r\n  }\r\n\r\n  /***FUNCTIONS***/\r\n\r\n  function Bridge() public {\r\n      method_data = this.departingMember.selector;\r\n      owner = msg.sender;\r\n      setAPI(\"json(https://ropsten.infura.io/).result\");\r\n  }\r\n\r\n  function setFee(uint _fee) public onlyOwner(){\r\n    stake = _fee;\r\n  }\r\n \r\n\r\n  function setOwner (address _owner) public onlyOwner(){\r\n    owner = _owner;\r\n  }\r\n\r\n  function isMember(address _user) public constant returns(bool){\r\n    bool _val = false;\r\n    if(deposited_balances[_user] > 0){\r\n      _val = true;\r\n    }\r\n    return _val;\r\n  }\r\n\r\n\r\n  function joinBookClub() payable public returns(uint){\r\n    //require(msg.value == stake && deposited_balances[msg.sender] == 0);\r\n    deposited_balances[msg.sender] = 1;\r\n    total_deposited_supply += msg.value;\r\n    emit JoinedBookClub(msg.sender);\r\n  }\r\n\r\n\r\n    //we need to append address to end of data_string\r\n\r\n  function checkChild(address _user) public payable{\r\n      if (oraclize_getPrice(\"URL\") * 2  > msg.value) {\r\n          emit LogNewOraclizeQuery(\"Oraclize query was NOT sent, please add some ETH to cover for the query fee\");\r\n      } else {\r\n          emit LogNewOraclizeQuery(\"Oraclize query was sent for locked balance\");\r\n          string memory _params  = createQuery_value(toAsciiString(_user));\r\n          bytes32 queryId = oraclize_query(\"URL\",api,_params);\r\n          query[queryId] = _user;\r\n   }\r\n  }\r\n\r\n   function __callback(bytes32 myId, string result) public {\r\n        require (msg.sender == oraclize_cbAddress());\r\n        uint _res = parseInt(result);\r\n        if(_res == 1){\r\n          address _User = query[myId];\r\n          _User.transfer(stake);\r\n        }\r\n    }\r\n\r\n  function setPartnerBridge(string _connected) public onlyOwner(){\r\n    partnerBridge = strConcat('\"',_connected,'\"');\r\n  }\r\n\r\n\r\n  //try: \"json(https://localhost:8545).result\"\r\n  function setAPI(string _api) public onlyOwner(){\r\n      api = _api; //\"json(https://ropsten.infura.io/).result\"\r\n    }\r\n\r\n    //can make internal once it works\r\n    //check id (60 is an open, so we can try it)\r\n    function createQuery_value(string _member_address) public constant returns(string){\r\n      string memory _code = strConcat(fromCode(method_data),\"000000000000000000000000\",_member_address);\r\n      string memory _part = ' {\"jsonrpc\":\"2.0\",\"id\":4,\"method\":\"eth_call\",\"params\":[{\"to\":';\r\n      string memory _params2 = strConcat(_part,partnerBridge,',\"data\":\"',_code,'\"},\"latest\"]}');\r\n      return _params2;\r\n    }\r\n\r\n\r\n  function departingMember(address _former) public returns(uint){\r\n  }\r\n\r\n\r\n  function fromCode(bytes4 code) public view returns (string) {                                                                                    \r\n    bytes memory result = new bytes(10);                                                                                                         \r\n    result[0] = byte('0');\r\n    result[1] = byte('x');\r\n    for (uint i=0; i<4; ++i) {\r\n        result[2*i+2] = toHexDigit(uint8(code[i])/16);\r\n        result[2*i+3] = toHexDigit(uint8(code[i])%16);\r\n    }\r\n    return string(result);\r\n}\r\n\r\n    function toHexDigit(uint8 d) pure internal returns (byte) {                                                                                      \r\n    if (0 <= d && d <= 9) {                                                                                                                      \r\n        return byte(uint8(byte('0')) + d);                                                                                                       \r\n    } else if (10 <= uint8(d) && uint8(d) <= 15) {                                                                                               \r\n        return byte(uint8(byte('a')) + d - 10);                                                                                                  \r\n    }                                                                                                                                            \r\n    revert();                                                                                                                                    \r\n}                                                                                                                                                \r\n\r\nfunction toAsciiString(address x) returns (string) {\r\n    bytes memory s = new bytes(40);\r\n    for (uint i = 0; i < 20; i++) {\r\n        byte b = byte(uint8(uint(x) / (2**(8*(19 - i)))));\r\n        byte hi = byte(uint8(b) / 16);\r\n        byte lo = byte(uint8(b) - 16 * uint8(hi));\r\n        s[2*i] = char(hi);\r\n        s[2*i+1] = char(lo);            \r\n    }\r\n    return string(s);\r\n}\r\nfunction char(byte b) returns (byte c) {\r\n    if (b < 10) return byte(uint8(b) + 0x30);\r\n    else return byte(uint8(b) + 0x57);\r\n}\r\n\r\n}\r\n",
  "sourcePath": "C:\\Nick\\hackital\\ethereumBookClub\\contracts\\Bridge.sol",
  "compiler": {
    "name": "solc",
    "version": "0.4.21+commit.dfe3193c.Emscripten.clang"
  },
  "schemaVersion": "2.0.0",
  "updatedAt": "2018-04-29T03:03:04.537Z"
}